{"abi":[{"type":"constructor","inputs":[{"name":"_owner","type":"address","internalType":"address"}],"stateMutability":"nonpayable"},{"type":"function","name":"backEnd","inputs":[],"outputs":[{"name":"","type":"address","internalType":"address"}],"stateMutability":"view"},{"type":"function","name":"challengeAddresses","inputs":[{"name":"","type":"uint256","internalType":"uint256"}],"outputs":[{"name":"","type":"address","internalType":"address"}],"stateMutability":"view"},{"type":"function","name":"createEvent","inputs":[{"name":"newAddr","type":"address[10]","internalType":"address[10]"}],"outputs":[],"stateMutability":"nonpayable"},{"type":"function","name":"formalEngineer","inputs":[],"outputs":[{"name":"","type":"address","internalType":"address"}],"stateMutability":"view"},{"type":"function","name":"getAddr","inputs":[],"outputs":[{"name":"","type":"address[]","internalType":"address[]"}],"stateMutability":"view"},{"type":"function","name":"getBackend","inputs":[],"outputs":[{"name":"","type":"address","internalType":"address"}],"stateMutability":"view"},{"type":"function","name":"getFormalEngineer","inputs":[],"outputs":[{"name":"","type":"address","internalType":"address"}],"stateMutability":"view"},{"type":"function","name":"getOwner","inputs":[],"outputs":[{"name":"","type":"address","internalType":"address"}],"stateMutability":"view"},{"type":"function","name":"owner","inputs":[],"outputs":[{"name":"","type":"address","internalType":"address"}],"stateMutability":"view"},{"type":"function","name":"setBackend","inputs":[{"name":"_backend","type":"address","internalType":"address"}],"outputs":[],"stateMutability":"nonpayable"},{"type":"function","name":"setFormalEngineer","inputs":[{"name":"_fm","type":"address","internalType":"address"}],"outputs":[],"stateMutability":"nonpayable"},{"type":"function","name":"setOwner","inputs":[{"name":"_owner","type":"address","internalType":"address"}],"outputs":[],"stateMutability":"nonpayable"},{"type":"event","name":"NewAddressesCreated","inputs":[{"name":"time","type":"uint256","indexed":true,"internalType":"uint256"},{"name":"newAddr","type":"address[10]","indexed":false,"internalType":"address[10]"}],"anonymous":false}],"bytecode":{"object":"0x6080604052348015600e575f80fd5b50604051610770380380610770833981016040819052602b91604e565b5f80546001600160a01b0319166001600160a01b03929092169190911790556079565b5f60208284031215605d575f80fd5b81516001600160a01b03811681146072575f80fd5b9392505050565b6106ea806100865f395ff3fe608060405234801561000f575f80fd5b50600436106100cf575f3560e01c8063893d20e81161007d578063a74c2bb611610058578063a74c2bb6146101e3578063da7fc24f146101f8578063f5e71cd01461020b575f80fd5b8063893d20e8146101945780638da5cb5b146101b157806395763b14146101d0575f80fd5b8063594eda64116100ad578063594eda64146101435780635b4f1a4014610161578063811881b814610181575f80fd5b806313af4035146100d357806349d9656a146100e857806357a72f0314610125575b5f80fd5b6100e66100e1366004610536565b61022b565b005b6100fb6100f6366004610556565b610293565b60405173ffffffffffffffffffffffffffffffffffffffff90911681526020015b60405180910390f35b60015473ffffffffffffffffffffffffffffffffffffffff166100fb565b60025473ffffffffffffffffffffffffffffffffffffffff166100fb565b6002546100fb9073ffffffffffffffffffffffffffffffffffffffff1681565b6100e661018f366004610536565b6102c8565b5f5473ffffffffffffffffffffffffffffffffffffffff166100fb565b5f546100fb9073ffffffffffffffffffffffffffffffffffffffff1681565b6100e66101de36600461056d565b610331565b6101eb61039c565b60405161011c9190610614565b6100e6610206366004610536565b610409565b6001546100fb9073ffffffffffffffffffffffffffffffffffffffff1681565b5f5473ffffffffffffffffffffffffffffffffffffffff16331461024d575f80fd5b5f80547fffffffffffffffffffffffff00000000000000000000000000000000000000001673ffffffffffffffffffffffffffffffffffffffff92909216919091179055565b600381815481106102a2575f80fd5b5f9182526020909120015473ffffffffffffffffffffffffffffffffffffffff16905081565b5f5473ffffffffffffffffffffffffffffffffffffffff1633146102ea575f80fd5b600180547fffffffffffffffffffffffff00000000000000000000000000000000000000001673ffffffffffffffffffffffffffffffffffffffff92909216919091179055565b5f5473ffffffffffffffffffffffffffffffffffffffff163314610353575f80fd5b610360600382600a610472565b50427facf28733f03508e207371ae4557ea355982b2487affe20d62cbec260e143ba8c82604051610391919061066d565b60405180910390a250565b606060038054806020026020016040519081016040528092919081815260200182805480156103ff57602002820191905f5260205f20905b815473ffffffffffffffffffffffffffffffffffffffff1681526001909101906020018083116103d4575b5050505050905090565b5f5473ffffffffffffffffffffffffffffffffffffffff16331461042b575f80fd5b600280547fffffffffffffffffffffffff00000000000000000000000000000000000000001673ffffffffffffffffffffffffffffffffffffffff92909216919091179055565b828054828255905f5260205f209081019282156104ea579160200282015b828111156104ea57825182547fffffffffffffffffffffffff00000000000000000000000000000000000000001673ffffffffffffffffffffffffffffffffffffffff909116178255602090920191600190910190610490565b506104f69291506104fa565b5090565b5b808211156104f6575f81556001016104fb565b803573ffffffffffffffffffffffffffffffffffffffff81168114610531575f80fd5b919050565b5f60208284031215610546575f80fd5b61054f8261050e565b9392505050565b5f60208284031215610566575f80fd5b5035919050565b5f61014080838503121561057f575f80fd5b83601f84011261058d575f80fd5b60405181810181811067ffffffffffffffff821117156105d4577f4e487b71000000000000000000000000000000000000000000000000000000005f52604160045260245ffd5b6040529083019080858311156105e8575f80fd5b845b83811015610609576105fb8161050e565b8252602091820191016105ea565b509095945050505050565b602080825282518282018190525f9190848201906040850190845b8181101561066157835173ffffffffffffffffffffffffffffffffffffffff168352928401929184019160010161062f565b50909695505050505050565b610140810181835f5b600a8110156106ab57815173ffffffffffffffffffffffffffffffffffffffff16835260209283019290910190600101610676565b5050509291505056fea264697066735822122073cabb43066e9da0d82ae2fca7e1acfd1491c4dd216cb24536c13113cbbca4a264736f6c63430008190033","linkReferences":{}},"methodIdentifiers":{"backEnd()":"5b4f1a40","challengeAddresses(uint256)":"49d9656a","createEvent(address[10])":"95763b14","formalEngineer()":"f5e71cd0","getAddr()":"a74c2bb6","getBackend()":"594eda64","getFormalEngineer()":"57a72f03","getOwner()":"893d20e8","owner()":"8da5cb5b","setBackend(address)":"da7fc24f","setFormalEngineer(address)":"811881b8","setOwner(address)":"13af4035"},"id":34}