{"abi":[{"type":"constructor","inputs":[{"name":"_owner","type":"address","internalType":"address"},{"name":"_backend","type":"address","internalType":"address"}],"stateMutability":"nonpayable"},{"type":"function","name":"addNewUser","inputs":[{"name":"user","type":"address","internalType":"address"}],"outputs":[],"stateMutability":"nonpayable"},{"type":"function","name":"backend","inputs":[],"outputs":[{"name":"","type":"address","internalType":"address"}],"stateMutability":"view"},{"type":"function","name":"createInstance","inputs":[{"name":"","type":"address","internalType":"address"}],"outputs":[{"name":"","type":"address","internalType":"address"}],"stateMutability":"payable"},{"type":"function","name":"getAllSpecs","inputs":[],"outputs":[{"name":"","type":"bytes32[]","internalType":"bytes32[]"}],"stateMutability":"view"},{"type":"function","name":"getSpec","inputs":[{"name":"user","type":"address","internalType":"address"}],"outputs":[{"name":"","type":"bytes32","internalType":"bytes32"}],"stateMutability":"view"},{"type":"function","name":"newTlaSpec","inputs":[{"name":"sender","type":"address","internalType":"address"},{"name":"specHash","type":"bytes32","internalType":"bytes32"}],"outputs":[],"stateMutability":"nonpayable"},{"type":"function","name":"owner","inputs":[],"outputs":[{"name":"","type":"address","internalType":"address"}],"stateMutability":"view"},{"type":"function","name":"setBackend","inputs":[{"name":"_newBackend","type":"address","internalType":"address"}],"outputs":[],"stateMutability":"nonpayable"},{"type":"function","name":"userJoined","inputs":[{"name":"user","type":"address","internalType":"address"}],"outputs":[{"name":"","type":"bool","internalType":"bool"}],"stateMutability":"view"},{"type":"function","name":"validateInstance","inputs":[{"name":"_instance","type":"address","internalType":"address payable"},{"name":"","type":"address","internalType":"address"}],"outputs":[{"name":"","type":"bool","internalType":"bool"}],"stateMutability":"pure"},{"type":"event","name":"NewBackend","inputs":[{"name":"oldBackend","type":"address","indexed":true,"internalType":"address"},{"name":"newBackend","type":"address","indexed":true,"internalType":"address"}],"anonymous":false},{"type":"event","name":"NewTlaSpec","inputs":[{"name":"sender","type":"address","indexed":true,"internalType":"address"},{"name":"specHash","type":"bytes32","indexed":false,"internalType":"bytes32"}],"anonymous":false}],"bytecode":{"object":"0x6080604052348015600e575f80fd5b506040516106b33803806106b3833981016040819052602b916074565b600180546001600160a01b039384166001600160a01b0319918216179091555f805492909316911617905560a0565b80516001600160a01b0381168114606f575f80fd5b919050565b5f80604083850312156084575f80fd5b608b83605a565b9150609760208401605a565b90509250929050565b610606806100ad5f395ff3fe6080604052600436106100ad575f3560e01c8063b88fe9d311610066578063c72c42501161004c578063c72c4250146102ce578063d38def5b146102ed578063da7fc24f1461030f575f80fd5b8063b88fe9d3146101b5578063c1d5e84f14610209575f80fd5b80636e190b4e116100965780636e190b4e146101555780637726f776146101765780638da5cb5b14610189575f80fd5b8063099e4133146100b157806333a2026414610106575b5f80fd5b3480156100bc575f80fd5b505f546100dc9073ffffffffffffffffffffffffffffffffffffffff1681565b60405173ffffffffffffffffffffffffffffffffffffffff90911681526020015b60405180910390f35b348015610111575f80fd5b506101476101203660046104dd565b73ffffffffffffffffffffffffffffffffffffffff165f9081526004602052604090205490565b6040519081526020016100fd565b348015610160575f80fd5b5061016961032e565b6040516100fd91906104ff565b6100dc6101843660046104dd565b503090565b348015610194575f80fd5b506001546100dc9073ffffffffffffffffffffffffffffffffffffffff1681565b3480156101c0575f80fd5b506101f96101cf3660046104dd565b73ffffffffffffffffffffffffffffffffffffffff165f9081526003602052604090205460ff1690565b60405190151581526020016100fd565b348015610214575f80fd5b506102cc6102233660046104dd565b6002805460018181019092557f405787fa12a823e0f2b7631cc41b3ba8828b3321ca811111fa75cd3aa3bb5ace01805473ffffffffffffffffffffffffffffffffffffffff9093167fffffffffffffffffffffffff0000000000000000000000000000000000000000909316831790555f9182526003602052604090912080547fffffffffffffffffffffffffffffffffffffffffffffffffffffffffffffff00169091179055565b005b3480156102d9575f80fd5b506102cc6102e8366004610542565b6103b1565b3480156102f8575f80fd5b506101f961030736600461056c565b600192915050565b34801561031a575f80fd5b506102cc6103293660046104dd565b610427565b6060805f5b6002548110156103ab5760045f60028381548110610353576103536105a3565b5f91825260208083209091015473ffffffffffffffffffffffffffffffffffffffff1683528201929092526040019020548251839083908110610398576103986105a3565b6020908102919091010152600101610333565b50919050565b5f5473ffffffffffffffffffffffffffffffffffffffff1633146103d3575f80fd5b8173ffffffffffffffffffffffffffffffffffffffff167f5528b23102ed51aa8dfb7c046d76fa36f4f4e2c4bbbecfb6c7366b6b0bc3de948260405161041b91815260200190565b60405180910390a25050565b60015473ffffffffffffffffffffffffffffffffffffffff16331461044a575f80fd5b5f80547fffffffffffffffffffffffff00000000000000000000000000000000000000001673ffffffffffffffffffffffffffffffffffffffff83169081178255604051909182917f79b5fa6bc4e3fdead4323bd2d034934ecc7858c4b76c6542309dcc419fd719179190a350565b73ffffffffffffffffffffffffffffffffffffffff811681146104da575f80fd5b50565b5f602082840312156104ed575f80fd5b81356104f8816104b9565b9392505050565b602080825282518282018190525f9190848201906040850190845b818110156105365783518352928401929184019160010161051a565b50909695505050505050565b5f8060408385031215610553575f80fd5b823561055e816104b9565b946020939093013593505050565b5f806040838503121561057d575f80fd5b8235610588816104b9565b91506020830135610598816104b9565b809150509250929050565b7f4e487b71000000000000000000000000000000000000000000000000000000005f52603260045260245ffdfea26469706673582212201620bddc712c9e1a5d406b14848ac4948d5b8407a6e0858026aae8d29908548264736f6c63430008190033","linkReferences":{}},"methodIdentifiers":{"addNewUser(address)":"c1d5e84f","backend()":"099e4133","createInstance(address)":"7726f776","getAllSpecs()":"6e190b4e","getSpec(address)":"33a20264","newTlaSpec(address,bytes32)":"c72c4250","owner()":"8da5cb5b","setBackend(address)":"da7fc24f","userJoined(address)":"b88fe9d3","validateInstance(address,address)":"d38def5b"},"id":77}