{"abi":[{"type":"constructor","inputs":[{"name":"_owner","type":"address","internalType":"address"}],"stateMutability":"nonpayable"},{"type":"function","name":"createLevelInstance","inputs":[{"name":"_level","type":"address","internalType":"contract Level"}],"outputs":[{"name":"","type":"address","internalType":"address"}],"stateMutability":"payable"},{"type":"function","name":"emittedInstances","inputs":[{"name":"","type":"address","internalType":"address"}],"outputs":[{"name":"player","type":"address","internalType":"address"},{"name":"level","type":"address","internalType":"contract Level"},{"name":"completed","type":"bool","internalType":"bool"}],"stateMutability":"view"},{"type":"function","name":"formalEngineer","inputs":[],"outputs":[{"name":"","type":"address","internalType":"address"}],"stateMutability":"view"},{"type":"function","name":"getCurrentLevelInstance","inputs":[{"name":"_level","type":"address","internalType":"address"},{"name":"_player","type":"address","internalType":"address"}],"outputs":[{"name":"","type":"address","internalType":"address"}],"stateMutability":"view"},{"type":"function","name":"isPlayerRegisted","inputs":[{"name":"user","type":"address","internalType":"address"}],"outputs":[{"name":"","type":"bool","internalType":"bool"}],"stateMutability":"view"},{"type":"function","name":"isStart","inputs":[],"outputs":[{"name":"","type":"bool","internalType":"bool"}],"stateMutability":"view"},{"type":"function","name":"joinToFormalChallange","inputs":[{"name":"_level","type":"address","internalType":"contract Level"}],"outputs":[{"name":"","type":"address","internalType":"address"}],"stateMutability":"payable"},{"type":"function","name":"owner","inputs":[],"outputs":[{"name":"","type":"address","internalType":"address"}],"stateMutability":"view"},{"type":"function","name":"playersName","inputs":[{"name":"","type":"address","internalType":"address"}],"outputs":[{"name":"","type":"bytes32","internalType":"bytes32"}],"stateMutability":"view"},{"type":"function","name":"playersTG","inputs":[{"name":"","type":"address","internalType":"address"}],"outputs":[{"name":"","type":"bytes32","internalType":"bytes32"}],"stateMutability":"view"},{"type":"function","name":"register","inputs":[{"name":"_nickname","type":"bytes32","internalType":"bytes32"},{"name":"_tg","type":"bytes32","internalType":"bytes32"}],"outputs":[{"name":"","type":"bool","internalType":"bool"}],"stateMutability":"nonpayable"},{"type":"function","name":"registerLevel","inputs":[{"name":"_level","type":"address","internalType":"address"}],"outputs":[],"stateMutability":"nonpayable"},{"type":"function","name":"registeredLevels","inputs":[{"name":"","type":"address","internalType":"address"}],"outputs":[{"name":"","type":"bool","internalType":"bool"}],"stateMutability":"view"},{"type":"function","name":"renounceOwnership","inputs":[],"outputs":[],"stateMutability":"nonpayable"},{"type":"function","name":"returnUserLen","inputs":[],"outputs":[{"name":"","type":"uint8","internalType":"uint8"}],"stateMutability":"view"},{"type":"function","name":"setFormalEngineer","inputs":[{"name":"_fmEngineer","type":"address","internalType":"address"}],"outputs":[],"stateMutability":"nonpayable"},{"type":"function","name":"setStart","inputs":[],"outputs":[],"stateMutability":"nonpayable"},{"type":"function","name":"setStatistics","inputs":[{"name":"_statProxy","type":"address","internalType":"address"}],"outputs":[],"stateMutability":"nonpayable"},{"type":"function","name":"statistics","inputs":[],"outputs":[{"name":"","type":"address","internalType":"contract Statistics"}],"stateMutability":"view"},{"type":"function","name":"submitFormalSpecAsSuccesssfull","inputs":[{"name":"level","type":"address","internalType":"address"},{"name":"user","type":"address","internalType":"address"}],"outputs":[{"name":"","type":"bool","internalType":"bool"}],"stateMutability":"nonpayable"},{"type":"function","name":"submitLevelInstance","inputs":[{"name":"_instance","type":"address","internalType":"address payable"}],"outputs":[{"name":"","type":"bool","internalType":"bool"}],"stateMutability":"nonpayable"},{"type":"function","name":"transferOwnership","inputs":[{"name":"newOwner","type":"address","internalType":"address"}],"outputs":[],"stateMutability":"nonpayable"},{"type":"event","name":"LevelCompletedLog","inputs":[{"name":"player","type":"address","indexed":true,"internalType":"address"},{"name":"level","type":"address","indexed":false,"internalType":"contract Level"},{"name":"nickname","type":"string","indexed":false,"internalType":"string"}],"anonymous":false},{"type":"event","name":"LevelInstanceCreatedLog","inputs":[{"name":"player","type":"address","indexed":true,"internalType":"address"},{"name":"level","type":"address","indexed":true,"internalType":"address"},{"name":"instance","type":"address","indexed":false,"internalType":"address"},{"name":"nickname","type":"string","indexed":false,"internalType":"string"}],"anonymous":false},{"type":"event","name":"OwnershipTransferred","inputs":[{"name":"previousOwner","type":"address","indexed":true,"internalType":"address"},{"name":"newOwner","type":"address","indexed":true,"internalType":"address"}],"anonymous":false},{"type":"event","name":"PlayerRegistered","inputs":[{"name":"player","type":"address","indexed":true,"internalType":"address"},{"name":"tg","type":"string","indexed":false,"internalType":"string"},{"name":"nickname","type":"string","indexed":false,"internalType":"string"}],"anonymous":false},{"type":"error","name":"OwnableInvalidOwner","inputs":[{"name":"owner","type":"address","internalType":"address"}]},{"type":"error","name":"OwnableUnauthorizedAccount","inputs":[{"name":"account","type":"address","internalType":"address"}]},{"type":"error","name":"UserDoentJoined","inputs":[{"name":"user","type":"address","internalType":"address"}]}],"bytecode":{"object":"0x608060405234801561000f575f80fd5b50604051611a3d380380611a3d83398101604081905261002e916100bb565b806001600160a01b03811661005c57604051631e4fbdf760e01b81525f600482015260240160405180910390fd5b6100658161006c565b50506100e8565b5f80546001600160a01b038381166001600160a01b0319831681178455604051919092169283917f8be0079c531659141344cd1fd0a4f28419497f9722a3daafe3b4186f6b6457e09190a35050565b5f602082840312156100cb575f80fd5b81516001600160a01b03811681146100e1575f80fd5b9392505050565b611948806100f55f395ff3fe60806040526004361061016d575f3560e01c80638a55d36e116100c6578063c882d7c21161007c578063f2fde38b11610057578063f2fde38b146104a8578063f5e71cd0146104c7578063fa5789f4146104f3575f80fd5b8063c882d7c214610448578063cf00469514610467578063dfc86b1714610495575f80fd5b806395e272bd116100ac57806395e272bd146103d2578063ae64d9db146103fe578063be117dfd14610429575f80fd5b80638a55d36e146103795780638da5cb5b146103a9575f80fd5b806356d0857a1161012657806375c784541161010157806375c784541461030e5780637fe849d714610347578063811881b81461035a575f80fd5b806356d0857a146102bc5780635c495921146102db578063715018a6146102fa575f80fd5b80632f926732116101565780632f926732146101db57806335975a371461020a5780634f17afd81461021e575f80fd5b80630f2bc2bb14610171578063202023d4146101ba575b5f80fd5b34801561017c575f80fd5b5061019061018b366004611776565b610515565b60405173ffffffffffffffffffffffffffffffffffffffff90911681526020015b60405180910390f35b3480156101c5575f80fd5b506101d96101d43660046117ad565b610550565b005b3480156101e6575f80fd5b506101fa6101f53660046117cf565b610615565b60405190151581526020016101b1565b348015610215575f80fd5b506101d96106fa565b348015610229575f80fd5b506102876102383660046117ad565b60076020525f90815260409020805460019091015473ffffffffffffffffffffffffffffffffffffffff9182169181169074010000000000000000000000000000000000000000900460ff1683565b6040805173ffffffffffffffffffffffffffffffffffffffff94851681529390921660208401521515908201526060016101b1565b3480156102c7575f80fd5b506101fa6102d6366004611776565b61074e565b3480156102e6575f80fd5b506101fa6102f53660046117ad565b610927565b348015610305575f80fd5b506101d9610961565b348015610319575f80fd5b506103396103283660046117ad565b60046020525f908152604090205481565b6040519081526020016101b1565b6101906103553660046117ad565b610974565b348015610365575f80fd5b506101d96103743660046117ad565b610d4f565b348015610384575f80fd5b505f546101fa9074010000000000000000000000000000000000000000900460ff1681565b3480156103b4575f80fd5b505f5473ffffffffffffffffffffffffffffffffffffffff16610190565b3480156103dd575f80fd5b506002546101909073ffffffffffffffffffffffffffffffffffffffff1681565b348015610409575f80fd5b506103396104183660046117ad565b60056020525f908152604090205481565b348015610434575f80fd5b506101d96104433660046117ad565b610d9e565b348015610453575f80fd5b506101fa6104623660046117ad565b610ded565b348015610472575f80fd5b506101fa6104813660046117ad565b60036020525f908152604090205460ff1681565b6101906104a33660046117ad565b61124f565b3480156104b3575f80fd5b506101d96104c23660046117ad565b61162c565b3480156104d2575f80fd5b506001546101909073ffffffffffffffffffffffffffffffffffffffff1681565b3480156104fe575f80fd5b50335f5260046020908152604051818152016101b1565b73ffffffffffffffffffffffffffffffffffffffff8082165f9081526006602090815260408083208685168452909152902054165b92915050565b61055861168f565b73ffffffffffffffffffffffffffffffffffffffff8181165f818152600360205260409081902080547fffffffffffffffffffffffffffffffffffffffffffffffffffffffffffffff0016600117905560025490517fcd819a6f00000000000000000000000000000000000000000000000000000000815260048101929092529091169063cd819a6f906024015f604051808303815f87803b1580156105fc575f80fd5b505af115801561060e573d5f803e3d5ffd5b5050505050565b335f908152600460205260408120546106f257335f818152600460209081526040808320879055600582529182902085905581519081018590527f6b29d22790df4b668eb73ff09b0386f9a20ba88343b0753dcc8c774aa9a0252f9101604080517fffffffffffffffffffffffffffffffffffffffffffffffffffffffffffffffe0818403018152828252602083018890529101604080517fffffffffffffffffffffffffffffffffffffffffffffffffffffffffffffffe0818403018152908290526106e2929161185a565b60405180910390a250600161054a565b505f92915050565b61070261168f565b5f80547fffffffffffffffffffffff00ffffffffffffffffffffffffffffffffffffffff8116740100000000000000000000000000000000000000009182900460ff1615909102179055565b5f805474010000000000000000000000000000000000000000900460ff166107d7576040517f08c379a000000000000000000000000000000000000000000000000000000000815260206004820152601160248201527f435446206e6f742079657420737461727400000000000000000000000000000060448201526064015b60405180910390fd5b60015473ffffffffffffffffffffffffffffffffffffffff1633146107fa575f80fd5b6002546040517f2c038c3200000000000000000000000000000000000000000000000000000000815273ffffffffffffffffffffffffffffffffffffffff858116600483018190526024830152848116604483015290911690632c038c32906064015f604051808303815f87803b158015610873575f80fd5b505af1158015610885573d5f803e3d5ffd5b5050505073ffffffffffffffffffffffffffffffffffffffff82165f81815260046020908152604091829020548251918201527f3af56f6cc95f227ffda754d8786659d55c207a50131690d5140c647b8379a90391869101604080517fffffffffffffffffffffffffffffffffffffffffffffffffffffffffffffffe0818403018152908290526109169291611887565b60405180910390a250600192915050565b73ffffffffffffffffffffffffffffffffffffffff81165f90815260046020526040812054810361095957505f919050565b506001919050565b61096961168f565b6109725f6116e1565b565b5f805474010000000000000000000000000000000000000000900460ff166109f8576040517f08c379a000000000000000000000000000000000000000000000000000000000815260206004820152601160248201527f435446206e6f742079657420737461727400000000000000000000000000000060448201526064016107ce565b6040513360248201525f90819073ffffffffffffffffffffffffffffffffffffffff851690604401604080517fffffffffffffffffffffffffffffffffffffffffffffffffffffffffffffffe08184030181529181526020820180517bffffffffffffffffffffffffffffffffffffffffffffffffffffffff167fc1d5e84f0000000000000000000000000000000000000000000000000000000017905251610aa191906118bd565b5f604051808303815f865af19150503d805f8114610ada576040519150601f19603f3d011682016040523d82523d5f602084013e610adf565b606091505b509150915081610b1d576040517f480fd3030000000000000000000000000000000000000000000000000000000081523360048201526024016107ce565b604080516060810182523380825273ffffffffffffffffffffffffffffffffffffffff87811660208085018281525f8688018181528482526007909352879020955186549085167fffffffffffffffffffffffff000000000000000000000000000000000000000090911617865551600190950180549151151574010000000000000000000000000000000000000000027fffffffffffffffffffffff000000000000000000000000000000000000000000909216958416959095171790935560025493517f7e4326d300000000000000000000000000000000000000000000000000000000815260048101849052602481019390935260448301919091529190911690637e4326d3906064015f604051808303815f87803b158015610c41575f80fd5b505af1158015610c53573d5f803e3d5ffd5b5050335f818152600460209081526040918290205482519182015273ffffffffffffffffffffffffffffffffffffffff891694509192507f791b08fc1ada6046f41382a43f067ab9818591bb96ae3a4bdb435ca6285456b691889101604080517fffffffffffffffffffffffffffffffffffffffffffffffffffffffffffffffe081840301815290829052610ce89291611887565b60405180910390a35050335f90815260066020908152604080832073ffffffffffffffffffffffffffffffffffffffff8616808552925290912080547fffffffffffffffffffffffff00000000000000000000000000000000000000001690911790555090565b610d5761168f565b600180547fffffffffffffffffffffffff00000000000000000000000000000000000000001673ffffffffffffffffffffffffffffffffffffffff92909216919091179055565b610da661168f565b600280547fffffffffffffffffffffffff00000000000000000000000000000000000000001673ffffffffffffffffffffffffffffffffffffffff92909216919091179055565b5f805474010000000000000000000000000000000000000000900460ff16610e71576040517f08c379a000000000000000000000000000000000000000000000000000000000815260206004820152601160248201527f435446206e6f742079657420737461727400000000000000000000000000000060448201526064016107ce565b73ffffffffffffffffffffffffffffffffffffffff8083165f90815260076020526040902080549091163314610f29576040517f08c379a000000000000000000000000000000000000000000000000000000000815260206004820152603060248201527f5468697320696e7374616e636520646f65736e27742062656c6f6e6720746f2060448201527f7468652063757272656e7420757365720000000000000000000000000000000060648201526084016107ce565b600181015474010000000000000000000000000000000000000000900460ff1615610fb0576040517f08c379a000000000000000000000000000000000000000000000000000000000815260206004820181905260248201527f4c6576656c20686173206265656e20636f6d706c6574656420616c726561647960448201526064016107ce565b60018101546040517fd38def5b00000000000000000000000000000000000000000000000000000000815273ffffffffffffffffffffffffffffffffffffffff85811660048301523360248301529091169063d38def5b906044016020604051808303815f875af1158015611027573d5f803e3d5ffd5b505050506040513d601f19601f8201168201806040525081019061104b91906118d8565b156111b557600181018054740100000000000000000000000000000000000000007fffffffffffffffffffffff00ffffffffffffffffffffffffffffffffffffffff8216179091556002546040517f2c038c3200000000000000000000000000000000000000000000000000000000815273ffffffffffffffffffffffffffffffffffffffff86811660048301529283166024820152336044820152911690632c038c32906064015f604051808303815f87803b15801561110a575f80fd5b505af115801561111c573d5f803e3d5ffd5b505050506001810154335f818152600460209081526040918290205482519182015291927f3af56f6cc95f227ffda754d8786659d55c207a50131690d5140c647b8379a9039273ffffffffffffffffffffffffffffffffffffffff9091169101604080517fffffffffffffffffffffffffffffffffffffffffffffffffffffffffffffffe0818403018152908290526109169291611887565b60025460018201546040517fd0f191e000000000000000000000000000000000000000000000000000000000815273ffffffffffffffffffffffffffffffffffffffff8681166004830152918216602482015233604482015291169063d0f191e0906064015f604051808303815f87803b158015611231575f80fd5b505af1158015611243573d5f803e3d5ffd5b505f9695505050505050565b5f805474010000000000000000000000000000000000000000900460ff166112d3576040517f08c379a000000000000000000000000000000000000000000000000000000000815260206004820152601160248201527f435446206e6f742079657420737461727400000000000000000000000000000060448201526064016107ce565b73ffffffffffffffffffffffffffffffffffffffff82165f9081526003602052604090205460ff16611361576040517f08c379a000000000000000000000000000000000000000000000000000000000815260206004820152601960248201527f54686973206c6576656c20646f65736e2774206578697374730000000000000060448201526064016107ce565b6040517f7726f7760000000000000000000000000000000000000000000000000000000081523360048201525f9073ffffffffffffffffffffffffffffffffffffffff841690637726f77690349060240160206040518083038185885af11580156113ce573d5f803e3d5ffd5b50505050506040513d601f19601f820116820180604052508101906113f391906118f7565b604080516060810182523380825273ffffffffffffffffffffffffffffffffffffffff87811660208085018281525f868801818152898616808352600790945290889020965187549086167fffffffffffffffffffffffff00000000000000000000000000000000000000009091161787559051600190960180549151151574010000000000000000000000000000000000000000027fffffffffffffffffffffff000000000000000000000000000000000000000000909216968516969096171790945560025494517f7e4326d3000000000000000000000000000000000000000000000000000000008152600481019490945260248401526044830191909152929350911690637e4326d3906064015f604051808303815f87803b15801561151b575f80fd5b505af115801561152d573d5f803e3d5ffd5b5050335f818152600460209081526040918290205482519182015273ffffffffffffffffffffffffffffffffffffffff881694509192507f791b08fc1ada6046f41382a43f067ab9818591bb96ae3a4bdb435ca6285456b691859101604080517fffffffffffffffffffffffffffffffffffffffffffffffffffffffffffffffe0818403018152908290526115c29291611887565b60405180910390a3335f90815260066020908152604080832073ffffffffffffffffffffffffffffffffffffffff9687168452909152902080547fffffffffffffffffffffffff000000000000000000000000000000000000000016938216939093179092555090565b61163461168f565b73ffffffffffffffffffffffffffffffffffffffff8116611683576040517f1e4fbdf70000000000000000000000000000000000000000000000000000000081525f60048201526024016107ce565b61168c816116e1565b50565b5f5473ffffffffffffffffffffffffffffffffffffffff163314610972576040517f118cdaa70000000000000000000000000000000000000000000000000000000081523360048201526024016107ce565b5f805473ffffffffffffffffffffffffffffffffffffffff8381167fffffffffffffffffffffffff0000000000000000000000000000000000000000831681178455604051919092169283917f8be0079c531659141344cd1fd0a4f28419497f9722a3daafe3b4186f6b6457e09190a35050565b73ffffffffffffffffffffffffffffffffffffffff8116811461168c575f80fd5b5f8060408385031215611787575f80fd5b823561179281611755565b915060208301356117a281611755565b809150509250929050565b5f602082840312156117bd575f80fd5b81356117c881611755565b9392505050565b5f80604083850312156117e0575f80fd5b50508035926020909101359150565b5f5b838110156118095781810151838201526020016117f1565b50505f910152565b5f81518084526118288160208601602086016117ef565b601f017fffffffffffffffffffffffffffffffffffffffffffffffffffffffffffffffe0169290920160200192915050565b604081525f61186c6040830185611811565b828103602084015261187e8185611811565b95945050505050565b73ffffffffffffffffffffffffffffffffffffffff83168152604060208201525f6118b56040830184611811565b949350505050565b5f82516118ce8184602087016117ef565b9190910192915050565b5f602082840312156118e8575f80fd5b815180151581146117c8575f80fd5b5f60208284031215611907575f80fd5b81516117c88161175556fea26469706673582212209d4484a32909a8d4ee28dfbd88af0c3274e4d01cccc1b4939b5b2bf3dc1010f964736f6c63430008190033","linkReferences":{}},"methodIdentifiers":{"createLevelInstance(address)":"dfc86b17","emittedInstances(address)":"4f17afd8","formalEngineer()":"f5e71cd0","getCurrentLevelInstance(address,address)":"0f2bc2bb","isPlayerRegisted(address)":"5c495921","isStart()":"8a55d36e","joinToFormalChallange(address)":"7fe849d7","owner()":"8da5cb5b","playersName(address)":"75c78454","playersTG(address)":"ae64d9db","register(bytes32,bytes32)":"2f926732","registerLevel(address)":"202023d4","registeredLevels(address)":"cf004695","renounceOwnership()":"715018a6","returnUserLen()":"fa5789f4","setFormalEngineer(address)":"811881b8","setStart()":"35975a37","setStatistics(address)":"be117dfd","statistics()":"95e272bd","submitFormalSpecAsSuccesssfull(address,address)":"56d0857a","submitLevelInstance(address)":"c882d7c2","transferOwnership(address)":"f2fde38b"},"id":41}