{"abi":[{"type":"function","name":"createNewInstance","inputs":[{"name":"instance","type":"address","internalType":"address"},{"name":"level","type":"address","internalType":"address"},{"name":"player","type":"address","internalType":"address"}],"outputs":[],"stateMutability":"nonpayable"},{"type":"function","name":"doesLevelExist","inputs":[{"name":"level","type":"address","internalType":"address"}],"outputs":[{"name":"","type":"bool","internalType":"bool"}],"stateMutability":"view"},{"type":"function","name":"doesPlayerExist","inputs":[{"name":"player","type":"address","internalType":"address"}],"outputs":[{"name":"","type":"bool","internalType":"bool"}],"stateMutability":"view"},{"type":"function","name":"getAverageTimeTakenToCompleteLevels","inputs":[{"name":"player","type":"address","internalType":"address"}],"outputs":[{"name":"","type":"uint256","internalType":"uint256"}],"stateMutability":"view"},{"type":"function","name":"getNoOfCompletedSubmissionsForLevel","inputs":[{"name":"level","type":"address","internalType":"address"}],"outputs":[{"name":"","type":"uint256","internalType":"uint256"}],"stateMutability":"view"},{"type":"function","name":"getNoOfFailedSubmissionsForLevel","inputs":[{"name":"level","type":"address","internalType":"address"}],"outputs":[{"name":"","type":"uint256","internalType":"uint256"}],"stateMutability":"view"},{"type":"function","name":"getNoOfInstancesForLevel","inputs":[{"name":"level","type":"address","internalType":"address"}],"outputs":[{"name":"","type":"uint256","internalType":"uint256"}],"stateMutability":"view"},{"type":"function","name":"getPercentageOfLevelsCompleted","inputs":[{"name":"player","type":"address","internalType":"address"}],"outputs":[{"name":"","type":"uint256","internalType":"uint256"}],"stateMutability":"view"},{"type":"function","name":"getPlayers","inputs":[],"outputs":[{"name":"","type":"address[]","internalType":"address[]"}],"stateMutability":"view"},{"type":"function","name":"getSubmissionsForLevelByPlayer","inputs":[{"name":"player","type":"address","internalType":"address"},{"name":"level","type":"address","internalType":"address"},{"name":"index","type":"uint256","internalType":"uint256"}],"outputs":[{"name":"","type":"uint256","internalType":"uint256"}],"stateMutability":"view"},{"type":"function","name":"getTimeElapsedForCompletionOfLevel","inputs":[{"name":"player","type":"address","internalType":"address"},{"name":"level","type":"address","internalType":"address"}],"outputs":[{"name":"","type":"uint256","internalType":"uint256"}],"stateMutability":"view"},{"type":"function","name":"getTotalNoOfCTFLevels","inputs":[],"outputs":[{"name":"","type":"uint256","internalType":"uint256"}],"stateMutability":"view"},{"type":"function","name":"getTotalNoOfFailedSubmissions","inputs":[],"outputs":[{"name":"","type":"uint256","internalType":"uint256"}],"stateMutability":"view"},{"type":"function","name":"getTotalNoOfFailedSubmissionsByPlayer","inputs":[{"name":"player","type":"address","internalType":"address"}],"outputs":[{"name":"","type":"uint256","internalType":"uint256"}],"stateMutability":"view"},{"type":"function","name":"getTotalNoOfFailuresForLevelAndPlayer","inputs":[{"name":"level","type":"address","internalType":"address"},{"name":"player","type":"address","internalType":"address"}],"outputs":[{"name":"","type":"uint256","internalType":"uint256"}],"stateMutability":"view"},{"type":"function","name":"getTotalNoOfLevelInstancesCompleted","inputs":[],"outputs":[{"name":"","type":"uint256","internalType":"uint256"}],"stateMutability":"view"},{"type":"function","name":"getTotalNoOfLevelInstancesCompletedByPlayer","inputs":[{"name":"player","type":"address","internalType":"address"}],"outputs":[{"name":"","type":"uint256","internalType":"uint256"}],"stateMutability":"view"},{"type":"function","name":"getTotalNoOfLevelInstancesCreated","inputs":[],"outputs":[{"name":"","type":"uint256","internalType":"uint256"}],"stateMutability":"view"},{"type":"function","name":"getTotalNoOfLevelInstancesCreatedByPlayer","inputs":[{"name":"player","type":"address","internalType":"address"}],"outputs":[{"name":"","type":"uint256","internalType":"uint256"}],"stateMutability":"view"},{"type":"function","name":"getTotalNoOfLevelsCompletedByPlayer","inputs":[{"name":"player","type":"address","internalType":"address"}],"outputs":[{"name":"","type":"uint256","internalType":"uint256"}],"stateMutability":"view"},{"type":"function","name":"getTotalNoOfPlayers","inputs":[],"outputs":[{"name":"","type":"uint256","internalType":"uint256"}],"stateMutability":"view"},{"type":"function","name":"initialize","inputs":[{"name":"_positiveCTFAddress","type":"address","internalType":"address"}],"outputs":[],"stateMutability":"nonpayable"},{"type":"function","name":"isLevelCompleted","inputs":[{"name":"player","type":"address","internalType":"address"},{"name":"level","type":"address","internalType":"address"}],"outputs":[{"name":"","type":"bool","internalType":"bool"}],"stateMutability":"view"},{"type":"function","name":"levels","inputs":[{"name":"","type":"uint256","internalType":"uint256"}],"outputs":[{"name":"","type":"address","internalType":"address"}],"stateMutability":"view"},{"type":"function","name":"players","inputs":[{"name":"","type":"uint256","internalType":"uint256"}],"outputs":[{"name":"","type":"address","internalType":"address"}],"stateMutability":"view"},{"type":"function","name":"positiveCTF","inputs":[],"outputs":[{"name":"","type":"address","internalType":"address"}],"stateMutability":"view"},{"type":"function","name":"saveNewLevel","inputs":[{"name":"level","type":"address","internalType":"address"}],"outputs":[],"stateMutability":"nonpayable"},{"type":"function","name":"submitFailure","inputs":[{"name":"instance","type":"address","internalType":"address"},{"name":"level","type":"address","internalType":"address"},{"name":"player","type":"address","internalType":"address"}],"outputs":[],"stateMutability":"nonpayable"},{"type":"function","name":"submitSuccess","inputs":[{"name":"instance","type":"address","internalType":"address"},{"name":"level","type":"address","internalType":"address"},{"name":"player","type":"address","internalType":"address"}],"outputs":[],"stateMutability":"nonpayable"},{"type":"event","name":"Initialized","inputs":[{"name":"version","type":"uint64","indexed":false,"internalType":"uint64"}],"anonymous":false},{"type":"event","name":"playerScoreProfile","inputs":[{"name":"player","type":"address","indexed":true,"internalType":"address"},{"name":"averageCompletionTime","type":"uint256","indexed":true,"internalType":"uint256"},{"name":"globalLevelsCompleted","type":"uint256","indexed":true,"internalType":"uint256"}],"anonymous":false},{"type":"error","name":"InvalidInitialization","inputs":[]},{"type":"error","name":"NotInitializing","inputs":[]}],"bytecode":{"object":"0x6080604052348015600e575f80fd5b506129628061001c5f395ff3fe608060405234801561000f575f80fd5b50600436106101c6575f3560e01c8063900f09ac116100fe578063cd819a6f1161009e578063e2d8716f1161006e578063e2d8716f14610418578063f3a399091461042b578063f71d96cb14610463578063fb66d7ab14610476575f80fd5b8063cd819a6f146103cc578063d0f191e0146103df578063d844f6a4146103f2578063e041ae9b14610405575f80fd5b8063ba5d8082116100d9578063ba5d808214610356578063babd5d261461039e578063bc3086a2146103a6578063c4d66de8146103b9575f80fd5b8063900f09ac146103285780639cbf280d14610330578063b2596a6714610343575f80fd5b80637cbe8d0411610169578063855e250711610144578063855e2507146102a95780638b146ad6146102ed5780638b5b9ccc146103005780638dc0353514610315575f80fd5b80637cbe8d04146102865780637ceb95331461028e5780637e4326d314610296575f80fd5b80633aa46685116101a45780633aa46685146102185780633d9aeaef1461024d578063763fdb45146102605780637a9b6dda14610273575f80fd5b806322ae77ec146101ca5780632c038c32146101f05780633620419814610205575b5f80fd5b6101dd6101d83660046126ed565b61047e565b6040519081526020015b60405180910390f35b6102036101fe36600461271e565b610625565b005b6101dd61021336600461275e565b610c32565b6101dd61022636600461275e565b73ffffffffffffffffffffffffffffffffffffffff165f9081526010602052604090205490565b6101dd61025b36600461275e565b610ceb565b6101dd61026e36600461275e565b610da7565b6101dd61028136600461275e565b610e60565b6003546101dd565b6005546101dd565b6102036102a436600461271e565b610f19565b5f546102c89073ffffffffffffffffffffffffffffffffffffffff1681565b60405173ffffffffffffffffffffffffffffffffffffffff90911681526020016101e7565b6101dd6102fb36600461275e565b6113b8565b610308611471565b6040516101e79190612777565b6101dd6103233660046126ed565b6114de565b6004546101dd565b6101dd61033e36600461275e565b6116f3565b6102c86103513660046127d0565b6117ac565b61038e61036436600461275e565b73ffffffffffffffffffffffffffffffffffffffff165f908152600e602052604090205460ff1690565b60405190151581526020016101e7565b6002546101dd565b6101dd6103b436600461275e565b6117e1565b6102036103c736600461275e565b6118a0565b6102036103da36600461275e565b611a54565b6102036103ed36600461271e565b611c39565b6101dd6104003660046127e7565b6120ed565b6101dd61041336600461275e565b61230a565b61038e6104263660046126ed565b6123c6565b61038e61043936600461275e565b73ffffffffffffffffffffffffffffffffffffffff165f908152600f602052604090205460ff1690565b6102c86104713660046127d0565b612540565b6001546101dd565b73ffffffffffffffffffffffffffffffffffffffff81165f908152600e6020526040812054829060ff16610513576040517f08c379a000000000000000000000000000000000000000000000000000000000815260206004820152601460248201527f506c6179657220646f65736e277420657869737400000000000000000000000060448201526064015b60405180910390fd5b836105428173ffffffffffffffffffffffffffffffffffffffff165f908152600f602052604090205460ff1690565b6105a8576040517f08c379a000000000000000000000000000000000000000000000000000000000815260206004820152601360248201527f4c6576656c20646f65736e277420657869737400000000000000000000000000604482015260640161050a565b73ffffffffffffffffffffffffffffffffffffffff8481165f908152600d602090815260408083208985168452909152902054166105e6575f61061c565b73ffffffffffffffffffffffffffffffffffffffff8085165f908152600d60209081526040808320938916835292905220600301545b95945050505050565b5f5473ffffffffffffffffffffffffffffffffffffffff1633146106cb576040517f08c379a000000000000000000000000000000000000000000000000000000000815260206004820152602760248201527f4f6e6c7920506f7369746976654354462063616e2063616c6c2074686973206660448201527f756e6374696f6e00000000000000000000000000000000000000000000000000606482015260840161050a565b816106fa8173ffffffffffffffffffffffffffffffffffffffff165f908152600f602052604090205460ff1690565b610760576040517f08c379a000000000000000000000000000000000000000000000000000000000815260206004820152601360248201527f4c6576656c20646f65736e277420657869737400000000000000000000000000604482015260640161050a565b8161078f8173ffffffffffffffffffffffffffffffffffffffff165f908152600e602052604090205460ff1690565b6107f5576040517f08c379a000000000000000000000000000000000000000000000000000000000815260206004820152601460248201527f506c6179657220646f65736e2774206578697374000000000000000000000000604482015260640161050a565b73ffffffffffffffffffffffffffffffffffffffff8381165f908152600d602090815260408083208885168452909152902054166108b5576040517f08c379a000000000000000000000000000000000000000000000000000000000815260206004820152602560248201527f496e7374616e636520666f7220746865206c6576656c206973206e6f7420637260448201527f6561746564000000000000000000000000000000000000000000000000000000606482015260840161050a565b73ffffffffffffffffffffffffffffffffffffffff8381165f908152600d60209081526040808320888516845290915290205481169086161461097a576040517f08c379a000000000000000000000000000000000000000000000000000000000815260206004820152602960248201527f5375626d697474656420696e7374616e6365206973206e6f742074686520637260448201527f6561746564206f6e650000000000000000000000000000000000000000000000606482015260840161050a565b73ffffffffffffffffffffffffffffffffffffffff8381165f908152600d602090815260408083209388168352929052205474010000000000000000000000000000000000000000900460ff1615610a2e576040517f08c379a000000000000000000000000000000000000000000000000000000000815260206004820152601760248201527f4c6576656c20616c726561647920636f6d706c65746564000000000000000000604482015260640161050a565b73ffffffffffffffffffffffffffffffffffffffff8084165f908152600c602090815260408083209388168352929052908120549003610b355773ffffffffffffffffffffffffffffffffffffffff83165f908152600660205260408120805491610a988361284d565b909155505073ffffffffffffffffffffffffffffffffffffffff8084165f818152600c60209081526040808320948916835293815283822042905591815260069091529081205490610aeb85878461254f565b905081818673ffffffffffffffffffffffffffffffffffffffff167f18f89fb58208351d054bc0794e723a333ae0a74acd73825a9f31d89af0c6755160405160405180910390a450505b73ffffffffffffffffffffffffffffffffffffffff8084165f908152600d6020908152604080832093881680845293825280832060038101805460018181018355918652848620429101819055600283015594845280547fffffffffffffffffffffff00ffffffffffffffffffffffffffffffffffffffff1674010000000000000000000000000000000000000000179055600a9091528120909101805491610bdd8361284d565b909155505060048054905f610bf18361284d565b909155505073ffffffffffffffffffffffffffffffffffffffff83165f908152600860205260408120805491610c268361284d565b91905055505050505050565b73ffffffffffffffffffffffffffffffffffffffff81165f908152600e6020526040812054829060ff16610cc2576040517f08c379a000000000000000000000000000000000000000000000000000000000815260206004820152601460248201527f506c6179657220646f65736e2774206578697374000000000000000000000000604482015260640161050a565b505073ffffffffffffffffffffffffffffffffffffffff165f9081526006602052604090205490565b73ffffffffffffffffffffffffffffffffffffffff81165f908152600f6020526040812054829060ff16610d7b576040517f08c379a000000000000000000000000000000000000000000000000000000000815260206004820152601360248201527f4c6576656c20646f65736e277420657869737400000000000000000000000000604482015260640161050a565b505073ffffffffffffffffffffffffffffffffffffffff165f908152600a602052604090206001015490565b73ffffffffffffffffffffffffffffffffffffffff81165f908152600e6020526040812054829060ff16610e37576040517f08c379a000000000000000000000000000000000000000000000000000000000815260206004820152601460248201527f506c6179657220646f65736e2774206578697374000000000000000000000000604482015260640161050a565b505073ffffffffffffffffffffffffffffffffffffffff165f9081526008602052604090205490565b73ffffffffffffffffffffffffffffffffffffffff81165f908152600e6020526040812054829060ff16610ef0576040517f08c379a000000000000000000000000000000000000000000000000000000000815260206004820152601460248201527f506c6179657220646f65736e2774206578697374000000000000000000000000604482015260640161050a565b505073ffffffffffffffffffffffffffffffffffffffff165f9081526009602052604090205490565b5f5473ffffffffffffffffffffffffffffffffffffffff163314610fbf576040517f08c379a000000000000000000000000000000000000000000000000000000000815260206004820152602760248201527f4f6e6c7920506f7369746976654354462063616e2063616c6c2074686973206660448201527f756e6374696f6e00000000000000000000000000000000000000000000000000606482015260840161050a565b81610fee8173ffffffffffffffffffffffffffffffffffffffff165f908152600f602052604090205460ff1690565b611054576040517f08c379a000000000000000000000000000000000000000000000000000000000815260206004820152601360248201527f4c6576656c20646f65736e277420657869737400000000000000000000000000604482015260640161050a565b73ffffffffffffffffffffffffffffffffffffffff82165f908152600e602052604090205460ff16611123576001805480820182557fb10e2d527612073b26eecdfd717e6a320cf44b4afac2b0732d9fcbe2b7fa0cf60180547fffffffffffffffffffffffff00000000000000000000000000000000000000001673ffffffffffffffffffffffffffffffffffffffff85169081179091555f908152600e6020526040902080547fffffffffffffffffffffffffffffffffffffffffffffffffffffffffffffff001690911790555b73ffffffffffffffffffffffffffffffffffffffff8281165f908152600d602090815260408083208785168452909152902054166111905773ffffffffffffffffffffffffffffffffffffffff8083165f908152600b602090815260408083209387168352929052204290555b6040805160a08101825273ffffffffffffffffffffffffffffffffffffffff80871682525f60208084018290524284860152606084018290528683168252600d81528482209288168252919091529182206003015490916080830191900361120557604080515f815260208101909152611282565b73ffffffffffffffffffffffffffffffffffffffff8085165f908152600d602090815260408083209389168352928152908290206003018054835181840281018401909452808452909183018282801561127c57602002820191905f5260205f20905b815481526020019060010190808311611268575b50505050505b905273ffffffffffffffffffffffffffffffffffffffff8084165f908152600d6020908152604080832088851684528252918290208451815486840151151574010000000000000000000000000000000000000000027fffffffffffffffffffffff000000000000000000000000000000000000000000909116919095161793909317835590830151600183015560608301516002830155608083015180516113319260038501920190612668565b50505073ffffffffffffffffffffffffffffffffffffffff83165f908152600a602052604081208054916113648361284d565b909155505060038054905f6113788361284d565b909155505073ffffffffffffffffffffffffffffffffffffffff82165f9081526007602052604081208054916113ad8361284d565b919050555050505050565b73ffffffffffffffffffffffffffffffffffffffff81165f908152600e6020526040812054829060ff16611448576040517f08c379a000000000000000000000000000000000000000000000000000000000815260206004820152601460248201527f506c6179657220646f65736e2774206578697374000000000000000000000000604482015260640161050a565b505073ffffffffffffffffffffffffffffffffffffffff165f9081526007602052604090205490565b606060018054806020026020016040519081016040528092919081815260200182805480156114d457602002820191905f5260205f20905b815473ffffffffffffffffffffffffffffffffffffffff1681526001909101906020018083116114a9575b5050505050905090565b73ffffffffffffffffffffffffffffffffffffffff82165f908152600e6020526040812054839060ff1661156e576040517f08c379a000000000000000000000000000000000000000000000000000000000815260206004820152601460248201527f506c6179657220646f65736e2774206578697374000000000000000000000000604482015260640161050a565b8261159d8173ffffffffffffffffffffffffffffffffffffffff165f908152600f602052604090205460ff1690565b611603576040517f08c379a000000000000000000000000000000000000000000000000000000000815260206004820152601360248201527f4c6576656c20646f65736e277420657869737400000000000000000000000000604482015260640161050a565b73ffffffffffffffffffffffffffffffffffffffff8086165f908152600c60209081526040808320938816835292905290812054900361169f576040517f08c379a000000000000000000000000000000000000000000000000000000000815260206004820152601360248201527f4c6576656c206e6f7420636f6d706c6574656400000000000000000000000000604482015260640161050a565b73ffffffffffffffffffffffffffffffffffffffff8086165f818152600b6020908152604080832094891680845294825280832054938352600c8252808320948352939052919091205461061c9190612884565b73ffffffffffffffffffffffffffffffffffffffff81165f908152600f6020526040812054829060ff16611783576040517f08c379a000000000000000000000000000000000000000000000000000000000815260206004820152601360248201527f4c6576656c20646f65736e277420657869737400000000000000000000000000604482015260640161050a565b505073ffffffffffffffffffffffffffffffffffffffff165f908152600a602052604090205490565b600281815481106117bb575f80fd5b5f9182526020909120015473ffffffffffffffffffffffffffffffffffffffff16905081565b73ffffffffffffffffffffffffffffffffffffffff81165f908152600e6020526040812054829060ff16611871576040517f08c379a000000000000000000000000000000000000000000000000000000000815260206004820152601460248201527f506c6179657220646f65736e2774206578697374000000000000000000000000604482015260640161050a565b60025461187d84610c32565b61188f90670de0b6b3a764000061289d565b61189991906128b4565b9392505050565b7ff0c57e16840df040f15088dc2f81fe391c3923bec73e23a9662efc9c229c6a00805468010000000000000000810460ff16159067ffffffffffffffff165f811580156118ea5750825b90505f8267ffffffffffffffff1660011480156119065750303b155b905081158015611914575080155b1561194b576040517ff92ee8a900000000000000000000000000000000000000000000000000000000815260040160405180910390fd5b84547fffffffffffffffffffffffffffffffffffffffffffffffff000000000000000016600117855583156119ac5784547fffffffffffffffffffffffffffffffffffffffffffffff00ffffffffffffffff16680100000000000000001785555b5f80547fffffffffffffffffffffffff00000000000000000000000000000000000000001673ffffffffffffffffffffffffffffffffffffffff88161790558315611a4c5784547fffffffffffffffffffffffffffffffffffffffffffffff00ffffffffffffffff168555604051600181527fc7f505b2f371ae2175ee4913f4499e1f2633a7b5936321eed1cdaeb6115181d29060200160405180910390a15b505050505050565b80611a838173ffffffffffffffffffffffffffffffffffffffff165f908152600f602052604090205460ff1690565b15611aea576040517f08c379a000000000000000000000000000000000000000000000000000000000815260206004820152601460248201527f4c6576656c20616c726561647920657869737473000000000000000000000000604482015260640161050a565b5f5473ffffffffffffffffffffffffffffffffffffffff163314611b90576040517f08c379a000000000000000000000000000000000000000000000000000000000815260206004820152602760248201527f4f6e6c7920506f7369746976654354462063616e2063616c6c2074686973206660448201527f756e6374696f6e00000000000000000000000000000000000000000000000000606482015260840161050a565b5073ffffffffffffffffffffffffffffffffffffffff165f818152600f6020526040812080547fffffffffffffffffffffffffffffffffffffffffffffffffffffffffffffff001660019081179091556002805491820181559091527f405787fa12a823e0f2b7631cc41b3ba8828b3321ca811111fa75cd3aa3bb5ace0180547fffffffffffffffffffffffff0000000000000000000000000000000000000000169091179055565b5f5473ffffffffffffffffffffffffffffffffffffffff163314611cdf576040517f08c379a000000000000000000000000000000000000000000000000000000000815260206004820152602760248201527f4f6e6c7920506f7369746976654354462063616e2063616c6c2074686973206660448201527f756e6374696f6e00000000000000000000000000000000000000000000000000606482015260840161050a565b81611d0e8173ffffffffffffffffffffffffffffffffffffffff165f908152600f602052604090205460ff1690565b611d74576040517f08c379a000000000000000000000000000000000000000000000000000000000815260206004820152601360248201527f4c6576656c20646f65736e277420657869737400000000000000000000000000604482015260640161050a565b81611da38173ffffffffffffffffffffffffffffffffffffffff165f908152600e602052604090205460ff1690565b611e09576040517f08c379a000000000000000000000000000000000000000000000000000000000815260206004820152601460248201527f506c6179657220646f65736e2774206578697374000000000000000000000000604482015260640161050a565b73ffffffffffffffffffffffffffffffffffffffff8381165f908152600d60209081526040808320888516845290915290205416611ec9576040517f08c379a000000000000000000000000000000000000000000000000000000000815260206004820152602560248201527f496e7374616e636520666f7220746865206c6576656c206973206e6f7420637260448201527f6561746564000000000000000000000000000000000000000000000000000000606482015260840161050a565b73ffffffffffffffffffffffffffffffffffffffff8381165f908152600d602090815260408083208885168452909152902054811690861614611f8e576040517f08c379a000000000000000000000000000000000000000000000000000000000815260206004820152602960248201527f5375626d697474656420696e7374616e6365206973206e6f742074686520637260448201527f6561746564206f6e650000000000000000000000000000000000000000000000606482015260840161050a565b73ffffffffffffffffffffffffffffffffffffffff8381165f908152600d602090815260408083209388168352929052205474010000000000000000000000000000000000000000900460ff1615612042576040517f08c379a000000000000000000000000000000000000000000000000000000000815260206004820152601760248201527f4c6576656c20616c726561647920636f6d706c65746564000000000000000000604482015260640161050a565b73ffffffffffffffffffffffffffffffffffffffff8084165f908152600d60209081526040808320938816808452938252808320600301805460018101825590845282842042910155928252600a90529081206002018054916120a48361284d565b909155505060058054905f6120b88361284d565b909155505073ffffffffffffffffffffffffffffffffffffffff83165f908152600960205260408120805491610c268361284d565b73ffffffffffffffffffffffffffffffffffffffff83165f908152600e6020526040812054849060ff1661217d576040517f08c379a000000000000000000000000000000000000000000000000000000000815260206004820152601460248201527f506c6179657220646f65736e2774206578697374000000000000000000000000604482015260640161050a565b836121ac8173ffffffffffffffffffffffffffffffffffffffff165f908152600f602052604090205460ff1690565b612212576040517f08c379a000000000000000000000000000000000000000000000000000000000815260206004820152601360248201527f4c6576656c20646f65736e277420657869737400000000000000000000000000604482015260640161050a565b73ffffffffffffffffffffffffffffffffffffffff8087165f908152600d60209081526040808320938916835292905220600301548411156122b0576040517f08c379a000000000000000000000000000000000000000000000000000000000815260206004820152601060248201527f496e646578206f7574626f756e64656400000000000000000000000000000000604482015260640161050a565b73ffffffffffffffffffffffffffffffffffffffff8087165f908152600d602090815260408083209389168352929052206003018054859081106122f6576122f66128ec565b905f5260205f200154925050509392505050565b73ffffffffffffffffffffffffffffffffffffffff81165f908152600f6020526040812054829060ff1661239a576040517f08c379a000000000000000000000000000000000000000000000000000000000815260206004820152601360248201527f4c6576656c20646f65736e277420657869737400000000000000000000000000604482015260640161050a565b505073ffffffffffffffffffffffffffffffffffffffff165f908152600a602052604090206002015490565b73ffffffffffffffffffffffffffffffffffffffff82165f908152600e6020526040812054839060ff16612456576040517f08c379a000000000000000000000000000000000000000000000000000000000815260206004820152601460248201527f506c6179657220646f65736e2774206578697374000000000000000000000000604482015260640161050a565b826124858173ffffffffffffffffffffffffffffffffffffffff165f908152600f602052604090205460ff1690565b6124eb576040517f08c379a000000000000000000000000000000000000000000000000000000000815260206004820152601360248201527f4c6576656c20646f65736e277420657869737400000000000000000000000000604482015260640161050a565b50505073ffffffffffffffffffffffffffffffffffffffff9182165f908152600d6020908152604080832093909416825291909152205474010000000000000000000000000000000000000000900460ff1690565b600181815481106117bb575f80fd5b73ffffffffffffffffffffffffffffffffffffffff8084165f81815260106020908152604080832054600b835281842095881680855295835281842054948452600c835281842095845294909152812054909291839182916125b091612884565b73ffffffffffffffffffffffffffffffffffffffff88165f90815260106020526040812054919250036126095773ffffffffffffffffffffffffffffffffffffffff87165f90815260106020526040902081905561265e565b8481612616600183612884565b612620908661289d565b61262a9190612919565b61263491906128b4565b73ffffffffffffffffffffffffffffffffffffffff88165f90815260106020526040902081905591505b5095945050505050565b828054828255905f5260205f209081019282156126a1579160200282015b828111156126a1578251825591602001919060010190612686565b506126ad9291506126b1565b5090565b5b808211156126ad575f81556001016126b2565b803573ffffffffffffffffffffffffffffffffffffffff811681146126e8575f80fd5b919050565b5f80604083850312156126fe575f80fd5b612707836126c5565b9150612715602084016126c5565b90509250929050565b5f805f60608486031215612730575f80fd5b612739846126c5565b9250612747602085016126c5565b9150612755604085016126c5565b90509250925092565b5f6020828403121561276e575f80fd5b611899826126c5565b602080825282518282018190525f9190848201906040850190845b818110156127c457835173ffffffffffffffffffffffffffffffffffffffff1683529284019291840191600101612792565b50909695505050505050565b5f602082840312156127e0575f80fd5b5035919050565b5f805f606084860312156127f9575f80fd5b612802846126c5565b9250612810602085016126c5565b9150604084013590509250925092565b7f4e487b71000000000000000000000000000000000000000000000000000000005f52601160045260245ffd5b5f7fffffffffffffffffffffffffffffffffffffffffffffffffffffffffffffffff820361287d5761287d612820565b5060010190565b8181038181111561289757612897612820565b92915050565b808202811582820484141761289757612897612820565b5f826128e7577f4e487b71000000000000000000000000000000000000000000000000000000005f52601260045260245ffd5b500490565b7f4e487b71000000000000000000000000000000000000000000000000000000005f52603260045260245ffd5b808201808211156128975761289761282056fea26469706673582212202fca08b25155b6c6cf5bf924777c2ab0f32bf1d92b7d4b84db6fd0836705149664736f6c63430008190033","linkReferences":{}},"methodIdentifiers":{"createNewInstance(address,address,address)":"7e4326d3","doesLevelExist(address)":"f3a39909","doesPlayerExist(address)":"ba5d8082","getAverageTimeTakenToCompleteLevels(address)":"3aa46685","getNoOfCompletedSubmissionsForLevel(address)":"3d9aeaef","getNoOfFailedSubmissionsForLevel(address)":"e041ae9b","getNoOfInstancesForLevel(address)":"9cbf280d","getPercentageOfLevelsCompleted(address)":"bc3086a2","getPlayers()":"8b5b9ccc","getSubmissionsForLevelByPlayer(address,address,uint256)":"d844f6a4","getTimeElapsedForCompletionOfLevel(address,address)":"8dc03535","getTotalNoOfCTFLevels()":"babd5d26","getTotalNoOfFailedSubmissions()":"7ceb9533","getTotalNoOfFailedSubmissionsByPlayer(address)":"7a9b6dda","getTotalNoOfFailuresForLevelAndPlayer(address,address)":"22ae77ec","getTotalNoOfLevelInstancesCompleted()":"900f09ac","getTotalNoOfLevelInstancesCompletedByPlayer(address)":"763fdb45","getTotalNoOfLevelInstancesCreated()":"7cbe8d04","getTotalNoOfLevelInstancesCreatedByPlayer(address)":"8b146ad6","getTotalNoOfLevelsCompletedByPlayer(address)":"36204198","getTotalNoOfPlayers()":"fb66d7ab","initialize(address)":"c4d66de8","isLevelCompleted(address,address)":"e2d8716f","levels(uint256)":"b2596a67","players(uint256)":"f71d96cb","positiveCTF()":"855e2507","saveNewLevel(address)":"cd819a6f","submitFailure(address,address,address)":"d0f191e0","submitSuccess(address,address,address)":"2c038c32"},"id":54}