{"abi":[{"type":"constructor","inputs":[{"name":"_positiveGovernor","type":"address","internalType":"address"},{"name":"_positiveToken","type":"address","internalType":"address"}],"stateMutability":"nonpayable"},{"type":"function","name":"DEFAULT_ADMIN_ROLE","inputs":[],"outputs":[{"name":"","type":"bytes32","internalType":"bytes32"}],"stateMutability":"view"},{"type":"function","name":"addMember","inputs":[{"name":"addr","type":"address","internalType":"address"},{"name":"tier","type":"uint8","internalType":"enum UserManager.Tier"},{"name":"groups","type":"bytes32[]","internalType":"bytes32[]"}],"outputs":[],"stateMutability":"nonpayable"},{"type":"function","name":"createTask","inputs":[{"name":"task_name","type":"bytes32","internalType":"bytes32"},{"name":"task_type","type":"bytes32","internalType":"bytes32"},{"name":"task_deadline","type":"bytes32","internalType":"bytes32"},{"name":"task_price","type":"uint256","internalType":"uint256"},{"name":"task_category","type":"bytes32","internalType":"bytes32"},{"name":"customThreshold","type":"uint256","internalType":"uint256"}],"outputs":[],"stateMutability":"nonpayable"},{"type":"function","name":"createTaskSlim","inputs":[{"name":"task_name","type":"bytes32","internalType":"bytes32"},{"name":"task_price","type":"uint256","internalType":"uint256"}],"outputs":[],"stateMutability":"nonpayable"},{"type":"function","name":"deleteTask","inputs":[{"name":"taskId","type":"bytes32","internalType":"bytes32"}],"outputs":[],"stateMutability":"nonpayable"},{"type":"function","name":"fee","inputs":[],"outputs":[{"name":"","type":"uint256","internalType":"uint256"}],"stateMutability":"view"},{"type":"function","name":"feeForJoin","inputs":[],"outputs":[{"name":"","type":"uint256","internalType":"uint256"}],"stateMutability":"view"},{"type":"function","name":"finishTask","inputs":[{"name":"taskId","type":"bytes32","internalType":"bytes32"}],"outputs":[],"stateMutability":"nonpayable"},{"type":"function","name":"getMember","inputs":[{"name":"user","type":"address","internalType":"address"}],"outputs":[{"name":"","type":"tuple","internalType":"struct UserManager.Member","components":[{"name":"groups","type":"bytes32[]","internalType":"bytes32[]"},{"name":"tier","type":"uint8","internalType":"enum UserManager.Tier"}]}],"stateMutability":"view"},{"type":"function","name":"getRoleAdmin","inputs":[{"name":"role","type":"bytes32","internalType":"bytes32"}],"outputs":[{"name":"","type":"bytes32","internalType":"bytes32"}],"stateMutability":"view"},{"type":"function","name":"getTaskById","inputs":[{"name":"taskId","type":"bytes32","internalType":"bytes32"}],"outputs":[{"name":"task","type":"tuple","internalType":"struct ITaskManager.Task","components":[{"name":"task_name","type":"bytes32","internalType":"bytes32"},{"name":"task_type","type":"bytes32","internalType":"bytes32"},{"name":"task_deadline","type":"bytes32","internalType":"bytes32"},{"name":"task_price","type":"uint256","internalType":"uint256"},{"name":"task_category","type":"bytes32","internalType":"bytes32"},{"name":"customThreshold","type":"uint256","internalType":"uint256"},{"name":"finished","type":"bool","internalType":"bool"}]}],"stateMutability":"view"},{"type":"function","name":"getTaskSlimById","inputs":[{"name":"taskId","type":"bytes32","internalType":"bytes32"}],"outputs":[{"name":"","type":"bytes32","internalType":"bytes32"}],"stateMutability":"view"},{"type":"function","name":"grantRole","inputs":[{"name":"role","type":"bytes32","internalType":"bytes32"},{"name":"account","type":"address","internalType":"address"}],"outputs":[],"stateMutability":"nonpayable"},{"type":"function","name":"hasRole","inputs":[{"name":"role","type":"bytes32","internalType":"bytes32"},{"name":"account","type":"address","internalType":"address"}],"outputs":[{"name":"","type":"bool","internalType":"bool"}],"stateMutability":"view"},{"type":"function","name":"isPause","inputs":[],"outputs":[{"name":"","type":"bool","internalType":"bool"}],"stateMutability":"view"},{"type":"function","name":"joinToDAO","inputs":[{"name":"groups","type":"bytes32[]","internalType":"bytes32[]"}],"outputs":[],"stateMutability":"payable"},{"type":"function","name":"joinToTask","inputs":[{"name":"taskId","type":"bytes32","internalType":"bytes32"}],"outputs":[],"stateMutability":"nonpayable"},{"type":"function","name":"members","inputs":[{"name":"","type":"address","internalType":"address"}],"outputs":[{"name":"tier","type":"uint8","internalType":"enum UserManager.Tier"}],"stateMutability":"view"},{"type":"function","name":"owner","inputs":[],"outputs":[{"name":"","type":"address","internalType":"address"}],"stateMutability":"view"},{"type":"function","name":"positiveGovernor","inputs":[],"outputs":[{"name":"","type":"address","internalType":"address"}],"stateMutability":"view"},{"type":"function","name":"positiveToken","inputs":[],"outputs":[{"name":"","type":"address","internalType":"contract IERC20"}],"stateMutability":"view"},{"type":"function","name":"removeMember","inputs":[{"name":"user","type":"address","internalType":"address"}],"outputs":[],"stateMutability":"nonpayable"},{"type":"function","name":"renounceOwnership","inputs":[],"outputs":[],"stateMutability":"nonpayable"},{"type":"function","name":"renounceRole","inputs":[{"name":"role","type":"bytes32","internalType":"bytes32"},{"name":"callerConfirmation","type":"address","internalType":"address"}],"outputs":[],"stateMutability":"nonpayable"},{"type":"function","name":"revokeRole","inputs":[{"name":"role","type":"bytes32","internalType":"bytes32"},{"name":"account","type":"address","internalType":"address"}],"outputs":[],"stateMutability":"nonpayable"},{"type":"function","name":"setFee","inputs":[{"name":"_fee","type":"uint256","internalType":"uint256"}],"outputs":[],"stateMutability":"nonpayable"},{"type":"function","name":"setPositiveGovernor","inputs":[{"name":"_positiveGovernor","type":"address","internalType":"address"}],"outputs":[],"stateMutability":"nonpayable"},{"type":"function","name":"setRoleAdmin","inputs":[{"name":"role","type":"bytes32","internalType":"bytes32"},{"name":"adminRole","type":"bytes32","internalType":"bytes32"}],"outputs":[],"stateMutability":"nonpayable"},{"type":"function","name":"supportsInterface","inputs":[{"name":"interfaceId","type":"bytes4","internalType":"bytes4"}],"outputs":[{"name":"","type":"bool","internalType":"bool"}],"stateMutability":"view"},{"type":"function","name":"taskSolvers","inputs":[{"name":"","type":"bytes32","internalType":"bytes32"},{"name":"","type":"uint256","internalType":"uint256"}],"outputs":[{"name":"","type":"address","internalType":"address"}],"stateMutability":"view"},{"type":"function","name":"taskStatus","inputs":[{"name":"","type":"bytes32","internalType":"bytes32"}],"outputs":[{"name":"taskId","type":"bytes32","internalType":"bytes32"}],"stateMutability":"view"},{"type":"function","name":"tasks","inputs":[{"name":"","type":"bytes32","internalType":"bytes32"}],"outputs":[{"name":"task_name","type":"bytes32","internalType":"bytes32"},{"name":"task_type","type":"bytes32","internalType":"bytes32"},{"name":"task_deadline","type":"bytes32","internalType":"bytes32"},{"name":"task_price","type":"uint256","internalType":"uint256"},{"name":"task_category","type":"bytes32","internalType":"bytes32"},{"name":"customThreshold","type":"uint256","internalType":"uint256"},{"name":"finished","type":"bool","internalType":"bool"}],"stateMutability":"view"},{"type":"function","name":"tasksSlim","inputs":[{"name":"","type":"bytes32","internalType":"bytes32"}],"outputs":[{"name":"","type":"bytes32","internalType":"bytes32"}],"stateMutability":"view"},{"type":"function","name":"threasury","inputs":[],"outputs":[{"name":"","type":"uint256","internalType":"uint256"}],"stateMutability":"view"},{"type":"function","name":"transferOwnership","inputs":[{"name":"newOwner","type":"address","internalType":"address"}],"outputs":[],"stateMutability":"nonpayable"},{"type":"function","name":"vote","inputs":[{"name":"taskId","type":"bytes32","internalType":"bytes32"}],"outputs":[],"stateMutability":"nonpayable"},{"type":"function","name":"withdraw","inputs":[],"outputs":[],"stateMutability":"nonpayable"},{"type":"event","name":"FeeChanged","inputs":[{"name":"feeAmount","type":"uint256","indexed":false,"internalType":"uint256"}],"anonymous":false},{"type":"event","name":"FeeForJoinChanged","inputs":[{"name":"feeAmount","type":"uint256","indexed":false,"internalType":"uint256"}],"anonymous":false},{"type":"event","name":"MemberAdded","inputs":[{"name":"who","type":"address","indexed":true,"internalType":"address"},{"name":"tier","type":"uint8","indexed":false,"internalType":"enum UserManager.Tier"},{"name":"groups","type":"bytes32[]","indexed":false,"internalType":"bytes32[]"}],"anonymous":false},{"type":"event","name":"NewMemberAdded","inputs":[{"name":"member","type":"address","indexed":true,"internalType":"address"}],"anonymous":false},{"type":"event","name":"OwnershipTransferred","inputs":[{"name":"previousOwner","type":"address","indexed":true,"internalType":"address"},{"name":"newOwner","type":"address","indexed":true,"internalType":"address"}],"anonymous":false},{"type":"event","name":"RoleAdminChanged","inputs":[{"name":"role","type":"bytes32","indexed":true,"internalType":"bytes32"},{"name":"previousAdminRole","type":"bytes32","indexed":true,"internalType":"bytes32"},{"name":"newAdminRole","type":"bytes32","indexed":true,"internalType":"bytes32"}],"anonymous":false},{"type":"event","name":"RoleGranted","inputs":[{"name":"role","type":"bytes32","indexed":true,"internalType":"bytes32"},{"name":"account","type":"address","indexed":true,"internalType":"address"},{"name":"sender","type":"address","indexed":true,"internalType":"address"}],"anonymous":false},{"type":"event","name":"RoleRevoked","inputs":[{"name":"role","type":"bytes32","indexed":true,"internalType":"bytes32"},{"name":"account","type":"address","indexed":true,"internalType":"address"},{"name":"sender","type":"address","indexed":true,"internalType":"address"}],"anonymous":false},{"type":"event","name":"TaskCreated","inputs":[{"name":"taskId","type":"bytes32","indexed":true,"internalType":"bytes32"},{"name":"creator","type":"address","indexed":true,"internalType":"address"},{"name":"description","type":"tuple","indexed":false,"internalType":"struct ITaskManager.Task","components":[{"name":"task_name","type":"bytes32","internalType":"bytes32"},{"name":"task_type","type":"bytes32","internalType":"bytes32"},{"name":"task_deadline","type":"bytes32","internalType":"bytes32"},{"name":"task_price","type":"uint256","internalType":"uint256"},{"name":"task_category","type":"bytes32","internalType":"bytes32"},{"name":"customThreshold","type":"uint256","internalType":"uint256"},{"name":"finished","type":"bool","internalType":"bool"}]}],"anonymous":false},{"type":"event","name":"TaskCreatedSlim","inputs":[{"name":"taskId","type":"bytes32","indexed":true,"internalType":"bytes32"},{"name":"creator","type":"address","indexed":true,"internalType":"address"},{"name":"task_name","type":"bytes32","indexed":false,"internalType":"bytes32"}],"anonymous":false},{"type":"event","name":"TaskFinished","inputs":[{"name":"taskId","type":"bytes32","indexed":false,"internalType":"bytes32"}],"anonymous":false},{"type":"event","name":"TaskStatusChanged","inputs":[{"name":"result","type":"bool","indexed":false,"internalType":"bool"}],"anonymous":false},{"type":"event","name":"ThreasuryWithdraw","inputs":[{"name":"amount","type":"uint256","indexed":false,"internalType":"uint256"}],"anonymous":false},{"type":"error","name":"AccessControlBadConfirmation","inputs":[]},{"type":"error","name":"AccessControlUnauthorizedAccount","inputs":[{"name":"account","type":"address","internalType":"address"},{"name":"neededRole","type":"bytes32","internalType":"bytes32"}]},{"type":"error","name":"OwnableInvalidOwner","inputs":[{"name":"owner","type":"address","internalType":"address"}]},{"type":"error","name":"OwnableUnauthorizedAccount","inputs":[{"name":"account","type":"address","internalType":"address"}]},{"type":"error","name":"TransferFailed","inputs":[{"name":"from","type":"address","internalType":"address"},{"name":"to","type":"address","internalType":"address"},{"name":"amount","type":"uint256","internalType":"uint256"}]}],"bytecode":{"object":"0x60806040525f60085534801562000014575f80fd5b506040516200272138038062002721833981016040819052620000379162000108565b33806200005d57604051631e4fbdf760e01b81525f600482015260240160405180910390fd5b62000068816200009b565b50600280546001600160a01b039384166001600160a01b031991821617909155600380549290931691161790556200013e565b600180546001600160a01b038381166001600160a01b0319831681179093556040519116919082907f8be0079c531659141344cd1fd0a4f28419497f9722a3daafe3b4186f6b6457e0905f90a35050565b80516001600160a01b038116811462000103575f80fd5b919050565b5f80604083850312156200011a575f80fd5b6200012583620000ec565b91506200013560208401620000ec565b90509250929050565b6125d5806200014c5f395ff3fe60806040526004361061025d575f3560e01c8063715018a61161014b578063a3f5ed93116100c6578063ddca3f431161007c578063e64f15a211610062578063e64f15a2146108d5578063f2fde38b146108f4578063ff0938a714610913575f80fd5b8063ddca3f4314610830578063e579f50014610845575f80fd5b8063b16bc4a9116100ac578063b16bc4a9146106d6578063d547741f14610701578063d8f6dcf214610720575f80fd5b8063a3f5ed9314610656578063a69beaba146106b7575f80fd5b806391d148541161011b5780639650b8df116101015780639650b8df146105f85780639aa4af2614610624578063a217fddf14610643575f80fd5b806391d148541461059457806392e2b47d146105e3575f80fd5b8063715018a61461050c578063781d102a146105205780637f2e64b01461053f5780638da5cb5b1461056a575f80fd5b80632f2ff15d116101db5780633ccfd60b116101ab5780636333c6e9116101915780636333c6e9146104bb57806369fe0e2d146104ce578063712f7939146104ed575f80fd5b80633ccfd60b1461049257806362c670fe146104a6575f80fd5b80632f2ff15d146104165780633400db5b1461043557806336568abe146104545780633b26e1bf14610473575f80fd5b80631da8e54f116102305780631e4e0091116102165780631e4e00911461039d578063248a9ca3146103bc5780632ada2596146103ea575f80fd5b80631da8e54f146103385780631dc9c4c214610371575f80fd5b806301ffc9a71461026157806308ae4b0c146102955780630b1ca49a146102d35780630fde5f3b146102f4575b5f80fd5b34801561026c575f80fd5b5061028061027b366004612113565b61092c565b60405190151581526020015b60405180910390f35b3480156102a0575f80fd5b506102c66102af366004612181565b60076020525f908152604090206001015460ff1681565b60405161028c9190612200565b3480156102de575f80fd5b506102f26102ed366004612181565b6109c4565b005b3480156102ff575f80fd5b5061031361030e36600461220e565b610b25565b60405173ffffffffffffffffffffffffffffffffffffffff909116815260200161028c565b348015610343575f80fd5b5061036361035236600461222e565b600c6020525f908152604090205481565b60405190815260200161028c565b34801561037c575f80fd5b506002546103139073ffffffffffffffffffffffffffffffffffffffff1681565b3480156103a8575f80fd5b506102f26103b736600461220e565b610b66565b3480156103c7575f80fd5b506103636103d636600461222e565b5f9081526020819052604090206001015490565b3480156103f5575f80fd5b50610409610404366004612181565b610b74565b60405161028c9190612245565b348015610421575f80fd5b506102f26104303660046122a6565b610c36565b348015610440575f80fd5b506102f261044f366004612181565b610c60565b34801561045f575f80fd5b506102f261046e3660046122a6565b610caf565b34801561047e575f80fd5b506102f261048d3660046122d0565b610d0d565b34801561049d575f80fd5b506102f2610fc9565b3480156104b1575f80fd5b5061036360055481565b6102f26104c93660046123f5565b611104565b3480156104d9575f80fd5b506102f26104e836600461222e565b61124c565b3480156104f8575f80fd5b506102f261050736600461220e565b611387565b348015610517575f80fd5b506102f2611527565b34801561052b575f80fd5b506102f261053a36600461222e565b61153a565b34801561054a575f80fd5b5061036361055936600461222e565b600a6020525f908152604090205481565b348015610575575f80fd5b5060015473ffffffffffffffffffffffffffffffffffffffff16610313565b34801561059f575f80fd5b506102806105ae3660046122a6565b5f9182526020828152604080842073ffffffffffffffffffffffffffffffffffffffff93909316845291905290205460ff1690565b3480156105ee575f80fd5b5061036360065481565b348015610603575f80fd5b506003546103139073ffffffffffffffffffffffffffffffffffffffff1681565b34801561062f575f80fd5b506102f261063e36600461242f565b6118d6565b34801561064e575f80fd5b506103635f81565b348015610661575f80fd5b506102f261067036600461222e565b5f908152600b602090815260408220805460018101825590835291200180547fffffffffffffffffffffffff00000000000000000000000000000000000000001633179055565b3480156106c2575f80fd5b506102f26106d136600461222e565b611a47565b3480156106e1575f80fd5b506103636106f036600461222e565b5f908152600a602052604090205490565b34801561070c575f80fd5b506102f261071b3660046122a6565b611b61565b34801561072b575f80fd5b506107d961073a36600461222e565b6040805160e0810182525f80825260208201819052918101829052606081018290526080810182905260a0810182905260c0810191909152505f90815260096020908152604091829020825160e081018452815481526001820154928101929092526002810154928201929092526003820154606082015260048201546080820152600582015460a082015260069091015460ff16151560c082015290565b60405161028c91905f60e082019050825182526020830151602083015260408301516040830152606083015160608301526080830151608083015260a083015160a083015260c0830151151560c083015292915050565b34801561083b575f80fd5b5061036360045481565b348015610850575f80fd5b5061089e61085f36600461222e565b60096020525f90815260409020805460018201546002830154600384015460048501546005860154600690960154949593949293919290919060ff1687565b604080519788526020880196909652948601939093526060850191909152608084015260a0830152151560c082015260e00161028c565b3480156108e0575f80fd5b506102f26108ef36600461222e565b611b85565b3480156108ff575f80fd5b506102f261090e366004612181565b611ce4565b34801561091e575f80fd5b50600d546102809060ff1681565b5f7fffffffff0000000000000000000000000000000000000000000000000000000082167f7965db0b0000000000000000000000000000000000000000000000000000000014806109be57507f01ffc9a7000000000000000000000000000000000000000000000000000000007fffffffff000000000000000000000000000000000000000000000000000000008316145b92915050565b60025473ffffffffffffffffffffffffffffffffffffffff16610a48576040517f08c379a000000000000000000000000000000000000000000000000000000000815260206004820152601460248201527f44414f416464726573733a206f6e6c792044414f00000000000000000000000060448201526064015b60405180910390fd5b60025473ffffffffffffffffffffffffffffffffffffffff163314610ac9576040517f08c379a000000000000000000000000000000000000000000000000000000000815260206004820152600760248201527f6e6f742064616f000000000000000000000000000000000000000000000000006044820152606401610a3f565b73ffffffffffffffffffffffffffffffffffffffff81165f90815260076020526040812090610af8828261209b565b5060010180547fffffffffffffffffffffffffffffffffffffffffffffffffffffffffffffff0016905550565b600b602052815f5260405f208181548110610b3e575f80fd5b5f9182526020909120015473ffffffffffffffffffffffffffffffffffffffff169150829050565b610b708282611d47565b5050565b60408051808201825260608082525f602080840182905273ffffffffffffffffffffffffffffffffffffffff86168252600781529084902084518154928302810184018652948501828152939493909284928491840182828015610bf557602002820191905f5260205f20905b815481526020019060010190808311610be1575b5050509183525050600182015460209091019060ff166002811115610c1c57610c1c61219a565b6002811115610c2d57610c2d61219a565b90525092915050565b5f82815260208190526040902060010154610c5081611d91565b610c5a8383611d9b565b50505050565b610c68611e94565b600280547fffffffffffffffffffffffff00000000000000000000000000000000000000001673ffffffffffffffffffffffffffffffffffffffff92909216919091179055565b73ffffffffffffffffffffffffffffffffffffffff81163314610cfe576040517f6697b23200000000000000000000000000000000000000000000000000000000815260040160405180910390fd5b610d088282611ee7565b505050565b6003546040517f23b872dd000000000000000000000000000000000000000000000000000000008152336004820152306024820152604481018590525f9173ffffffffffffffffffffffffffffffffffffffff16906323b872dd906064016020604051808303815f875af1158015610d87573d5f803e3d5ffd5b505050506040513d601f19601f82011682018060405250810190610dab919061248e565b905080610df3576040517fbf182be800000000000000000000000000000000000000000000000000000000815233600482015230602482015260448101859052606401610a3f565b6040805160e081018252888152602080820189905281830188905260608083018890526080830187905260a083018690525f60c0840181905293513390911b7fffffffffffffffffffffffffffffffffffffffff0000000000000000000000001691810191909152603481018a905260548101899052607481018890526094810187905260b4810186905260d4810185905290919060f401604080517fffffffffffffffffffffffffffffffffffffffffffffffffffffffffffffffe081840301815282825280516020918201205f8181526009835283902086518155918601516001830155918501516002820155606085015160038201556080850151600482015560a0850151600582015560c0850151600690910180549115157fffffffffffffffffffffffffffffffffffffffffffffffffffffffffffffff009092169190911790559150339082907f82f74bc85f2d3515b8bb16c71085e864e240954cf9238565e3af64c3caa4a1e190610fb69086905f60e082019050825182526020830151602083015260408301516040830152606083015160608301526080830151608083015260a083015160a083015260c0830151151560c083015292915050565b60405180910390a3505050505050505050565b60025473ffffffffffffffffffffffffffffffffffffffff16611048576040517f08c379a000000000000000000000000000000000000000000000000000000000815260206004820152601460248201527f44414f416464726573733a206f6e6c792044414f0000000000000000000000006044820152606401610a3f565b60025473ffffffffffffffffffffffffffffffffffffffff1633146110c9576040517f08c379a000000000000000000000000000000000000000000000000000000000815260206004820152600760248201527f6e6f742064616f000000000000000000000000000000000000000000000000006044820152606401610a3f565b5f60068190556040519081527fe3a7880ec93313f718537736059a4691d9a7e93a413faf331207fba6e42629a79060200160405180910390a1565b600554341461116f576040517f08c379a000000000000000000000000000000000000000000000000000000000815260206004820152601760248201527f536f7272792c206e6f7420656e6f756768206d6f6e65790000000000000000006044820152606401610a3f565b3460065f82825461118091906124ad565b9091555050604080518082019091528181526020810160029052335f9081526007602090815260409091208251805191926111c0928492909101906120b6565b5060208201516001808301805490917fffffffffffffffffffffffffffffffffffffffffffffffffffffffffffffff00909116908360028111156112065761120661219a565b0217905550506040513391507f5b539491994751d91ee8cdc3d443173810c2df62fe844f7bb2d554823414d4f490611241905f9085906124e5565b60405180910390a250565b60025473ffffffffffffffffffffffffffffffffffffffff166112cb576040517f08c379a000000000000000000000000000000000000000000000000000000000815260206004820152601460248201527f44414f416464726573733a206f6e6c792044414f0000000000000000000000006044820152606401610a3f565b60025473ffffffffffffffffffffffffffffffffffffffff16331461134c576040517f08c379a000000000000000000000000000000000000000000000000000000000815260206004820152600760248201527f6e6f742064616f000000000000000000000000000000000000000000000000006044820152606401610a3f565b60048190556040518181527f6bbc57480a46553fa4d156ce702beef5f3ad66303b0ed1a5d4cb44966c6584c39060200160405180910390a150565b6003546040517f23b872dd000000000000000000000000000000000000000000000000000000008152336004820152306024820152604481018390525f9173ffffffffffffffffffffffffffffffffffffffff16906323b872dd906064016020604051808303815f875af1158015611401573d5f803e3d5ffd5b505050506040513d601f19601f82011682018060405250810190611425919061248e565b90508061146d576040517fbf182be800000000000000000000000000000000000000000000000000000000815233600482015230602482015260448101839052606401610a3f565b6040517fffffffffffffffffffffffffffffffffffffffff0000000000000000000000003360601b166020820152603481018490525f90605401604080518083037fffffffffffffffffffffffffffffffffffffffffffffffffffffffffffffffe001815282825280516020918201205f818152600a835292909220879055868352909250339183917fb60d20caa4b61c1a36c6970b57173d2b29a511bcac6c493f881633f286a32ff2910160405180910390a350505050565b61152f611e94565b6115385f611fa0565b565b60025473ffffffffffffffffffffffffffffffffffffffff166115b9576040517f08c379a000000000000000000000000000000000000000000000000000000000815260206004820152601460248201527f44414f416464726573733a206f6e6c792044414f0000000000000000000000006044820152606401610a3f565b60025473ffffffffffffffffffffffffffffffffffffffff16331461163a576040517f08c379a000000000000000000000000000000000000000000000000000000000815260206004820152600760248201527f6e6f742064616f000000000000000000000000000000000000000000000000006044820152606401610a3f565b5f81815260096020908152604080832060050154600c9092529091206001015410156116c2576040517f08c379a000000000000000000000000000000000000000000000000000000000815260206004820152600560248201527f736f7272790000000000000000000000000000000000000000000000000000006044820152606401610a3f565b5f8181526009602052604090206006015460ff161561173d576040517f08c379a000000000000000000000000000000000000000000000000000000000815260206004820152601560248201527f5461736b20616c72656164792066696e697368656400000000000000000000006044820152606401610a3f565b5f8181526009602081815260408084206006810180547fffffffffffffffffffffffffffffffffffffffffffffffffffffffffffffff00166001179055600b8352908420549290915260030154611794919061253a565b90505f5b5f838152600b602052604090205481101561189e576003545f848152600b60205260409020805473ffffffffffffffffffffffffffffffffffffffff909216916323b872dd913091859081106117f0576117f0612572565b5f9182526020909120015460405160e084901b7fffffffff0000000000000000000000000000000000000000000000000000000016815273ffffffffffffffffffffffffffffffffffffffff928316600482015291166024820152604481018590526064016020604051808303815f875af1158015611871573d5f803e3d5ffd5b505050506040513d601f19601f82011682018060405250810190611895919061248e565b50600101611798565b506040518281527fbdb2c531f99168a6172097af6007b68a48354a4f86485f702c184de3ad9670039060200160405180910390a15050565b335f9081526007602052604081206001015460ff1660028111156118fc576118fc61219a565b0361193c576040517f08c379a0000000000000000000000000000000000000000000000000000000008152602060048201525f6024820152604401610a3f565b5f60405180604001604052808381526020018460028111156119605761196061219a565b905273ffffffffffffffffffffffffffffffffffffffff85165f90815260076020908152604090912082518051939450849391926119a3928492909101906120b6565b5060208201516001808301805490917fffffffffffffffffffffffffffffffffffffffffffffffffffffffffffffff00909116908360028111156119e9576119e961219a565b02179055509050508373ffffffffffffffffffffffffffffffffffffffff167f5b539491994751d91ee8cdc3d443173810c2df62fe844f7bb2d554823414d4f48484604051611a399291906124e5565b60405180910390a250505050565b5f5b5f828152600c6020526040902060010154811015611b16575f828152600c60205260409020600101805433919083908110611a8657611a86612572565b5f9182526020909120015473ffffffffffffffffffffffffffffffffffffffff1603611b0e576040517f08c379a000000000000000000000000000000000000000000000000000000000815260206004820152600d60248201527f416c726561647920566f746564000000000000000000000000000000000000006044820152606401610a3f565b600101611a49565b505f908152600c602090815260408220600190810180549182018155835291200180547fffffffffffffffffffffffff00000000000000000000000000000000000000001633179055565b5f82815260208190526040902060010154611b7b81611d91565b610c5a8383611ee7565b60025473ffffffffffffffffffffffffffffffffffffffff16611c04576040517f08c379a000000000000000000000000000000000000000000000000000000000815260206004820152601460248201527f44414f416464726573733a206f6e6c792044414f0000000000000000000000006044820152606401610a3f565b60025473ffffffffffffffffffffffffffffffffffffffff163314611c85576040517f08c379a000000000000000000000000000000000000000000000000000000000815260206004820152600760248201527f6e6f742064616f000000000000000000000000000000000000000000000000006044820152606401610a3f565b5f90815260096020526040812081815560018101829055600281018290556003810182905560048101829055600581019190915560060180547fffffffffffffffffffffffffffffffffffffffffffffffffffffffffffffff00169055565b611cec611e94565b73ffffffffffffffffffffffffffffffffffffffff8116611d3b576040517f1e4fbdf70000000000000000000000000000000000000000000000000000000081525f6004820152602401610a3f565b611d4481611fa0565b50565b5f82815260208190526040808220600101805490849055905190918391839186917fbd79b86ffe0ab8e8776151514217cd7cacd52c909f66475c3af44e129f0b00ff9190a4505050565b611d448133612016565b5f8281526020818152604080832073ffffffffffffffffffffffffffffffffffffffff8516845290915281205460ff16611e8d575f8381526020818152604080832073ffffffffffffffffffffffffffffffffffffffff86168452909152902080547fffffffffffffffffffffffffffffffffffffffffffffffffffffffffffffff00166001179055611e2b3390565b73ffffffffffffffffffffffffffffffffffffffff168273ffffffffffffffffffffffffffffffffffffffff16847f2f8788117e7eff1d82e926ec794901d17c78024a50270940304540a733656f0d60405160405180910390a45060016109be565b505f6109be565b60015473ffffffffffffffffffffffffffffffffffffffff163314611538576040517f118cdaa7000000000000000000000000000000000000000000000000000000008152336004820152602401610a3f565b5f8281526020818152604080832073ffffffffffffffffffffffffffffffffffffffff8516845290915281205460ff1615611e8d575f8381526020818152604080832073ffffffffffffffffffffffffffffffffffffffff8616808552925280832080547fffffffffffffffffffffffffffffffffffffffffffffffffffffffffffffff0016905551339286917ff6391f5c32d9c69d2a47ea670b442974b53935d1edc7fd64eb21e047a839171b9190a45060016109be565b6001805473ffffffffffffffffffffffffffffffffffffffff8381167fffffffffffffffffffffffff0000000000000000000000000000000000000000831681179093556040519116919082907f8be0079c531659141344cd1fd0a4f28419497f9722a3daafe3b4186f6b6457e0905f90a35050565b5f8281526020818152604080832073ffffffffffffffffffffffffffffffffffffffff8516845290915290205460ff16610b70576040517fe2517d3f00000000000000000000000000000000000000000000000000000000815273ffffffffffffffffffffffffffffffffffffffff8216600482015260248101839052604401610a3f565b5080545f8255905f5260205f2090810190611d4491906120ff565b828054828255905f5260205f209081019282156120ef579160200282015b828111156120ef5782518255916020019190600101906120d4565b506120fb9291506120ff565b5090565b5b808211156120fb575f8155600101612100565b5f60208284031215612123575f80fd5b81357fffffffff0000000000000000000000000000000000000000000000000000000081168114612152575f80fd5b9392505050565b803573ffffffffffffffffffffffffffffffffffffffff8116811461217c575f80fd5b919050565b5f60208284031215612191575f80fd5b61215282612159565b7f4e487b71000000000000000000000000000000000000000000000000000000005f52602160045260245ffd5b600381106121fc577f4e487b71000000000000000000000000000000000000000000000000000000005f52602160045260245ffd5b9052565b602081016109be82846121c7565b5f806040838503121561221f575f80fd5b50508035926020909101359150565b5f6020828403121561223e575f80fd5b5035919050565b602080825282516040838301528051606084018190525f9291820190839060808601905b808310156122895783518252928401926001929092019190840190612269565b50928601519261229c60408701856121c7565b9695505050505050565b5f80604083850312156122b7575f80fd5b823591506122c760208401612159565b90509250929050565b5f805f805f8060c087890312156122e5575f80fd5b505084359660208601359650604086013595606081013595506080810135945060a0013592509050565b7f4e487b71000000000000000000000000000000000000000000000000000000005f52604160045260245ffd5b5f82601f83011261234b575f80fd5b8135602067ffffffffffffffff808311156123685761236861230f565b8260051b6040517fffffffffffffffffffffffffffffffffffffffffffffffffffffffffffffffe0603f830116810181811084821117156123ab576123ab61230f565b60405293845260208187018101949081019250878511156123ca575f80fd5b6020870191505b848210156123ea578135835291830191908301906123d1565b979650505050505050565b5f60208284031215612405575f80fd5b813567ffffffffffffffff81111561241b575f80fd5b6124278482850161233c565b949350505050565b5f805f60608486031215612441575f80fd5b61244a84612159565b925060208401356003811061245d575f80fd5b9150604084013567ffffffffffffffff811115612478575f80fd5b6124848682870161233c565b9150509250925092565b5f6020828403121561249e575f80fd5b81518015158114612152575f80fd5b808201808211156109be577f4e487b71000000000000000000000000000000000000000000000000000000005f52601160045260245ffd5b5f604082016124f483866121c7565b6020604060208501528185518084526060860191506020870193505f5b8181101561252d57845183529383019391830191600101612511565b5090979650505050505050565b5f8261256d577f4e487b71000000000000000000000000000000000000000000000000000000005f52601260045260245ffd5b500490565b7f4e487b71000000000000000000000000000000000000000000000000000000005f52603260045260245ffdfea264697066735822122079afcbb7ce8ffc665b29d347240732bf3303d35f7ed0ae639aa5cd6f73a3840364736f6c63430008180033","linkReferences":{}},"methodIdentifiers":{"DEFAULT_ADMIN_ROLE()":"a217fddf","addMember(address,uint8,bytes32[])":"9aa4af26","createTask(bytes32,bytes32,bytes32,uint256,bytes32,uint256)":"3b26e1bf","createTaskSlim(bytes32,uint256)":"712f7939","deleteTask(bytes32)":"e64f15a2","fee()":"ddca3f43","feeForJoin()":"62c670fe","finishTask(bytes32)":"781d102a","getMember(address)":"2ada2596","getRoleAdmin(bytes32)":"248a9ca3","getTaskById(bytes32)":"d8f6dcf2","getTaskSlimById(bytes32)":"b16bc4a9","grantRole(bytes32,address)":"2f2ff15d","hasRole(bytes32,address)":"91d14854","isPause()":"ff0938a7","joinToDAO(bytes32[])":"6333c6e9","joinToTask(bytes32)":"a3f5ed93","members(address)":"08ae4b0c","owner()":"8da5cb5b","positiveGovernor()":"1dc9c4c2","positiveToken()":"9650b8df","removeMember(address)":"0b1ca49a","renounceOwnership()":"715018a6","renounceRole(bytes32,address)":"36568abe","revokeRole(bytes32,address)":"d547741f","setFee(uint256)":"69fe0e2d","setPositiveGovernor(address)":"3400db5b","setRoleAdmin(bytes32,bytes32)":"1e4e0091","supportsInterface(bytes4)":"01ffc9a7","taskSolvers(bytes32,uint256)":"0fde5f3b","taskStatus(bytes32)":"1da8e54f","tasks(bytes32)":"e579f500","tasksSlim(bytes32)":"7f2e64b0","threasury()":"92e2b47d","transferOwnership(address)":"f2fde38b","vote(bytes32)":"a69beaba","withdraw()":"3ccfd60b"},"id":74}