{"abi":[{"type":"constructor","inputs":[{"name":"_token","type":"address","internalType":"contract IVotes"},{"name":"_timelock","type":"address","internalType":"contract TimelockController"}],"stateMutability":"nonpayable"},{"type":"receive","stateMutability":"payable"},{"type":"function","name":"BALLOT_TYPEHASH","inputs":[],"outputs":[{"name":"","type":"bytes32","internalType":"bytes32"}],"stateMutability":"view"},{"type":"function","name":"CLOCK_MODE","inputs":[],"outputs":[{"name":"","type":"string","internalType":"string"}],"stateMutability":"view"},{"type":"function","name":"COUNTING_MODE","inputs":[],"outputs":[{"name":"","type":"string","internalType":"string"}],"stateMutability":"pure"},{"type":"function","name":"EXTENDED_BALLOT_TYPEHASH","inputs":[],"outputs":[{"name":"","type":"bytes32","internalType":"bytes32"}],"stateMutability":"view"},{"type":"function","name":"cancel","inputs":[{"name":"targets","type":"address[]","internalType":"address[]"},{"name":"values","type":"uint256[]","internalType":"uint256[]"},{"name":"calldatas","type":"bytes[]","internalType":"bytes[]"},{"name":"descriptionHash","type":"bytes32","internalType":"bytes32"}],"outputs":[{"name":"","type":"uint256","internalType":"uint256"}],"stateMutability":"nonpayable"},{"type":"function","name":"castVote","inputs":[{"name":"proposalId","type":"uint256","internalType":"uint256"},{"name":"support","type":"uint8","internalType":"uint8"}],"outputs":[{"name":"","type":"uint256","internalType":"uint256"}],"stateMutability":"nonpayable"},{"type":"function","name":"castVoteBySig","inputs":[{"name":"proposalId","type":"uint256","internalType":"uint256"},{"name":"support","type":"uint8","internalType":"uint8"},{"name":"voter","type":"address","internalType":"address"},{"name":"signature","type":"bytes","internalType":"bytes"}],"outputs":[{"name":"","type":"uint256","internalType":"uint256"}],"stateMutability":"nonpayable"},{"type":"function","name":"castVoteWithReason","inputs":[{"name":"proposalId","type":"uint256","internalType":"uint256"},{"name":"support","type":"uint8","internalType":"uint8"},{"name":"reason","type":"string","internalType":"string"}],"outputs":[{"name":"","type":"uint256","internalType":"uint256"}],"stateMutability":"nonpayable"},{"type":"function","name":"castVoteWithReasonAndParams","inputs":[{"name":"proposalId","type":"uint256","internalType":"uint256"},{"name":"support","type":"uint8","internalType":"uint8"},{"name":"reason","type":"string","internalType":"string"},{"name":"params","type":"bytes","internalType":"bytes"}],"outputs":[{"name":"","type":"uint256","internalType":"uint256"}],"stateMutability":"nonpayable"},{"type":"function","name":"castVoteWithReasonAndParamsBySig","inputs":[{"name":"proposalId","type":"uint256","internalType":"uint256"},{"name":"support","type":"uint8","internalType":"uint8"},{"name":"voter","type":"address","internalType":"address"},{"name":"reason","type":"string","internalType":"string"},{"name":"params","type":"bytes","internalType":"bytes"},{"name":"signature","type":"bytes","internalType":"bytes"}],"outputs":[{"name":"","type":"uint256","internalType":"uint256"}],"stateMutability":"nonpayable"},{"type":"function","name":"clock","inputs":[],"outputs":[{"name":"","type":"uint48","internalType":"uint48"}],"stateMutability":"view"},{"type":"function","name":"eip712Domain","inputs":[],"outputs":[{"name":"fields","type":"bytes1","internalType":"bytes1"},{"name":"name","type":"string","internalType":"string"},{"name":"version","type":"string","internalType":"string"},{"name":"chainId","type":"uint256","internalType":"uint256"},{"name":"verifyingContract","type":"address","internalType":"address"},{"name":"salt","type":"bytes32","internalType":"bytes32"},{"name":"extensions","type":"uint256[]","internalType":"uint256[]"}],"stateMutability":"view"},{"type":"function","name":"execute","inputs":[{"name":"targets","type":"address[]","internalType":"address[]"},{"name":"values","type":"uint256[]","internalType":"uint256[]"},{"name":"calldatas","type":"bytes[]","internalType":"bytes[]"},{"name":"descriptionHash","type":"bytes32","internalType":"bytes32"}],"outputs":[{"name":"","type":"uint256","internalType":"uint256"}],"stateMutability":"payable"},{"type":"function","name":"getVotes","inputs":[{"name":"account","type":"address","internalType":"address"},{"name":"timepoint","type":"uint256","internalType":"uint256"}],"outputs":[{"name":"","type":"uint256","internalType":"uint256"}],"stateMutability":"view"},{"type":"function","name":"getVotesWithParams","inputs":[{"name":"account","type":"address","internalType":"address"},{"name":"timepoint","type":"uint256","internalType":"uint256"},{"name":"params","type":"bytes","internalType":"bytes"}],"outputs":[{"name":"","type":"uint256","internalType":"uint256"}],"stateMutability":"view"},{"type":"function","name":"hasVoted","inputs":[{"name":"proposalId","type":"uint256","internalType":"uint256"},{"name":"account","type":"address","internalType":"address"}],"outputs":[{"name":"","type":"bool","internalType":"bool"}],"stateMutability":"view"},{"type":"function","name":"hashProposal","inputs":[{"name":"targets","type":"address[]","internalType":"address[]"},{"name":"values","type":"uint256[]","internalType":"uint256[]"},{"name":"calldatas","type":"bytes[]","internalType":"bytes[]"},{"name":"descriptionHash","type":"bytes32","internalType":"bytes32"}],"outputs":[{"name":"","type":"uint256","internalType":"uint256"}],"stateMutability":"pure"},{"type":"function","name":"name","inputs":[],"outputs":[{"name":"","type":"string","internalType":"string"}],"stateMutability":"view"},{"type":"function","name":"nonces","inputs":[{"name":"owner","type":"address","internalType":"address"}],"outputs":[{"name":"","type":"uint256","internalType":"uint256"}],"stateMutability":"view"},{"type":"function","name":"onERC1155BatchReceived","inputs":[{"name":"","type":"address","internalType":"address"},{"name":"","type":"address","internalType":"address"},{"name":"","type":"uint256[]","internalType":"uint256[]"},{"name":"","type":"uint256[]","internalType":"uint256[]"},{"name":"","type":"bytes","internalType":"bytes"}],"outputs":[{"name":"","type":"bytes4","internalType":"bytes4"}],"stateMutability":"nonpayable"},{"type":"function","name":"onERC1155Received","inputs":[{"name":"","type":"address","internalType":"address"},{"name":"","type":"address","internalType":"address"},{"name":"","type":"uint256","internalType":"uint256"},{"name":"","type":"uint256","internalType":"uint256"},{"name":"","type":"bytes","internalType":"bytes"}],"outputs":[{"name":"","type":"bytes4","internalType":"bytes4"}],"stateMutability":"nonpayable"},{"type":"function","name":"onERC721Received","inputs":[{"name":"","type":"address","internalType":"address"},{"name":"","type":"address","internalType":"address"},{"name":"","type":"uint256","internalType":"uint256"},{"name":"","type":"bytes","internalType":"bytes"}],"outputs":[{"name":"","type":"bytes4","internalType":"bytes4"}],"stateMutability":"nonpayable"},{"type":"function","name":"proposalDeadline","inputs":[{"name":"proposalId","type":"uint256","internalType":"uint256"}],"outputs":[{"name":"","type":"uint256","internalType":"uint256"}],"stateMutability":"view"},{"type":"function","name":"proposalEta","inputs":[{"name":"proposalId","type":"uint256","internalType":"uint256"}],"outputs":[{"name":"","type":"uint256","internalType":"uint256"}],"stateMutability":"view"},{"type":"function","name":"proposalNeedsQueuing","inputs":[{"name":"proposalId","type":"uint256","internalType":"uint256"}],"outputs":[{"name":"","type":"bool","internalType":"bool"}],"stateMutability":"view"},{"type":"function","name":"proposalProposer","inputs":[{"name":"proposalId","type":"uint256","internalType":"uint256"}],"outputs":[{"name":"","type":"address","internalType":"address"}],"stateMutability":"view"},{"type":"function","name":"proposalSnapshot","inputs":[{"name":"proposalId","type":"uint256","internalType":"uint256"}],"outputs":[{"name":"","type":"uint256","internalType":"uint256"}],"stateMutability":"view"},{"type":"function","name":"proposalThreshold","inputs":[],"outputs":[{"name":"","type":"uint256","internalType":"uint256"}],"stateMutability":"view"},{"type":"function","name":"proposalVotes","inputs":[{"name":"proposalId","type":"uint256","internalType":"uint256"}],"outputs":[{"name":"againstVotes","type":"uint256","internalType":"uint256"},{"name":"forVotes","type":"uint256","internalType":"uint256"},{"name":"abstainVotes","type":"uint256","internalType":"uint256"}],"stateMutability":"view"},{"type":"function","name":"propose","inputs":[{"name":"targets","type":"address[]","internalType":"address[]"},{"name":"values","type":"uint256[]","internalType":"uint256[]"},{"name":"calldatas","type":"bytes[]","internalType":"bytes[]"},{"name":"description","type":"string","internalType":"string"}],"outputs":[{"name":"","type":"uint256","internalType":"uint256"}],"stateMutability":"nonpayable"},{"type":"function","name":"queue","inputs":[{"name":"targets","type":"address[]","internalType":"address[]"},{"name":"values","type":"uint256[]","internalType":"uint256[]"},{"name":"calldatas","type":"bytes[]","internalType":"bytes[]"},{"name":"descriptionHash","type":"bytes32","internalType":"bytes32"}],"outputs":[{"name":"","type":"uint256","internalType":"uint256"}],"stateMutability":"nonpayable"},{"type":"function","name":"quorum","inputs":[{"name":"blockNumber","type":"uint256","internalType":"uint256"}],"outputs":[{"name":"","type":"uint256","internalType":"uint256"}],"stateMutability":"view"},{"type":"function","name":"quorumDenominator","inputs":[],"outputs":[{"name":"","type":"uint256","internalType":"uint256"}],"stateMutability":"view"},{"type":"function","name":"quorumNumerator","inputs":[{"name":"timepoint","type":"uint256","internalType":"uint256"}],"outputs":[{"name":"","type":"uint256","internalType":"uint256"}],"stateMutability":"view"},{"type":"function","name":"quorumNumerator","inputs":[],"outputs":[{"name":"","type":"uint256","internalType":"uint256"}],"stateMutability":"view"},{"type":"function","name":"relay","inputs":[{"name":"target","type":"address","internalType":"address"},{"name":"value","type":"uint256","internalType":"uint256"},{"name":"data","type":"bytes","internalType":"bytes"}],"outputs":[],"stateMutability":"payable"},{"type":"function","name":"setProposalThreshold","inputs":[{"name":"newProposalThreshold","type":"uint256","internalType":"uint256"}],"outputs":[],"stateMutability":"nonpayable"},{"type":"function","name":"setVotingDelay","inputs":[{"name":"newVotingDelay","type":"uint48","internalType":"uint48"}],"outputs":[],"stateMutability":"nonpayable"},{"type":"function","name":"setVotingPeriod","inputs":[{"name":"newVotingPeriod","type":"uint32","internalType":"uint32"}],"outputs":[],"stateMutability":"nonpayable"},{"type":"function","name":"state","inputs":[{"name":"proposalId","type":"uint256","internalType":"uint256"}],"outputs":[{"name":"","type":"uint8","internalType":"enum IGovernor.ProposalState"}],"stateMutability":"view"},{"type":"function","name":"supportsInterface","inputs":[{"name":"interfaceId","type":"bytes4","internalType":"bytes4"}],"outputs":[{"name":"","type":"bool","internalType":"bool"}],"stateMutability":"view"},{"type":"function","name":"timelock","inputs":[],"outputs":[{"name":"","type":"address","internalType":"address"}],"stateMutability":"view"},{"type":"function","name":"token","inputs":[],"outputs":[{"name":"","type":"address","internalType":"contract IERC5805"}],"stateMutability":"view"},{"type":"function","name":"updateQuorumNumerator","inputs":[{"name":"newQuorumNumerator","type":"uint256","internalType":"uint256"}],"outputs":[],"stateMutability":"nonpayable"},{"type":"function","name":"updateTimelock","inputs":[{"name":"newTimelock","type":"address","internalType":"contract TimelockController"}],"outputs":[],"stateMutability":"nonpayable"},{"type":"function","name":"version","inputs":[],"outputs":[{"name":"","type":"string","internalType":"string"}],"stateMutability":"view"},{"type":"function","name":"votingDelay","inputs":[],"outputs":[{"name":"","type":"uint256","internalType":"uint256"}],"stateMutability":"view"},{"type":"function","name":"votingPeriod","inputs":[],"outputs":[{"name":"","type":"uint256","internalType":"uint256"}],"stateMutability":"view"},{"type":"event","name":"EIP712DomainChanged","inputs":[],"anonymous":false},{"type":"event","name":"ProposalCanceled","inputs":[{"name":"proposalId","type":"uint256","indexed":false,"internalType":"uint256"}],"anonymous":false},{"type":"event","name":"ProposalCreated","inputs":[{"name":"proposalId","type":"uint256","indexed":false,"internalType":"uint256"},{"name":"proposer","type":"address","indexed":false,"internalType":"address"},{"name":"targets","type":"address[]","indexed":false,"internalType":"address[]"},{"name":"values","type":"uint256[]","indexed":false,"internalType":"uint256[]"},{"name":"signatures","type":"string[]","indexed":false,"internalType":"string[]"},{"name":"calldatas","type":"bytes[]","indexed":false,"internalType":"bytes[]"},{"name":"voteStart","type":"uint256","indexed":false,"internalType":"uint256"},{"name":"voteEnd","type":"uint256","indexed":false,"internalType":"uint256"},{"name":"description","type":"string","indexed":false,"internalType":"string"}],"anonymous":false},{"type":"event","name":"ProposalExecuted","inputs":[{"name":"proposalId","type":"uint256","indexed":false,"internalType":"uint256"}],"anonymous":false},{"type":"event","name":"ProposalQueued","inputs":[{"name":"proposalId","type":"uint256","indexed":false,"internalType":"uint256"},{"name":"etaSeconds","type":"uint256","indexed":false,"internalType":"uint256"}],"anonymous":false},{"type":"event","name":"ProposalThresholdSet","inputs":[{"name":"oldProposalThreshold","type":"uint256","indexed":false,"internalType":"uint256"},{"name":"newProposalThreshold","type":"uint256","indexed":false,"internalType":"uint256"}],"anonymous":false},{"type":"event","name":"QuorumNumeratorUpdated","inputs":[{"name":"oldQuorumNumerator","type":"uint256","indexed":false,"internalType":"uint256"},{"name":"newQuorumNumerator","type":"uint256","indexed":false,"internalType":"uint256"}],"anonymous":false},{"type":"event","name":"TimelockChange","inputs":[{"name":"oldTimelock","type":"address","indexed":false,"internalType":"address"},{"name":"newTimelock","type":"address","indexed":false,"internalType":"address"}],"anonymous":false},{"type":"event","name":"VoteCast","inputs":[{"name":"voter","type":"address","indexed":true,"internalType":"address"},{"name":"proposalId","type":"uint256","indexed":false,"internalType":"uint256"},{"name":"support","type":"uint8","indexed":false,"internalType":"uint8"},{"name":"weight","type":"uint256","indexed":false,"internalType":"uint256"},{"name":"reason","type":"string","indexed":false,"internalType":"string"}],"anonymous":false},{"type":"event","name":"VoteCastWithParams","inputs":[{"name":"voter","type":"address","indexed":true,"internalType":"address"},{"name":"proposalId","type":"uint256","indexed":false,"internalType":"uint256"},{"name":"support","type":"uint8","indexed":false,"internalType":"uint8"},{"name":"weight","type":"uint256","indexed":false,"internalType":"uint256"},{"name":"reason","type":"string","indexed":false,"internalType":"string"},{"name":"params","type":"bytes","indexed":false,"internalType":"bytes"}],"anonymous":false},{"type":"event","name":"VotingDelaySet","inputs":[{"name":"oldVotingDelay","type":"uint256","indexed":false,"internalType":"uint256"},{"name":"newVotingDelay","type":"uint256","indexed":false,"internalType":"uint256"}],"anonymous":false},{"type":"event","name":"VotingPeriodSet","inputs":[{"name":"oldVotingPeriod","type":"uint256","indexed":false,"internalType":"uint256"},{"name":"newVotingPeriod","type":"uint256","indexed":false,"internalType":"uint256"}],"anonymous":false},{"type":"error","name":"CheckpointUnorderedInsertion","inputs":[]},{"type":"error","name":"FailedInnerCall","inputs":[]},{"type":"error","name":"GovernorAlreadyCastVote","inputs":[{"name":"voter","type":"address","internalType":"address"}]},{"type":"error","name":"GovernorAlreadyQueuedProposal","inputs":[{"name":"proposalId","type":"uint256","internalType":"uint256"}]},{"type":"error","name":"GovernorDisabledDeposit","inputs":[]},{"type":"error","name":"GovernorInsufficientProposerVotes","inputs":[{"name":"proposer","type":"address","internalType":"address"},{"name":"votes","type":"uint256","internalType":"uint256"},{"name":"threshold","type":"uint256","internalType":"uint256"}]},{"type":"error","name":"GovernorInvalidProposalLength","inputs":[{"name":"targets","type":"uint256","internalType":"uint256"},{"name":"calldatas","type":"uint256","internalType":"uint256"},{"name":"values","type":"uint256","internalType":"uint256"}]},{"type":"error","name":"GovernorInvalidQuorumFraction","inputs":[{"name":"quorumNumerator","type":"uint256","internalType":"uint256"},{"name":"quorumDenominator","type":"uint256","internalType":"uint256"}]},{"type":"error","name":"GovernorInvalidSignature","inputs":[{"name":"voter","type":"address","internalType":"address"}]},{"type":"error","name":"GovernorInvalidVoteType","inputs":[]},{"type":"error","name":"GovernorInvalidVotingPeriod","inputs":[{"name":"votingPeriod","type":"uint256","internalType":"uint256"}]},{"type":"error","name":"GovernorNonexistentProposal","inputs":[{"name":"proposalId","type":"uint256","internalType":"uint256"}]},{"type":"error","name":"GovernorNotQueuedProposal","inputs":[{"name":"proposalId","type":"uint256","internalType":"uint256"}]},{"type":"error","name":"GovernorOnlyExecutor","inputs":[{"name":"account","type":"address","internalType":"address"}]},{"type":"error","name":"GovernorOnlyProposer","inputs":[{"name":"account","type":"address","internalType":"address"}]},{"type":"error","name":"GovernorQueueNotImplemented","inputs":[]},{"type":"error","name":"GovernorRestrictedProposer","inputs":[{"name":"proposer","type":"address","internalType":"address"}]},{"type":"error","name":"GovernorUnexpectedProposalState","inputs":[{"name":"proposalId","type":"uint256","internalType":"uint256"},{"name":"current","type":"uint8","internalType":"enum IGovernor.ProposalState"},{"name":"expectedStates","type":"bytes32","internalType":"bytes32"}]},{"type":"error","name":"InvalidAccountNonce","inputs":[{"name":"account","type":"address","internalType":"address"},{"name":"currentNonce","type":"uint256","internalType":"uint256"}]},{"type":"error","name":"InvalidShortString","inputs":[]},{"type":"error","name":"QueueEmpty","inputs":[]},{"type":"error","name":"QueueFull","inputs":[]},{"type":"error","name":"SafeCastOverflowedUintDowncast","inputs":[{"name":"bits","type":"uint8","internalType":"uint8"},{"name":"value","type":"uint256","internalType":"uint256"}]},{"type":"error","name":"StringTooLong","inputs":[{"name":"str","type":"string","internalType":"string"}]}],"bytecode":{"object":"0x61018060405234801562000011575f80fd5b5060405162005b4338038062005b43833981016040819052620000349162000794565b80600583600260055f6040518060400160405280600b81526020016a282a1023b7bb32b93737b960a91b81525080620000726200018760201b60201c565b6200007e825f620001a2565b610120526200008f816001620001a2565b61014052815160208084019190912060e052815190820120610100524660a0526200011c60e05161010051604080517f8b73c3c69bb8fe3d512ecc4cf759cc79239f7b179b0ffacaa9a75d522b39400f60208201529081019290925260608201524660808201523060a08201525f9060c00160405160208183030381529060405280519060200120905090565b60805250503060c05260036200013382826200086f565b5062000141905083620001da565b6200014c8262000240565b6200015781620002e5565b5050506001600160a01b031661016052620001728162000326565b506200017e81620003c5565b505050620009f4565b6040805180820190915260018152603160f81b602082015290565b5f602083511015620001c157620001b9836200042e565b9050620001d4565b81620001ce84826200086f565b5060ff90505b92915050565b6008546040805165ffffffffffff928316815291831660208301527fc565b045403dc03c2eea82b81a0465edad9e2e7fc4d97e11421c209da93d7a93910160405180910390a16008805465ffffffffffff191665ffffffffffff92909216919091179055565b8063ffffffff165f036200026e5760405163f1cfbf0560e01b81525f60048201526024015b60405180910390fd5b6008546040805163ffffffff66010000000000009093048316815291831660208301527f7e3f7f0708a84de9203036abaa450dccc85ad5ff52f78c170f3edb55cf5e8828910160405180910390a16008805463ffffffff90921666010000000000000263ffffffff60301b19909216919091179055565b60075460408051918252602082018390527fccb45da8d5717e6c4544694297c4ba5cf151d455c9bb0ed4fc7a38411bc05461910160405180910390a1600755565b606480821115620003555760405163243e544560e01b8152600481018390526024810182905260440162000265565b5f6200036062000470565b905062000385620003706200048b565b6200037b856200050c565b600a919062000545565b505060408051828152602081018590527f0553476bf02ef2726e8ce5ced78d63e26e602e4a2257b1f559418e24b4633997910160405180910390a1505050565b600b54604080516001600160a01b03928316815291831660208301527f08f74ea46ef7894f65eabfb5e6e695de773a000b47c529ab559178069b226401910160405180910390a1600b80546001600160a01b0319166001600160a01b0392909216919091179055565b5f80829050601f815111156200045b578260405163305a27a960e01b81526004016200026591906200093b565b8051620004688262000989565b179392505050565b5f6200047d600a62000561565b6001600160d01b0316905090565b5f620004976101605190565b6001600160a01b03166391ddadf46040518163ffffffff1660e01b8152600401602060405180830381865afa925050508015620004f3575060408051601f3d908101601f19168201909252620004f091810190620009ad565b60015b620005075762000502620005ae565b905090565b919050565b5f6001600160d01b0382111562000541576040516306dfcc6560e41b815260d060048201526024810183905260440162000265565b5090565b5f8062000554858585620005ba565b915091505b935093915050565b80545f908015620005a5576200058b836200057e600184620009d4565b5f91825260209091200190565b54660100000000000090046001600160d01b0316620005a7565b5f5b9392505050565b5f620005024362000748565b82545f9081908015620006ea575f620005da876200057e600185620009d4565b60408051808201909152905465ffffffffffff80821680845266010000000000009092046001600160d01b0316602084015291925090871610156200063257604051632520601d60e01b815260040160405180910390fd5b805165ffffffffffff80881691160362000686578462000659886200057e600186620009d4565b80546001600160d01b039290921666010000000000000265ffffffffffff909216919091179055620006d9565b6040805180820190915265ffffffffffff80881682526001600160d01b0380881660208085019182528b54600181018d555f8d815291909120945191519092166601000000000000029216919091179101555b602001519250839150620005599050565b50506040805180820190915265ffffffffffff80851682526001600160d01b0380851660208085019182528854600181018a555f8a815291822095519251909316660100000000000002919093161792019190915590508162000559565b5f65ffffffffffff82111562000541576040516306dfcc6560e41b8152603060048201526024810183905260440162000265565b6001600160a01b038116811462000791575f80fd5b50565b5f8060408385031215620007a6575f80fd5b8251620007b3816200077c565b6020840151909250620007c6816200077c565b809150509250929050565b634e487b7160e01b5f52604160045260245ffd5b600181811c90821680620007fa57607f821691505b6020821081036200081957634e487b7160e01b5f52602260045260245ffd5b50919050565b601f8211156200086a57805f5260205f20601f840160051c81016020851015620008465750805b601f840160051c820191505b8181101562000867575f815560010162000852565b50505b505050565b81516001600160401b038111156200088b576200088b620007d1565b620008a3816200089c8454620007e5565b846200081f565b602080601f831160018114620008d9575f8415620008c15750858301515b5f19600386901b1c1916600185901b17855562000933565b5f85815260208120601f198616915b828110156200090957888601518255948401946001909101908401620008e8565b50858210156200092757878501515f19600388901b60f8161c191681555b505060018460011b0185555b505050505050565b5f602080835283518060208501525f5b8181101562000969578581018301518582016040015282016200094b565b505f604082860101526040601f19601f8301168501019250505092915050565b8051602080830151919081101562000819575f1960209190910360031b1b16919050565b5f60208284031215620009be575f80fd5b815165ffffffffffff81168114620005a7575f80fd5b81810381811115620001d457634e487b7160e01b5f52601160045260245ffd5b60805160a05160c05160e051610100516101205161014051610160516150d762000a6c5f395f8181610ae3015281816110d201528181611764015281816127860152612aa101525f61275301525f61272701525f61325c01525f61323401525f61318f01525f6131b901525f6131e301526150d75ff3fe608060405260043610610306575f3560e01c80637ecebe0011610191578063c01f9e37116100dc578063e540d01d11610087578063f23a6e6111610062578063f23a6e6114610a97578063f8ce560a14610ab6578063fc0c546a14610ad5575f80fd5b8063e540d01d14610a3a578063eb9019d414610a59578063ece40cc114610a78575f80fd5b8063d33219b4116100b7578063d33219b414610998578063dd4e2ba5146109c2578063deaaa7cc14610a07575f80fd5b8063c01f9e3714610947578063c28bc2fa14610966578063c59057e414610979575f80fd5b8063a7713a701161013c578063ab58fb8e11610117578063ab58fb8e146108de578063b58131b014610914578063bc197c8114610928575f80fd5b8063a7713a701461088c578063a890c910146108a0578063a9a95294146108bf575f80fd5b806391ddadf41161016c57806391ddadf41461082f57806397c3d3341461085a5780639a802a6d1461086d575f80fd5b80637ecebe00146107a857806384b0196e146107e95780638ff262e314610810575f80fd5b806343859632116102515780635b8d0e0d116101fc57806379051887116101d7578063790518871461074b5780637b3c71d31461076a5780637d5e81e214610789575f80fd5b80635b8d0e0d146106ee5780635f398a141461070d57806360c4247f1461072c575f80fd5b8063544ffc9c1161022c578063544ffc9c1461063757806354fd4d501461068a57806356781388146106cf575f80fd5b806343859632146105af578063452115d6146106045780634bf5d7e914610623575f80fd5b8063160cbed7116102b15780632fe3e2611161028c5780632fe3e2611461053c5780633932abb11461056f5780633e4f49e614610583575f80fd5b8063160cbed7146104bf5780632656227d146104de5780632d63f693146104f1575f80fd5b806306fdde03116102e157806306fdde03146103e8578063143489d014610409578063150b7a021461046f575f80fd5b806301ffc9a71461036757806302a251a31461039b57806306f3f9e6146103c9575f80fd5b366103635730610314610b07565b73ffffffffffffffffffffffffffffffffffffffff1614610361576040517fe90a651e00000000000000000000000000000000000000000000000000000000815260040160405180910390fd5b005b5f80fd5b348015610372575f80fd5b50610386610381366004613ea9565b610b2c565b60405190151581526020015b60405180910390f35b3480156103a6575f80fd5b506008546601000000000000900463ffffffff165b604051908152602001610392565b3480156103d4575f80fd5b506103616103e3366004613ee8565b610c10565b3480156103f3575f80fd5b506103fc610c24565b6040516103929190613f6a565b348015610414575f80fd5b5061044a610423366004613ee8565b5f9081526004602052604090205473ffffffffffffffffffffffffffffffffffffffff1690565b60405173ffffffffffffffffffffffffffffffffffffffff9091168152602001610392565b34801561047a575f80fd5b5061048e6104893660046140b7565b610cb4565b6040517fffffffff000000000000000000000000000000000000000000000000000000009091168152602001610392565b3480156104ca575f80fd5b506103bb6104d9366004614289565b610d35565b6103bb6104ec366004614289565b610e33565b3480156104fc575f80fd5b506103bb61050b366004613ee8565b5f9081526004602052604090205474010000000000000000000000000000000000000000900465ffffffffffff1690565b348015610547575f80fd5b506103bb7f3e83946653575f9a39005e1545185629e92736b7528ab20ca3816f315424a81181565b34801561057a575f80fd5b506103bb61101b565b34801561058e575f80fd5b506105a261059d366004613ee8565b61102d565b6040516103929190614379565b3480156105ba575f80fd5b506103866105c9366004614387565b5f82815260096020908152604080832073ffffffffffffffffffffffffffffffffffffffff8516845260030190915290205460ff1692915050565b34801561060f575f80fd5b506103bb61061e366004614289565b611037565b34801561062e575f80fd5b506103fc6110ce565b348015610642575f80fd5b5061066f610651366004613ee8565b5f908152600960205260409020805460018201546002909201549092565b60408051938452602084019290925290820152606001610392565b348015610695575f80fd5b5060408051808201909152600181527f310000000000000000000000000000000000000000000000000000000000000060208201526103fc565b3480156106da575f80fd5b506103bb6106e93660046143c5565b6111b9565b3480156106f9575f80fd5b506103bb610708366004614434565b6111e0565b348015610718575f80fd5b506103bb6107273660046144e7565b61137c565b348015610737575f80fd5b506103bb610746366004613ee8565b6113cf565b348015610756575f80fd5b50610361610765366004614578565b611497565b348015610775575f80fd5b506103bb610784366004614593565b6114a8565b348015610794575f80fd5b506103bb6107a33660046145e9565b6114ee565b3480156107b3575f80fd5b506103bb6107c2366004614696565b73ffffffffffffffffffffffffffffffffffffffff165f9081526002602052604090205490565b3480156107f4575f80fd5b506107fd6115f4565b60405161039297969594939291906146eb565b34801561081b575f80fd5b506103bb61082a366004614781565b611652565b34801561083a575f80fd5b50610843611761565b60405165ffffffffffff9091168152602001610392565b348015610865575f80fd5b5060646103bb565b348015610878575f80fd5b506103bb6108873660046147cf565b611813565b348015610897575f80fd5b506103bb61181f565b3480156108ab575f80fd5b506103616108ba366004614696565b61184b565b3480156108ca575f80fd5b506103866108d9366004613ee8565b61185c565b3480156108e9575f80fd5b506103bb6108f8366004613ee8565b5f9081526004602052604090206001015465ffffffffffff1690565b34801561091f575f80fd5b506103bb611864565b348015610933575f80fd5b5061048e610942366004614824565b61186e565b348015610952575f80fd5b506103bb610961366004613ee8565b6118f0565b6103616109743660046148b1565b61195a565b348015610984575f80fd5b506103bb610993366004614289565b6119e3565b3480156109a3575f80fd5b50600b5473ffffffffffffffffffffffffffffffffffffffff1661044a565b3480156109cd575f80fd5b506040805180820190915260208082527f737570706f72743d627261766f2671756f72756d3d666f722c6162737461696e908201526103fc565b348015610a12575f80fd5b506103bb7ff2aad550cf55f045cb27e9c559f9889fdfb6e6cdaa032301d6ea397784ae51d781565b348015610a45575f80fd5b50610361610a543660046148f1565b611a3a565b348015610a64575f80fd5b506103bb610a73366004614914565b611a4b565b348015610a83575f80fd5b50610361610a92366004613ee8565b611a71565b348015610aa2575f80fd5b5061048e610ab136600461493e565b611a82565b348015610ac1575f80fd5b506103bb610ad0366004613ee8565b611b04565b348015610ae0575f80fd5b507f000000000000000000000000000000000000000000000000000000000000000061044a565b5f610b27600b5473ffffffffffffffffffffffffffffffffffffffff1690565b905090565b5f7fffffffff0000000000000000000000000000000000000000000000000000000082167f65455a86000000000000000000000000000000000000000000000000000000001480610bbe57507fffffffff0000000000000000000000000000000000000000000000000000000082167f4e2312e000000000000000000000000000000000000000000000000000000000145b80610c0a57507f01ffc9a7000000000000000000000000000000000000000000000000000000007fffffffff000000000000000000000000000000000000000000000000000000008316145b92915050565b610c18611b0e565b610c2181611bba565b50565b606060038054610c33906149a2565b80601f0160208091040260200160405190810160405280929190818152602001828054610c5f906149a2565b8015610caa5780601f10610c8157610100808354040283529160200191610caa565b820191905f5260205f20905b815481529060010190602001808311610c8d57829003601f168201915b5050505050905090565b5f30610cbe610b07565b73ffffffffffffffffffffffffffffffffffffffff1614610d0b576040517fe90a651e00000000000000000000000000000000000000000000000000000000815260040160405180910390fd5b507f150b7a0200000000000000000000000000000000000000000000000000000000949350505050565b5f80610d43868686866119e3565b9050610d5881610d536004611c68565b611c8a565b505f610d678288888888611ce0565b905065ffffffffffff811615610df7575f8281526004602090815260409182902060010180547fffffffffffffffffffffffffffffffffffffffffffffffffffff0000000000001665ffffffffffff85169081179091558251858152918201527f9a2e42fd6722813d69113e7d0079d3d940171428df7373df9c7f7617cfda2892910160405180910390a1610e29565b6040517f90884a4600000000000000000000000000000000000000000000000000000000815260040160405180910390fd5b5095945050505050565b5f80610e41868686866119e3565b9050610e6181610e516005611c68565b610e5b6004611c68565b17611c8a565b505f81815260046020526040902080547fff00ffffffffffffffffffffffffffffffffffffffffffffffffffffffffffff167e0100000000000000000000000000000000000000000000000000000000000017905530610ebf610b07565b73ffffffffffffffffffffffffffffffffffffffff1614610f6f575f5b8651811015610f6d573073ffffffffffffffffffffffffffffffffffffffff16878281518110610f0e57610f0e6149f3565b602002602001015173ffffffffffffffffffffffffffffffffffffffff1603610f6557610f65858281518110610f4657610f466149f3565b6020026020010151805190602001206005611cee90919063ffffffff16565b600101610edc565b505b610f7c8187878787611da3565b30610f85610b07565b73ffffffffffffffffffffffffffffffffffffffff1614158015610fd457506005546fffffffffffffffffffffffffffffffff8082167001000000000000000000000000000000009092041614155b15610fde575f6005555b6040518181527f712ae1383f79ac853f8d882153778e0260ef8f03b504e2866e0593e04d2b291f906020015b60405180910390a195945050505050565b5f610b2760085465ffffffffffff1690565b5f610c0a82611db7565b5f80611045868686866119e3565b905061105481610d535f611c68565b505f8181526004602052604090205473ffffffffffffffffffffffffffffffffffffffff1633146110b8576040517f233d98e30000000000000000000000000000000000000000000000000000000081523360048201526024015b60405180910390fd5b6110c486868686611f3c565b9695505050505050565b60607f000000000000000000000000000000000000000000000000000000000000000073ffffffffffffffffffffffffffffffffffffffff16634bf5d7e96040518163ffffffff1660e01b81526004015f60405180830381865afa92505050801561117857506040513d5f823e601f3d9081017fffffffffffffffffffffffffffffffffffffffffffffffffffffffffffffffe01682016040526111759190810190614a20565b60015b6111b4575060408051808201909152601d81527f6d6f64653d626c6f636b6e756d6265722666726f6d3d64656661756c74000000602082015290565b919050565b5f803390506111d884828560405180602001604052805f815250611f52565b949350505050565b5f806112db876112d57f3e83946653575f9a39005e1545185629e92736b7528ab20ca3816f315424a8118c8c8c6112408e73ffffffffffffffffffffffffffffffffffffffff165f90815260026020526040902080546001810190915590565b8d8d604051611250929190614a89565b60405180910390208c805190602001206040516020016112ba9796959493929190968752602087019590955260ff93909316604086015273ffffffffffffffffffffffffffffffffffffffff919091166060850152608084015260a083015260c082015260e00190565b60405160208183030381529060405280519060200120611f73565b85611fba565b90508061132c576040517f94ab6c0700000000000000000000000000000000000000000000000000000000815273ffffffffffffffffffffffffffffffffffffffff881660048201526024016110af565b61136f89888a89898080601f0160208091040260200160405190810160405280939291908181526020018383808284375f920191909152508b9250612029915050565b9998505050505050505050565b5f803390506113c487828888888080601f0160208091040260200160405190810160405280939291908181526020018383808284375f920191909152508a9250612029915050565b979650505050505050565b600a80545f9182906113e2600184614ac5565b815481106113f2576113f26149f3565b5f918252602090912001805490915065ffffffffffff8116906601000000000000900479ffffffffffffffffffffffffffffffffffffffffffffffffffff1685821161145d5779ffffffffffffffffffffffffffffffffffffffffffffffffffff1695945050505050565b61147161146987612143565b600a90612192565b79ffffffffffffffffffffffffffffffffffffffffffffffffffff169695505050505050565b61149f611b0e565b610c2181612257565b5f803390506110c486828787878080601f0160208091040260200160405190810160405280939291908181526020018383808284375f92019190915250611f5292505050565b5f336114fa81846122d6565b611548576040517fd9b3955700000000000000000000000000000000000000000000000000000000815273ffffffffffffffffffffffffffffffffffffffff821660048201526024016110af565b5f61156e826001611557611761565b6115619190614ad8565b65ffffffffffff16611a4b565b90505f611579611864565b9050808210156115db576040517fc242ee1600000000000000000000000000000000000000000000000000000000815273ffffffffffffffffffffffffffffffffffffffff8416600482015260248101839052604481018290526064016110af565b6115e88888888887612444565b98975050505050505050565b5f6060805f805f6060611605612720565b61160d61274c565b604080515f808252602082019092527f0f000000000000000000000000000000000000000000000000000000000000009b939a50919850469750309650945092509050565b5f806116f6846112d57ff2aad550cf55f045cb27e9c559f9889fdfb6e6cdaa032301d6ea397784ae51d78989896116b28b73ffffffffffffffffffffffffffffffffffffffff165f90815260026020526040902080546001810190915590565b60408051602081019690965285019390935260ff909116606084015273ffffffffffffffffffffffffffffffffffffffff16608083015260a082015260c0016112ba565b905080611747576040517f94ab6c0700000000000000000000000000000000000000000000000000000000815273ffffffffffffffffffffffffffffffffffffffff851660048201526024016110af565b6110c486858760405180602001604052805f815250611f52565b5f7f000000000000000000000000000000000000000000000000000000000000000073ffffffffffffffffffffffffffffffffffffffff166391ddadf46040518163ffffffff1660e01b8152600401602060405180830381865afa925050508015611807575060408051601f3d9081017fffffffffffffffffffffffffffffffffffffffffffffffffffffffffffffffe016820190925261180491810190614afe565b60015b6111b457610b27612779565b5f6111d8848484612783565b5f61182a600a61283c565b79ffffffffffffffffffffffffffffffffffffffffffffffffffff16905090565b611853611b0e565b610c2181612889565b5f6001610c0a565b5f610b2760075490565b5f30611878610b07565b73ffffffffffffffffffffffffffffffffffffffff16146118c5576040517fe90a651e00000000000000000000000000000000000000000000000000000000815260040160405180910390fd5b507fbc197c810000000000000000000000000000000000000000000000000000000095945050505050565b5f8181526004602052604081205461194c907a010000000000000000000000000000000000000000000000000000810463ffffffff169074010000000000000000000000000000000000000000900465ffffffffffff16614b19565b65ffffffffffff1692915050565b611962611b0e565b5f808573ffffffffffffffffffffffffffffffffffffffff1685858560405161198c929190614a89565b5f6040518083038185875af1925050503d805f81146119c6576040519150601f19603f3d011682016040523d82523d5f602084013e6119cb565b606091505b50915091506119da8282612924565b50505050505050565b5f848484846040516020016119fb9493929190614bf3565b604080517fffffffffffffffffffffffffffffffffffffffffffffffffffffffffffffffe0818403018152919052805160209091012095945050505050565b611a42611b0e565b610c2181612940565b5f611a6a8383611a6560408051602081019091525f815290565b612783565b9392505050565b611a79611b0e565b610c2181612a10565b5f30611a8c610b07565b73ffffffffffffffffffffffffffffffffffffffff1614611ad9576040517fe90a651e00000000000000000000000000000000000000000000000000000000815260040160405180910390fd5b507ff23a6e610000000000000000000000000000000000000000000000000000000095945050505050565b5f610c0a82612a51565b33611b17610b07565b73ffffffffffffffffffffffffffffffffffffffff1614611b66576040517f47096e470000000000000000000000000000000000000000000000000000000081523360048201526024016110af565b30611b6f610b07565b73ffffffffffffffffffffffffffffffffffffffff1614611bb8575f8036604051611b9b929190614a89565b604051809103902090505b80611bb16005612b1e565b03611ba657505b565b606480821115611c00576040517f243e544500000000000000000000000000000000000000000000000000000000815260048101839052602481018290526044016110af565b5f611c0961181f565b9050611c28611c16611761565b611c1f85612be1565b600a9190612c40565b505060408051828152602081018590527f0553476bf02ef2726e8ce5ced78d63e26e602e4a2257b1f559418e24b4633997910160405180910390a1505050565b5f816007811115611c7b57611c7b614313565b600160ff919091161b92915050565b5f80611c958461102d565b90505f83611ca283611c68565b1603611a6a578381846040517f31b75e4d0000000000000000000000000000000000000000000000000000000081526004016110af93929190614c3d565b5f6110c48686868686612c5a565b81546fffffffffffffffffffffffffffffffff700100000000000000000000000000000000820481169181166001830190911603611d58576040517f8acb5f2700000000000000000000000000000000000000000000000000000000815260040160405180910390fd5b6fffffffffffffffffffffffffffffffff8082165f90815260018086016020526040909120939093558354919092018216700100000000000000000000000000000000029116179055565b611db08585858585612e64565b5050505050565b5f80611dc283612f14565b90506005816007811115611dd857611dd8614313565b14611de35792915050565b5f838152600c60205260409081902054600b5491517f584b153e00000000000000000000000000000000000000000000000000000000815260048101829052909173ffffffffffffffffffffffffffffffffffffffff169063584b153e90602401602060405180830381865afa158015611e5f573d5f803e3d5ffd5b505050506040513d601f19601f82011682018060405250810190611e839190614c5f565b15611e92575060059392505050565b600b546040517f2ab0f5290000000000000000000000000000000000000000000000000000000081526004810183905273ffffffffffffffffffffffffffffffffffffffff90911690632ab0f52990602401602060405180830381865afa158015611eff573d5f803e3d5ffd5b505050506040513d601f19601f82011682018060405250810190611f239190614c5f565b15611f32575060079392505050565b5060029392505050565b5f611f49858585856130b9565b95945050505050565b5f611f4985858585611f6e60408051602081019091525f815290565b612029565b5f610c0a611f7f613176565b836040517f19010000000000000000000000000000000000000000000000000000000000008152600281019290925260228201526042902090565b5f805f611fc785856132ac565b5090925090505f816003811115611fe057611fe0614313565b14801561201857508573ffffffffffffffffffffffffffffffffffffffff168273ffffffffffffffffffffffffffffffffffffffff16145b806110c457506110c48686866132f5565b5f61203886610d536001611c68565b505f8681526004602052604081205461207390879074010000000000000000000000000000000000000000900465ffffffffffff1685612783565b9050612082878787848761343d565b82515f036120e3578573ffffffffffffffffffffffffffffffffffffffff167fb8e138887d0aa13bab447e82de9d5c1777041ecd21ca36ba824ff1e6c07ddda4888784886040516120d69493929190614c7e565b60405180910390a26110c4565b8573ffffffffffffffffffffffffffffffffffffffff167fe2babfbac5889a709b63bb7f598b324e08bc5a4fb9ec647fb3cbc9ec07eb87128887848888604051612131959493929190614ca5565b60405180910390a29695505050505050565b5f65ffffffffffff82111561218e576040517f6dfcc65000000000000000000000000000000000000000000000000000000000815260306004820152602481018390526044016110af565b5090565b81545f90818160058111156121ee575f6121ab846135eb565b6121b59085614ac5565b5f8881526020902090915081015465ffffffffffff90811690871610156121de578091506121ec565b6121e9816001614cde565b92505b505b5f6121fb878785856136cf565b9050801561224b5761221f87612212600184614ac5565b5f91825260209091200190565b546601000000000000900479ffffffffffffffffffffffffffffffffffffffffffffffffffff166113c4565b5f979650505050505050565b6008546040805165ffffffffffff928316815291831660208301527fc565b045403dc03c2eea82b81a0465edad9e2e7fc4d97e11421c209da93d7a93910160405180910390a1600880547fffffffffffffffffffffffffffffffffffffffffffffffffffff0000000000001665ffffffffffff92909216919091179055565b80515f9060348110156122ed576001915050610c0a565b8281017fffffffffffffffffffffffffffffffffffffffffffffffffffffffffffffffec01517fffffffffffffffffffffffff000000000000000000000000000000000000000081167f2370726f706f7365723d307800000000000000000000000000000000000000001461236757600192505050610c0a565b5f80612374602885614ac5565b90505b83811015612409575f806123c2888481518110612396576123966149f3565b01602001517fff000000000000000000000000000000000000000000000000000000000000001661372e565b91509150816123da5760019650505050505050610c0a565b8060ff1660048573ffffffffffffffffffffffffffffffffffffffff16901b1793505050806001019050612377565b508573ffffffffffffffffffffffffffffffffffffffff168173ffffffffffffffffffffffffffffffffffffffff1614935050505092915050565b5f61245886868686805190602001206119e3565b90508451865114158061246d57508351865114155b8061247757508551155b156124c5578551845186516040517f447b05d00000000000000000000000000000000000000000000000000000000081526004810193909352602483019190915260448201526064016110af565b5f8181526004602052604090205474010000000000000000000000000000000000000000900465ffffffffffff161561253857806125028261102d565b6040517f31b75e4d0000000000000000000000000000000000000000000000000000000081526110af9291905f90600401614c3d565b5f61254161101b565b612549611761565b65ffffffffffff1661255b9190614cde565b90505f61257860085463ffffffff66010000000000009091041690565b5f84815260046020526040902080547fffffffffffffffffffffffff00000000000000000000000000000000000000001673ffffffffffffffffffffffffffffffffffffffff87161781559091506125cf83612143565b815465ffffffffffff9190911674010000000000000000000000000000000000000000027fffffffffffff000000000000ffffffffffffffffffffffffffffffffffffffff90911617815561262382613818565b815463ffffffff919091167a010000000000000000000000000000000000000000000000000000027fffff00000000ffffffffffffffffffffffffffffffffffffffffffffffffffff90911617815588517f7d84a6263ae0d98d3329bd7b46bb4e8d6f98cd35a7adb45c274c8b7fd5ebd5e090859087908c908c9067ffffffffffffffff8111156126b6576126b6613f9d565b6040519080825280602002602001820160405280156126e957816020015b60608152602001906001900390816126d45790505b508c896126f68a82614cde565b8e60405161270c99989796959493929190614cf1565b60405180910390a150505095945050505050565b6060610b277f00000000000000000000000000000000000000000000000000000000000000005f613861565b6060610b277f00000000000000000000000000000000000000000000000000000000000000006001613861565b5f610b2743612143565b5f7f00000000000000000000000000000000000000000000000000000000000000006040517f3a46b1a800000000000000000000000000000000000000000000000000000000815273ffffffffffffffffffffffffffffffffffffffff8681166004830152602482018690529190911690633a46b1a890604401602060405180830381865afa158015612818573d5f803e3d5ffd5b505050506040513d601f19601f820116820180604052508101906111d89190614df2565b80545f9080156128815761285583612212600184614ac5565b546601000000000000900479ffffffffffffffffffffffffffffffffffffffffffffffffffff16611a6a565b5f9392505050565b600b546040805173ffffffffffffffffffffffffffffffffffffffff928316815291831660208301527f08f74ea46ef7894f65eabfb5e6e695de773a000b47c529ab559178069b226401910160405180910390a1600b80547fffffffffffffffffffffffff00000000000000000000000000000000000000001673ffffffffffffffffffffffffffffffffffffffff92909216919091179055565b606082612939576129348261390a565b610c0a565b5080610c0a565b8063ffffffff165f03612981576040517ff1cfbf050000000000000000000000000000000000000000000000000000000081525f60048201526024016110af565b6008546040805163ffffffff66010000000000009093048316815291831660208301527f7e3f7f0708a84de9203036abaa450dccc85ad5ff52f78c170f3edb55cf5e8828910160405180910390a16008805463ffffffff9092166601000000000000027fffffffffffffffffffffffffffffffffffffffffffff00000000ffffffffffff909216919091179055565b60075460408051918252602082018390527fccb45da8d5717e6c4544694297c4ba5cf151d455c9bb0ed4fc7a38411bc05461910160405180910390a1600755565b5f6064612a5d836113cf565b6040517f8e539e8c0000000000000000000000000000000000000000000000000000000081526004810185905273ffffffffffffffffffffffffffffffffffffffff7f00000000000000000000000000000000000000000000000000000000000000001690638e539e8c90602401602060405180830381865afa158015612ae6573d5f803e3d5ffd5b505050506040513d601f19601f82011682018060405250810190612b0a9190614df2565b612b149190614e09565b610c0a9190614e4d565b80545f906fffffffffffffffffffffffffffffffff808216917001000000000000000000000000000000009004168103612b84576040517f75e52f4f00000000000000000000000000000000000000000000000000000000815260040160405180910390fd5b6fffffffffffffffffffffffffffffffff8181165f908152600185810160205260408220805492905585547fffffffffffffffffffffffffffffffff00000000000000000000000000000000169301909116919091179092555090565b5f79ffffffffffffffffffffffffffffffffffffffffffffffffffff82111561218e576040517f6dfcc65000000000000000000000000000000000000000000000000000000000815260d06004820152602481018390526044016110af565b5f80612c4d85858561394c565b915091505b935093915050565b5f80600b5f9054906101000a900473ffffffffffffffffffffffffffffffffffffffff1673ffffffffffffffffffffffffffffffffffffffff1663f27a0c926040518163ffffffff1660e01b8152600401602060405180830381865afa158015612cc6573d5f803e3d5ffd5b505050506040513d601f19601f82011682018060405250810190612cea9190614df2565b90505f3060601b7fffffffffffffffffffffffffffffffffffffffff000000000000000000000000168418600b546040517fb1c5f42700000000000000000000000000000000000000000000000000000000815291925073ffffffffffffffffffffffffffffffffffffffff169063b1c5f42790612d74908a908a908a905f908890600401614e85565b602060405180830381865afa158015612d8f573d5f803e3d5ffd5b505050506040513d601f19601f82011682018060405250810190612db39190614df2565b5f898152600c602052604080822092909255600b5491517f8f2a0bb000000000000000000000000000000000000000000000000000000000815273ffffffffffffffffffffffffffffffffffffffff90921691638f2a0bb091612e23918b918b918b919088908a90600401614ed2565b5f604051808303815f87803b158015612e3a575f80fd5b505af1158015612e4c573d5f803e3d5ffd5b505050506115e88242612e5f9190614cde565b612143565b600b5473ffffffffffffffffffffffffffffffffffffffff1663e38335e5348686865f3060601b7fffffffffffffffffffffffffffffffffffffffff0000000000000000000000001688186040518763ffffffff1660e01b8152600401612ecf959493929190614e85565b5f604051808303818588803b158015612ee6575f80fd5b505af1158015612ef8573d5f803e3d5ffd5b5050505f9687525050600c602052505060408320929092555050565b5f818152600460205260408120805460ff7e0100000000000000000000000000000000000000000000000000000000000082048116917f01000000000000000000000000000000000000000000000000000000000000009004168115612f7f57506007949350505050565b8015612f9057506002949350505050565b5f8581526004602052604081205474010000000000000000000000000000000000000000900465ffffffffffff169050805f03612ffc576040517f6ad06075000000000000000000000000000000000000000000000000000000008152600481018790526024016110af565b5f613005611761565b65ffffffffffff16905080821061302257505f9695505050505050565b5f61302c886118f0565b905081811061304357506001979650505050505050565b61304c88613b33565b158061306b57505f888152600960205260409020805460019091015411155b1561307e57506003979650505050505050565b5f8881526004602052604090206001015465ffffffffffff165f036130ab57506004979650505050505050565b506005979650505050505050565b5f806130c786868686613b94565b5f818152600c60205260409020549091508015610e2957600b546040517fc4d252f50000000000000000000000000000000000000000000000000000000081526004810183905273ffffffffffffffffffffffffffffffffffffffff9091169063c4d252f5906024015f604051808303815f87803b158015613147575f80fd5b505af1158015613159573d5f803e3d5ffd5b5050505f838152600c602052604081205550509050949350505050565b5f3073ffffffffffffffffffffffffffffffffffffffff7f0000000000000000000000000000000000000000000000000000000000000000161480156131db57507f000000000000000000000000000000000000000000000000000000000000000046145b1561320557507f000000000000000000000000000000000000000000000000000000000000000090565b610b27604080517f8b73c3c69bb8fe3d512ecc4cf759cc79239f7b179b0ffacaa9a75d522b39400f60208201527f0000000000000000000000000000000000000000000000000000000000000000918101919091527f000000000000000000000000000000000000000000000000000000000000000060608201524660808201523060a08201525f9060c00160405160208183030381529060405280519060200120905090565b5f805f83516041036132e3576020840151604085015160608601515f1a6132d588828585613c77565b9550955095505050506132ee565b505081515f91506002905b9250925092565b5f805f8573ffffffffffffffffffffffffffffffffffffffff168585604051602401613322929190614f29565b604080517fffffffffffffffffffffffffffffffffffffffffffffffffffffffffffffffe08184030181529181526020820180517bffffffffffffffffffffffffffffffffffffffffffffffffffffffff167f1626ba7e00000000000000000000000000000000000000000000000000000000179052516133a39190614f41565b5f60405180830381855afa9150503d805f81146133db576040519150601f19603f3d011682016040523d82523d5f602084013e6133e0565b606091505b50915091508180156133f457506020815110155b80156110c4575080517f1626ba7e00000000000000000000000000000000000000000000000000000000906134329083016020908101908401614df2565b149695505050505050565b5f85815260096020908152604080832073ffffffffffffffffffffffffffffffffffffffff88168452600381019092529091205460ff16156134c3576040517f71c6af4900000000000000000000000000000000000000000000000000000000815273ffffffffffffffffffffffffffffffffffffffff861660048201526024016110af565b73ffffffffffffffffffffffffffffffffffffffff85165f908152600382016020526040902080547fffffffffffffffffffffffffffffffffffffffffffffffffffffffffffffff0016600117905560ff84166135375782815f015f82825461352c9190614cde565b909155506135e39050565b7fffffffffffffffffffffffffffffffffffffffffffffffffffffffffffffffff60ff8516016135745782816001015f82825461352c9190614cde565b7ffffffffffffffffffffffffffffffffffffffffffffffffffffffffffffffffe60ff8516016135b15782816002015f82825461352c9190614cde565b6040517f06b337c200000000000000000000000000000000000000000000000000000000815260040160405180910390fd5b505050505050565b5f815f036135fa57505f919050565b5f600161360684613d6a565b901c6001901b9050600181848161361f5761361f614e20565b048201901c9050600181848161363757613637614e20565b048201901c9050600181848161364f5761364f614e20565b048201901c9050600181848161366757613667614e20565b048201901c9050600181848161367f5761367f614e20565b048201901c9050600181848161369757613697614e20565b048201901c905060018184816136af576136af614e20565b048201901c9050611a6a818285816136c9576136c9614e20565b04613dfd565b5f5b81831015613726575f6136e48484613e12565b5f8781526020902090915065ffffffffffff86169082015465ffffffffffff16111561371257809250613720565b61371d816001614cde565b93505b506136d1565b509392505050565b5f8060f883901c602f811180156137485750603a8160ff16105b1561377b576001947fffffffffffffffffffffffffffffffffffffffffffffffffffffffffffffffd09091019350915050565b8060ff166040108015613791575060478160ff16105b156137c4576001947fffffffffffffffffffffffffffffffffffffffffffffffffffffffffffffffc99091019350915050565b8060ff1660601080156137da575060678160ff16105b1561380d576001947fffffffffffffffffffffffffffffffffffffffffffffffffffffffffffffffa99091019350915050565b505f93849350915050565b5f63ffffffff82111561218e576040517f6dfcc65000000000000000000000000000000000000000000000000000000000815260206004820152602481018390526044016110af565b606060ff831461387b5761387483613e2c565b9050610c0a565b818054613887906149a2565b80601f01602080910402602001604051908101604052809291908181526020018280546138b3906149a2565b80156138fe5780601f106138d5576101008083540402835291602001916138fe565b820191905f5260205f20905b8154815290600101906020018083116138e157829003601f168201915b50505050509050610c0a565b80511561391a5780518082602001fd5b6040517f1425ea4200000000000000000000000000000000000000000000000000000000815260040160405180910390fd5b82545f9081908015613ac3575f61396887612212600185614ac5565b60408051808201909152905465ffffffffffff808216808452660100000000000090920479ffffffffffffffffffffffffffffffffffffffffffffffffffff16602084015291925090871610156139eb576040517f2520601d00000000000000000000000000000000000000000000000000000000815260040160405180910390fd5b805165ffffffffffff808816911603613a4d5784613a0e88612212600186614ac5565b805479ffffffffffffffffffffffffffffffffffffffffffffffffffff9290921666010000000000000265ffffffffffff909216919091179055613ab3565b6040805180820190915265ffffffffffff808816825279ffffffffffffffffffffffffffffffffffffffffffffffffffff80881660208085019182528b54600181018d555f8d815291909120945191519092166601000000000000029216919091179101555b602001519250839150612c529050565b50506040805180820190915265ffffffffffff808516825279ffffffffffffffffffffffffffffffffffffffffffffffffffff80851660208085019182528854600181018a555f8a8152918220955192519093166601000000000000029190931617920191909155905081612c52565b5f81815260096020526040812060028101546001820154613b549190614cde565b5f84815260046020526040902054613b8b9074010000000000000000000000000000000000000000900465ffffffffffff16611b04565b11159392505050565b5f80613ba2868686866119e3565b9050613bf081613bb26007611c68565b613bbc6006611c68565b613bc66002611c68565b6001613bd3600782614f5c565b613bde906002615093565b613be89190614ac5565b181818611c8a565b505f818152600460205260409081902080547effffffffffffffffffffffffffffffffffffffffffffffffffffffffffffff167f0100000000000000000000000000000000000000000000000000000000000000179055517f789cf55be980739dad1d0699b93b58e806b51c9d96619bfa8fe0a28abaa7b30c9061100a9083815260200190565b5f80807f7fffffffffffffffffffffffffffffff5d576e7357a4501ddfe92f46681b20a0841115613cb057505f91506003905082613d60565b604080515f808252602082018084528a905260ff891692820192909252606081018790526080810186905260019060a0016020604051602081039080840390855afa158015613d01573d5f803e3d5ffd5b50506040517fffffffffffffffffffffffffffffffffffffffffffffffffffffffffffffffe0015191505073ffffffffffffffffffffffffffffffffffffffff8116613d5757505f925060019150829050613d60565b92505f91508190505b9450945094915050565b5f80608083901c15613d7e57608092831c92015b604083901c15613d9057604092831c92015b602083901c15613da257602092831c92015b601083901c15613db457601092831c92015b600883901c15613dc657600892831c92015b600483901c15613dd857600492831c92015b600283901c15613dea57600292831c92015b600183901c15610c0a5760010192915050565b5f818310613e0b5781611a6a565b5090919050565b5f613e206002848418614e4d565b611a6a90848416614cde565b60605f613e3883613e69565b6040805160208082528183019092529192505f91906020820181803683375050509182525060208101929092525090565b5f60ff8216601f811115610c0a576040517fb3512b0c00000000000000000000000000000000000000000000000000000000815260040160405180910390fd5b5f60208284031215613eb9575f80fd5b81357fffffffff0000000000000000000000000000000000000000000000000000000081168114611a6a575f80fd5b5f60208284031215613ef8575f80fd5b5035919050565b5f5b83811015613f19578181015183820152602001613f01565b50505f910152565b5f8151808452613f38816020860160208601613eff565b601f017fffffffffffffffffffffffffffffffffffffffffffffffffffffffffffffffe0169290920160200192915050565b602081525f611a6a6020830184613f21565b73ffffffffffffffffffffffffffffffffffffffff81168114610c21575f80fd5b7f4e487b71000000000000000000000000000000000000000000000000000000005f52604160045260245ffd5b604051601f82017fffffffffffffffffffffffffffffffffffffffffffffffffffffffffffffffe016810167ffffffffffffffff8111828210171561401157614011613f9d565b604052919050565b5f67ffffffffffffffff82111561403257614032613f9d565b50601f017fffffffffffffffffffffffffffffffffffffffffffffffffffffffffffffffe01660200190565b5f61407061406b84614019565b613fca565b9050828152838383011115614083575f80fd5b828260208301375f602084830101529392505050565b5f82601f8301126140a8575f80fd5b611a6a8383356020850161405e565b5f805f80608085870312156140ca575f80fd5b84356140d581613f7c565b935060208501356140e581613f7c565b925060408501359150606085013567ffffffffffffffff811115614107575f80fd5b61411387828801614099565b91505092959194509250565b5f67ffffffffffffffff82111561413857614138613f9d565b5060051b60200190565b5f82601f830112614151575f80fd5b8135602061416161406b8361411f565b8083825260208201915060208460051b870101935086841115614182575f80fd5b602086015b848110156141a757803561419a81613f7c565b8352918301918301614187565b509695505050505050565b5f82601f8301126141c1575f80fd5b813560206141d161406b8361411f565b8083825260208201915060208460051b8701019350868411156141f2575f80fd5b602086015b848110156141a757803583529183019183016141f7565b5f82601f83011261421d575f80fd5b8135602061422d61406b8361411f565b82815260059290921b8401810191818101908684111561424b575f80fd5b8286015b848110156141a757803567ffffffffffffffff81111561426d575f80fd5b61427b8986838b0101614099565b84525091830191830161424f565b5f805f806080858703121561429c575f80fd5b843567ffffffffffffffff808211156142b3575f80fd5b6142bf88838901614142565b955060208701359150808211156142d4575f80fd5b6142e0888389016141b2565b945060408701359150808211156142f5575f80fd5b506143028782880161420e565b949793965093946060013593505050565b7f4e487b71000000000000000000000000000000000000000000000000000000005f52602160045260245ffd5b60088110614375577f4e487b71000000000000000000000000000000000000000000000000000000005f52602160045260245ffd5b9052565b60208101610c0a8284614340565b5f8060408385031215614398575f80fd5b8235915060208301356143aa81613f7c565b809150509250929050565b803560ff811681146111b4575f80fd5b5f80604083850312156143d6575f80fd5b823591506143e6602084016143b5565b90509250929050565b5f8083601f8401126143ff575f80fd5b50813567ffffffffffffffff811115614416575f80fd5b60208301915083602082850101111561442d575f80fd5b9250929050565b5f805f805f805f60c0888a03121561444a575f80fd5b8735965061445a602089016143b5565b9550604088013561446a81613f7c565b9450606088013567ffffffffffffffff80821115614486575f80fd5b6144928b838c016143ef565b909650945060808a01359150808211156144aa575f80fd5b6144b68b838c01614099565b935060a08a01359150808211156144cb575f80fd5b506144d88a828b01614099565b91505092959891949750929550565b5f805f805f608086880312156144fb575f80fd5b8535945061450b602087016143b5565b9350604086013567ffffffffffffffff80821115614527575f80fd5b61453389838a016143ef565b9095509350606088013591508082111561454b575f80fd5b5061455888828901614099565b9150509295509295909350565b65ffffffffffff81168114610c21575f80fd5b5f60208284031215614588575f80fd5b8135611a6a81614565565b5f805f80606085870312156145a6575f80fd5b843593506145b6602086016143b5565b9250604085013567ffffffffffffffff8111156145d1575f80fd5b6145dd878288016143ef565b95989497509550505050565b5f805f80608085870312156145fc575f80fd5b843567ffffffffffffffff80821115614613575f80fd5b61461f88838901614142565b95506020870135915080821115614634575f80fd5b614640888389016141b2565b94506040870135915080821115614655575f80fd5b6146618883890161420e565b93506060870135915080821115614676575f80fd5b508501601f81018713614687575f80fd5b6141138782356020840161405e565b5f602082840312156146a6575f80fd5b8135611a6a81613f7c565b5f815180845260208085019450602084015f5b838110156146e0578151875295820195908201906001016146c4565b509495945050505050565b7fff000000000000000000000000000000000000000000000000000000000000008816815260e060208201525f61472560e0830189613f21565b82810360408401526147378189613f21565b905086606084015273ffffffffffffffffffffffffffffffffffffffff861660808401528460a084015282810360c084015261477381856146b1565b9a9950505050505050505050565b5f805f8060808587031215614794575f80fd5b843593506147a4602086016143b5565b925060408501356147b481613f7c565b9150606085013567ffffffffffffffff811115614107575f80fd5b5f805f606084860312156147e1575f80fd5b83356147ec81613f7c565b925060208401359150604084013567ffffffffffffffff81111561480e575f80fd5b61481a86828701614099565b9150509250925092565b5f805f805f60a08688031215614838575f80fd5b853561484381613f7c565b9450602086013561485381613f7c565b9350604086013567ffffffffffffffff8082111561486f575f80fd5b61487b89838a016141b2565b94506060880135915080821115614890575f80fd5b61489c89838a016141b2565b9350608088013591508082111561454b575f80fd5b5f805f80606085870312156148c4575f80fd5b84356148cf81613f7c565b935060208501359250604085013567ffffffffffffffff8111156145d1575f80fd5b5f60208284031215614901575f80fd5b813563ffffffff81168114611a6a575f80fd5b5f8060408385031215614925575f80fd5b823561493081613f7c565b946020939093013593505050565b5f805f805f60a08688031215614952575f80fd5b853561495d81613f7c565b9450602086013561496d81613f7c565b93506040860135925060608601359150608086013567ffffffffffffffff811115614996575f80fd5b61455888828901614099565b600181811c908216806149b657607f821691505b6020821081036149ed577f4e487b71000000000000000000000000000000000000000000000000000000005f52602260045260245ffd5b50919050565b7f4e487b71000000000000000000000000000000000000000000000000000000005f52603260045260245ffd5b5f60208284031215614a30575f80fd5b815167ffffffffffffffff811115614a46575f80fd5b8201601f81018413614a56575f80fd5b8051614a6461406b82614019565b818152856020838501011115614a78575f80fd5b611f49826020830160208601613eff565b818382375f9101908152919050565b7f4e487b71000000000000000000000000000000000000000000000000000000005f52601160045260245ffd5b81810381811115610c0a57610c0a614a98565b65ffffffffffff828116828216039080821115614af757614af7614a98565b5092915050565b5f60208284031215614b0e575f80fd5b8151611a6a81614565565b65ffffffffffff818116838216019080821115614af757614af7614a98565b5f815180845260208085019450602084015f5b838110156146e057815173ffffffffffffffffffffffffffffffffffffffff1687529582019590820190600101614b4b565b5f8282518085526020808601955060208260051b840101602086015f5b84811015614be6577fffffffffffffffffffffffffffffffffffffffffffffffffffffffffffffffe0868403018952614bd4838351613f21565b98840198925090830190600101614b9a565b5090979650505050505050565b608081525f614c056080830187614b38565b8281036020840152614c1781876146b1565b90508281036040840152614c2b8186614b7d565b91505082606083015295945050505050565b83815260608101614c516020830185614340565b826040830152949350505050565b5f60208284031215614c6f575f80fd5b81518015158114611a6a575f80fd5b84815260ff84166020820152826040820152608060608201525f6110c46080830184613f21565b85815260ff8516602082015283604082015260a060608201525f614ccc60a0830185613f21565b82810360808401526115e88185613f21565b80820180821115610c0a57610c0a614a98565b5f6101208b8352602073ffffffffffffffffffffffffffffffffffffffff8c1681850152816040850152614d278285018c614b38565b91508382036060850152614d3b828b6146b1565b915083820360808501528189518084528284019150828160051b850101838c015f5b83811015614da9577fffffffffffffffffffffffffffffffffffffffffffffffffffffffffffffffe0878403018552614d97838351613f21565b94860194925090850190600101614d5d565b505086810360a0880152614dbd818c614b7d565b9450505050508560c08401528460e0840152828103610100840152614de28185613f21565b9c9b505050505050505050505050565b5f60208284031215614e02575f80fd5b5051919050565b8082028115828204841417610c0a57610c0a614a98565b7f4e487b71000000000000000000000000000000000000000000000000000000005f52601260045260245ffd5b5f82614e80577f4e487b71000000000000000000000000000000000000000000000000000000005f52601260045260245ffd5b500490565b60a081525f614e9760a0830188614b38565b8281036020840152614ea981886146b1565b90508281036040840152614ebd8187614b7d565b60608401959095525050608001529392505050565b60c081525f614ee460c0830189614b38565b8281036020840152614ef681896146b1565b90508281036040840152614f0a8188614b7d565b60608401969096525050608081019290925260a0909101529392505050565b828152604060208201525f6111d86040830184613f21565b5f8251614f52818460208701613eff565b9190910192915050565b60ff8181168382160190811115610c0a57610c0a614a98565b600181815b80851115614fce57817fffffffffffffffffffffffffffffffffffffffffffffffffffffffffffffffff04821115614fb457614fb4614a98565b80851615614fc157918102915b93841c9390800290614f7a565b509250929050565b5f82614fe457506001610c0a565b81614ff057505f610c0a565b816001811461500657600281146150105761502c565b6001915050610c0a565b60ff84111561502157615021614a98565b50506001821b610c0a565b5060208310610133831016604e8410600b841016171561504f575081810a610c0a565b6150598383614f75565b807fffffffffffffffffffffffffffffffffffffffffffffffffffffffffffffffff0482111561508b5761508b614a98565b029392505050565b5f611a6a60ff841683614fd656fea2646970667358221220925a57072a79155192c4ef3a6aea05f868c4fd120a2ae105ed2d81d4dd6e35b564736f6c63430008180033","linkReferences":{}},"methodIdentifiers":{"BALLOT_TYPEHASH()":"deaaa7cc","CLOCK_MODE()":"4bf5d7e9","COUNTING_MODE()":"dd4e2ba5","EXTENDED_BALLOT_TYPEHASH()":"2fe3e261","cancel(address[],uint256[],bytes[],bytes32)":"452115d6","castVote(uint256,uint8)":"56781388","castVoteBySig(uint256,uint8,address,bytes)":"8ff262e3","castVoteWithReason(uint256,uint8,string)":"7b3c71d3","castVoteWithReasonAndParams(uint256,uint8,string,bytes)":"5f398a14","castVoteWithReasonAndParamsBySig(uint256,uint8,address,string,bytes,bytes)":"5b8d0e0d","clock()":"91ddadf4","eip712Domain()":"84b0196e","execute(address[],uint256[],bytes[],bytes32)":"2656227d","getVotes(address,uint256)":"eb9019d4","getVotesWithParams(address,uint256,bytes)":"9a802a6d","hasVoted(uint256,address)":"43859632","hashProposal(address[],uint256[],bytes[],bytes32)":"c59057e4","name()":"06fdde03","nonces(address)":"7ecebe00","onERC1155BatchReceived(address,address,uint256[],uint256[],bytes)":"bc197c81","onERC1155Received(address,address,uint256,uint256,bytes)":"f23a6e61","onERC721Received(address,address,uint256,bytes)":"150b7a02","proposalDeadline(uint256)":"c01f9e37","proposalEta(uint256)":"ab58fb8e","proposalNeedsQueuing(uint256)":"a9a95294","proposalProposer(uint256)":"143489d0","proposalSnapshot(uint256)":"2d63f693","proposalThreshold()":"b58131b0","proposalVotes(uint256)":"544ffc9c","propose(address[],uint256[],bytes[],string)":"7d5e81e2","queue(address[],uint256[],bytes[],bytes32)":"160cbed7","quorum(uint256)":"f8ce560a","quorumDenominator()":"97c3d334","quorumNumerator()":"a7713a70","quorumNumerator(uint256)":"60c4247f","relay(address,uint256,bytes)":"c28bc2fa","setProposalThreshold(uint256)":"ece40cc1","setVotingDelay(uint48)":"79051887","setVotingPeriod(uint32)":"e540d01d","state(uint256)":"3e4f49e6","supportsInterface(bytes4)":"01ffc9a7","timelock()":"d33219b4","token()":"fc0c546a","updateQuorumNumerator(uint256)":"06f3f9e6","updateTimelock(address)":"a890c910","version()":"54fd4d50","votingDelay()":"3932abb1","votingPeriod()":"02a251a3"},"id":84}