{
    "abi": [
        {
            "type": "constructor",
            "inputs": [
                {
                    "name": "timelock",
                    "type": "address",
                    "internalType": "address"
                },
                {
                    "name": "owner1",
                    "type": "address",
                    "internalType": "address"
                },
                {
                    "name": "owner2",
                    "type": "address",
                    "internalType": "address"
                }
            ],
            "stateMutability": "nonpayable"
        },
        {
            "type": "function",
            "name": "CLOCK_MODE",
            "inputs": [],
            "outputs": [
                {
                    "name": "",
                    "type": "string",
                    "internalType": "string"
                }
            ],
            "stateMutability": "view"
        },
        {
            "type": "function",
            "name": "DOMAIN_SEPARATOR",
            "inputs": [],
            "outputs": [
                {
                    "name": "",
                    "type": "bytes32",
                    "internalType": "bytes32"
                }
            ],
            "stateMutability": "view"
        },
        {
            "type": "function",
            "name": "allowance",
            "inputs": [
                {
                    "name": "owner",
                    "type": "address",
                    "internalType": "address"
                },
                {
                    "name": "spender",
                    "type": "address",
                    "internalType": "address"
                }
            ],
            "outputs": [
                {
                    "name": "",
                    "type": "uint256",
                    "internalType": "uint256"
                }
            ],
            "stateMutability": "view"
        },
        {
            "type": "function",
            "name": "approve",
            "inputs": [
                {
                    "name": "spender",
                    "type": "address",
                    "internalType": "address"
                },
                {
                    "name": "value",
                    "type": "uint256",
                    "internalType": "uint256"
                }
            ],
            "outputs": [
                {
                    "name": "",
                    "type": "bool",
                    "internalType": "bool"
                }
            ],
            "stateMutability": "nonpayable"
        },
        {
            "type": "function",
            "name": "balanceOf",
            "inputs": [
                {
                    "name": "account",
                    "type": "address",
                    "internalType": "address"
                }
            ],
            "outputs": [
                {
                    "name": "",
                    "type": "uint256",
                    "internalType": "uint256"
                }
            ],
            "stateMutability": "view"
        },
        {
            "type": "function",
            "name": "checkpoints",
            "inputs": [
                {
                    "name": "account",
                    "type": "address",
                    "internalType": "address"
                },
                {
                    "name": "pos",
                    "type": "uint32",
                    "internalType": "uint32"
                }
            ],
            "outputs": [
                {
                    "name": "",
                    "type": "tuple",
                    "internalType": "struct Checkpoints.Checkpoint208",
                    "components": [
                        {
                            "name": "_key",
                            "type": "uint48",
                            "internalType": "uint48"
                        },
                        {
                            "name": "_value",
                            "type": "uint208",
                            "internalType": "uint208"
                        }
                    ]
                }
            ],
            "stateMutability": "view"
        },
        {
            "type": "function",
            "name": "clock",
            "inputs": [],
            "outputs": [
                {
                    "name": "",
                    "type": "uint48",
                    "internalType": "uint48"
                }
            ],
            "stateMutability": "view"
        },
        {
            "type": "function",
            "name": "decimals",
            "inputs": [],
            "outputs": [
                {
                    "name": "",
                    "type": "uint8",
                    "internalType": "uint8"
                }
            ],
            "stateMutability": "view"
        },
        {
            "type": "function",
            "name": "delegate",
            "inputs": [
                {
                    "name": "delegatee",
                    "type": "address",
                    "internalType": "address"
                }
            ],
            "outputs": [],
            "stateMutability": "nonpayable"
        },
        {
            "type": "function",
            "name": "delegateBySig",
            "inputs": [
                {
                    "name": "delegatee",
                    "type": "address",
                    "internalType": "address"
                },
                {
                    "name": "nonce",
                    "type": "uint256",
                    "internalType": "uint256"
                },
                {
                    "name": "expiry",
                    "type": "uint256",
                    "internalType": "uint256"
                },
                {
                    "name": "v",
                    "type": "uint8",
                    "internalType": "uint8"
                },
                {
                    "name": "r",
                    "type": "bytes32",
                    "internalType": "bytes32"
                },
                {
                    "name": "s",
                    "type": "bytes32",
                    "internalType": "bytes32"
                }
            ],
            "outputs": [],
            "stateMutability": "nonpayable"
        },
        {
            "type": "function",
            "name": "delegates",
            "inputs": [
                {
                    "name": "account",
                    "type": "address",
                    "internalType": "address"
                }
            ],
            "outputs": [
                {
                    "name": "",
                    "type": "address",
                    "internalType": "address"
                }
            ],
            "stateMutability": "view"
        },
        {
            "type": "function",
            "name": "eip712Domain",
            "inputs": [],
            "outputs": [
                {
                    "name": "fields",
                    "type": "bytes1",
                    "internalType": "bytes1"
                },
                {
                    "name": "name",
                    "type": "string",
                    "internalType": "string"
                },
                {
                    "name": "version",
                    "type": "string",
                    "internalType": "string"
                },
                {
                    "name": "chainId",
                    "type": "uint256",
                    "internalType": "uint256"
                },
                {
                    "name": "verifyingContract",
                    "type": "address",
                    "internalType": "address"
                },
                {
                    "name": "salt",
                    "type": "bytes32",
                    "internalType": "bytes32"
                },
                {
                    "name": "extensions",
                    "type": "uint256[]",
                    "internalType": "uint256[]"
                }
            ],
            "stateMutability": "view"
        },
        {
            "type": "function",
            "name": "getPastTotalSupply",
            "inputs": [
                {
                    "name": "timepoint",
                    "type": "uint256",
                    "internalType": "uint256"
                }
            ],
            "outputs": [
                {
                    "name": "",
                    "type": "uint256",
                    "internalType": "uint256"
                }
            ],
            "stateMutability": "view"
        },
        {
            "type": "function",
            "name": "getPastVotes",
            "inputs": [
                {
                    "name": "account",
                    "type": "address",
                    "internalType": "address"
                },
                {
                    "name": "timepoint",
                    "type": "uint256",
                    "internalType": "uint256"
                }
            ],
            "outputs": [
                {
                    "name": "",
                    "type": "uint256",
                    "internalType": "uint256"
                }
            ],
            "stateMutability": "view"
        },
        {
            "type": "function",
            "name": "getVotes",
            "inputs": [
                {
                    "name": "account",
                    "type": "address",
                    "internalType": "address"
                }
            ],
            "outputs": [
                {
                    "name": "",
                    "type": "uint256",
                    "internalType": "uint256"
                }
            ],
            "stateMutability": "view"
        },
        {
            "type": "function",
            "name": "mint",
            "inputs": [
                {
                    "name": "to",
                    "type": "address",
                    "internalType": "address"
                },
                {
                    "name": "amount",
                    "type": "uint256",
                    "internalType": "uint256"
                }
            ],
            "outputs": [],
            "stateMutability": "nonpayable"
        },
        {
            "type": "function",
            "name": "name",
            "inputs": [],
            "outputs": [
                {
                    "name": "",
                    "type": "string",
                    "internalType": "string"
                }
            ],
            "stateMutability": "view"
        },
        {
            "type": "function",
            "name": "nonces",
            "inputs": [
                {
                    "name": "owner",
                    "type": "address",
                    "internalType": "address"
                }
            ],
            "outputs": [
                {
                    "name": "",
                    "type": "uint256",
                    "internalType": "uint256"
                }
            ],
            "stateMutability": "view"
        },
        {
            "type": "function",
            "name": "numCheckpoints",
            "inputs": [
                {
                    "name": "account",
                    "type": "address",
                    "internalType": "address"
                }
            ],
            "outputs": [
                {
                    "name": "",
                    "type": "uint32",
                    "internalType": "uint32"
                }
            ],
            "stateMutability": "view"
        },
        {
            "type": "function",
            "name": "owner",
            "inputs": [],
            "outputs": [
                {
                    "name": "",
                    "type": "address",
                    "internalType": "address"
                }
            ],
            "stateMutability": "view"
        },
        {
            "type": "function",
            "name": "permit",
            "inputs": [
                {
                    "name": "owner",
                    "type": "address",
                    "internalType": "address"
                },
                {
                    "name": "spender",
                    "type": "address",
                    "internalType": "address"
                },
                {
                    "name": "value",
                    "type": "uint256",
                    "internalType": "uint256"
                },
                {
                    "name": "deadline",
                    "type": "uint256",
                    "internalType": "uint256"
                },
                {
                    "name": "v",
                    "type": "uint8",
                    "internalType": "uint8"
                },
                {
                    "name": "r",
                    "type": "bytes32",
                    "internalType": "bytes32"
                },
                {
                    "name": "s",
                    "type": "bytes32",
                    "internalType": "bytes32"
                }
            ],
            "outputs": [],
            "stateMutability": "nonpayable"
        },
        {
            "type": "function",
            "name": "renounceOwnership",
            "inputs": [],
            "outputs": [],
            "stateMutability": "nonpayable"
        },
        {
            "type": "function",
            "name": "symbol",
            "inputs": [],
            "outputs": [
                {
                    "name": "",
                    "type": "string",
                    "internalType": "string"
                }
            ],
            "stateMutability": "view"
        },
        {
            "type": "function",
            "name": "totalSupply",
            "inputs": [],
            "outputs": [
                {
                    "name": "",
                    "type": "uint256",
                    "internalType": "uint256"
                }
            ],
            "stateMutability": "view"
        },
        {
            "type": "function",
            "name": "transfer",
            "inputs": [
                {
                    "name": "to",
                    "type": "address",
                    "internalType": "address"
                },
                {
                    "name": "value",
                    "type": "uint256",
                    "internalType": "uint256"
                }
            ],
            "outputs": [
                {
                    "name": "",
                    "type": "bool",
                    "internalType": "bool"
                }
            ],
            "stateMutability": "nonpayable"
        },
        {
            "type": "function",
            "name": "transferFrom",
            "inputs": [
                {
                    "name": "from",
                    "type": "address",
                    "internalType": "address"
                },
                {
                    "name": "to",
                    "type": "address",
                    "internalType": "address"
                },
                {
                    "name": "value",
                    "type": "uint256",
                    "internalType": "uint256"
                }
            ],
            "outputs": [
                {
                    "name": "",
                    "type": "bool",
                    "internalType": "bool"
                }
            ],
            "stateMutability": "nonpayable"
        },
        {
            "type": "function",
            "name": "transferOwnership",
            "inputs": [
                {
                    "name": "newOwner",
                    "type": "address",
                    "internalType": "address"
                }
            ],
            "outputs": [],
            "stateMutability": "nonpayable"
        },
        {
            "type": "event",
            "name": "Approval",
            "inputs": [
                {
                    "name": "owner",
                    "type": "address",
                    "indexed": true,
                    "internalType": "address"
                },
                {
                    "name": "spender",
                    "type": "address",
                    "indexed": true,
                    "internalType": "address"
                },
                {
                    "name": "value",
                    "type": "uint256",
                    "indexed": false,
                    "internalType": "uint256"
                }
            ],
            "anonymous": false
        },
        {
            "type": "event",
            "name": "DelegateChanged",
            "inputs": [
                {
                    "name": "delegator",
                    "type": "address",
                    "indexed": true,
                    "internalType": "address"
                },
                {
                    "name": "fromDelegate",
                    "type": "address",
                    "indexed": true,
                    "internalType": "address"
                },
                {
                    "name": "toDelegate",
                    "type": "address",
                    "indexed": true,
                    "internalType": "address"
                }
            ],
            "anonymous": false
        },
        {
            "type": "event",
            "name": "DelegateVotesChanged",
            "inputs": [
                {
                    "name": "delegate",
                    "type": "address",
                    "indexed": true,
                    "internalType": "address"
                },
                {
                    "name": "previousVotes",
                    "type": "uint256",
                    "indexed": false,
                    "internalType": "uint256"
                },
                {
                    "name": "newVotes",
                    "type": "uint256",
                    "indexed": false,
                    "internalType": "uint256"
                }
            ],
            "anonymous": false
        },
        {
            "type": "event",
            "name": "EIP712DomainChanged",
            "inputs": [],
            "anonymous": false
        },
        {
            "type": "event",
            "name": "OwnershipTransferred",
            "inputs": [
                {
                    "name": "previousOwner",
                    "type": "address",
                    "indexed": true,
                    "internalType": "address"
                },
                {
                    "name": "newOwner",
                    "type": "address",
                    "indexed": true,
                    "internalType": "address"
                }
            ],
            "anonymous": false
        },
        {
            "type": "event",
            "name": "Transfer",
            "inputs": [
                {
                    "name": "from",
                    "type": "address",
                    "indexed": true,
                    "internalType": "address"
                },
                {
                    "name": "to",
                    "type": "address",
                    "indexed": true,
                    "internalType": "address"
                },
                {
                    "name": "value",
                    "type": "uint256",
                    "indexed": false,
                    "internalType": "uint256"
                }
            ],
            "anonymous": false
        },
        {
            "type": "error",
            "name": "CheckpointUnorderedInsertion",
            "inputs": []
        },
        {
            "type": "error",
            "name": "ECDSAInvalidSignature",
            "inputs": []
        },
        {
            "type": "error",
            "name": "ECDSAInvalidSignatureLength",
            "inputs": [
                {
                    "name": "length",
                    "type": "uint256",
                    "internalType": "uint256"
                }
            ]
        },
        {
            "type": "error",
            "name": "ECDSAInvalidSignatureS",
            "inputs": [
                {
                    "name": "s",
                    "type": "bytes32",
                    "internalType": "bytes32"
                }
            ]
        },
        {
            "type": "error",
            "name": "ERC20ExceededSafeSupply",
            "inputs": [
                {
                    "name": "increasedSupply",
                    "type": "uint256",
                    "internalType": "uint256"
                },
                {
                    "name": "cap",
                    "type": "uint256",
                    "internalType": "uint256"
                }
            ]
        },
        {
            "type": "error",
            "name": "ERC20InsufficientAllowance",
            "inputs": [
                {
                    "name": "spender",
                    "type": "address",
                    "internalType": "address"
                },
                {
                    "name": "allowance",
                    "type": "uint256",
                    "internalType": "uint256"
                },
                {
                    "name": "needed",
                    "type": "uint256",
                    "internalType": "uint256"
                }
            ]
        },
        {
            "type": "error",
            "name": "ERC20InsufficientBalance",
            "inputs": [
                {
                    "name": "sender",
                    "type": "address",
                    "internalType": "address"
                },
                {
                    "name": "balance",
                    "type": "uint256",
                    "internalType": "uint256"
                },
                {
                    "name": "needed",
                    "type": "uint256",
                    "internalType": "uint256"
                }
            ]
        },
        {
            "type": "error",
            "name": "ERC20InvalidApprover",
            "inputs": [
                {
                    "name": "approver",
                    "type": "address",
                    "internalType": "address"
                }
            ]
        },
        {
            "type": "error",
            "name": "ERC20InvalidReceiver",
            "inputs": [
                {
                    "name": "receiver",
                    "type": "address",
                    "internalType": "address"
                }
            ]
        },
        {
            "type": "error",
            "name": "ERC20InvalidSender",
            "inputs": [
                {
                    "name": "sender",
                    "type": "address",
                    "internalType": "address"
                }
            ]
        },
        {
            "type": "error",
            "name": "ERC20InvalidSpender",
            "inputs": [
                {
                    "name": "spender",
                    "type": "address",
                    "internalType": "address"
                }
            ]
        },
        {
            "type": "error",
            "name": "ERC2612ExpiredSignature",
            "inputs": [
                {
                    "name": "deadline",
                    "type": "uint256",
                    "internalType": "uint256"
                }
            ]
        },
        {
            "type": "error",
            "name": "ERC2612InvalidSigner",
            "inputs": [
                {
                    "name": "signer",
                    "type": "address",
                    "internalType": "address"
                },
                {
                    "name": "owner",
                    "type": "address",
                    "internalType": "address"
                }
            ]
        },
        {
            "type": "error",
            "name": "ERC5805FutureLookup",
            "inputs": [
                {
                    "name": "timepoint",
                    "type": "uint256",
                    "internalType": "uint256"
                },
                {
                    "name": "clock",
                    "type": "uint48",
                    "internalType": "uint48"
                }
            ]
        },
        {
            "type": "error",
            "name": "ERC6372InconsistentClock",
            "inputs": []
        },
        {
            "type": "error",
            "name": "InvalidAccountNonce",
            "inputs": [
                {
                    "name": "account",
                    "type": "address",
                    "internalType": "address"
                },
                {
                    "name": "currentNonce",
                    "type": "uint256",
                    "internalType": "uint256"
                }
            ]
        },
        {
            "type": "error",
            "name": "InvalidShortString",
            "inputs": []
        },
        {
            "type": "error",
            "name": "OwnableInvalidOwner",
            "inputs": [
                {
                    "name": "owner",
                    "type": "address",
                    "internalType": "address"
                }
            ]
        },
        {
            "type": "error",
            "name": "OwnableUnauthorizedAccount",
            "inputs": [
                {
                    "name": "account",
                    "type": "address",
                    "internalType": "address"
                }
            ]
        },
        {
            "type": "error",
            "name": "SafeCastOverflowedUintDowncast",
            "inputs": [
                {
                    "name": "bits",
                    "type": "uint8",
                    "internalType": "uint8"
                },
                {
                    "name": "value",
                    "type": "uint256",
                    "internalType": "uint256"
                }
            ]
        },
        {
            "type": "error",
            "name": "StringTooLong",
            "inputs": [
                {
                    "name": "str",
                    "type": "string",
                    "internalType": "string"
                }
            ]
        },
        {
            "type": "error",
            "name": "VotesExpiredSignature",
            "inputs": [
                {
                    "name": "expiry",
                    "type": "uint256",
                    "internalType": "uint256"
                }
            ]
        }
    ],
    "bytecode": {
        "object": "0x61016060405234801562000011575f80fd5b5060405162003591380380620035918339810160408190526200003491620009b4565b6040518060400160405280600e81526020016d2837b9b4ba34bb32902a37b5b2b760911b81525080604051806040016040528060018152602001603160f81b815250856040518060400160405280600e81526020016d2837b9b4ba34bb32902a37b5b2b760911b81525060405180604001604052806004815260200163504f534960e01b8152508160039081620000cc919062000a98565b506004620000db828262000a98565b5050506001600160a01b0381166200010d57604051631e4fbdf760e01b81525f60048201526024015b60405180910390fd5b62000118816200021a565b50620001268260066200026b565b61012052620001378160076200026b565b61014052815160208084019190912060e052815190820120610100524660a052620001c460e05161010051604080517f8b73c3c69bb8fe3d512ecc4cf759cc79239f7b179b0ffacaa9a75d522b39400f60208201529081019290925260608201524660808201523060a08201525f9060c00160405160208183030381529060405280519060200120905090565b60805250503060c05250620001f78260125b620001e390600a62000c71565b620001f1906103e862000c81565b620002a3565b62000204816012620001d6565b62000211836012620001d6565b50505062000d86565b600580546001600160a01b038381166001600160a01b0319831681179093556040519116919082907f8be0079c531659141344cd1fd0a4f28419497f9722a3daafe3b4186f6b6457e0905f90a35050565b5f6020835110156200028a576200028283620002df565b90506200029d565b8162000297848262000a98565b5060ff90505b92915050565b6001600160a01b038216620002ce5760405163ec442f0560e01b81525f600482015260240162000104565b620002db5f838362000321565b5050565b5f80829050601f815111156200030c578260405163305a27a960e01b815260040162000104919062000c9b565b8051620003198262000ce9565b179392505050565b6200032e83838362000333565b505050565b62000340838383620003a1565b6001600160a01b03831662000394575f6200035a60025490565b90506001600160d01b03808211156200039157604051630e58ae9360e11b8152600481018390526024810182905260440162000104565b50505b6200032e838383620004d0565b6001600160a01b038316620003cf578060025f828254620003c3919062000d0d565b90915550620004419050565b6001600160a01b0383165f9081526020819052604090205481811015620004235760405163391434e360e21b81526001600160a01b0385166004820152602481018290526044810183905260640162000104565b6001600160a01b0384165f9081526020819052604090209082900390555b6001600160a01b0382166200045f576002805482900390556200047d565b6001600160a01b0382165f9081526020819052604090208054820190555b816001600160a01b0316836001600160a01b03167fddf252ad1be2c89b69c2b068fc378daa952ba7f163c4a11628f55a4df523b3ef83604051620004c391815260200190565b60405180910390a3505050565b6001600160a01b038316620005055762000502600b62000b9b6200056760201b17620004fc846200057b565b620005b4565b50505b6001600160a01b038216620005345762000531600b62000ba6620005f060201b17620004fc846200057b565b50505b6001600160a01b038381165f908152600960205260408082205485841683529120546200032e92918216911683620005fd565b5f62000574828462000d23565b9392505050565b5f6001600160d01b03821115620005b0576040516306dfcc6560e41b815260d060048201526024810183905260440162000104565b5090565b5f80620005e3620005c46200075f565b620005da620005d3886200076f565b868860201c565b879190620007bb565b915091505b935093915050565b5f62000574828462000d4d565b816001600160a01b0316836001600160a01b0316141580156200061f57505f81115b156200032e576001600160a01b03831615620006c0576001600160a01b0383165f908152600a60209081526040822082916200066c9190620005f0901b62000ba617620004fc866200057b565b6001600160d01b031691506001600160d01b03169150846001600160a01b03165f80516020620035718339815191528383604051620006b5929190918252602082015260400190565b60405180910390a250505b6001600160a01b038216156200032e576001600160a01b0382165f908152600a602090815260408220829162000707919062000567901b62000b9b17620004fc866200057b565b6001600160d01b031691506001600160d01b03169150836001600160a01b03165f8051602062003571833981519152838360405162000750929190918252602082015260400190565b60405180910390a25050505050565b5f6200076a620007ca565b905090565b80545f908015620007b35762000799836200078c60018462000d70565b5f91825260209091200190565b54660100000000000090046001600160d01b031662000574565b5f9392505050565b5f80620005e3858585620007d6565b5f6200076a4362000964565b82545f908190801562000906575f620007f6876200078c60018562000d70565b60408051808201909152905465ffffffffffff80821680845266010000000000009092046001600160d01b0316602084015291925090871610156200084e57604051632520601d60e01b815260040160405180910390fd5b805165ffffffffffff808816911603620008a2578462000875886200078c60018662000d70565b80546001600160d01b039290921666010000000000000265ffffffffffff909216919091179055620008f5565b6040805180820190915265ffffffffffff80881682526001600160d01b0380881660208085019182528b54600181018d555f8d815291909120945191519092166601000000000000029216919091179101555b602001519250839150620005e89050565b50506040805180820190915265ffffffffffff80851682526001600160d01b0380851660208085019182528854600181018a555f8a8152918220955192519093166601000000000000029190931617920191909155905081620005e8565b5f65ffffffffffff821115620005b0576040516306dfcc6560e41b8152603060048201526024810183905260440162000104565b80516001600160a01b0381168114620009af575f80fd5b919050565b5f805f60608486031215620009c7575f80fd5b620009d28462000998565b9250620009e26020850162000998565b9150620009f26040850162000998565b90509250925092565b634e487b7160e01b5f52604160045260245ffd5b600181811c9082168062000a2457607f821691505b60208210810362000a4357634e487b7160e01b5f52602260045260245ffd5b50919050565b601f8211156200032e57805f5260205f20601f840160051c8101602085101562000a705750805b601f840160051c820191505b8181101562000a91575f815560010162000a7c565b5050505050565b81516001600160401b0381111562000ab45762000ab4620009fb565b62000acc8162000ac5845462000a0f565b8462000a49565b602080601f83116001811462000b02575f841562000aea5750858301515b5f19600386901b1c1916600185901b17855562000b5c565b5f85815260208120601f198616915b8281101562000b325788860151825594840194600190910190840162000b11565b508582101562000b5057878501515f19600388901b60f8161c191681555b505060018460011b0185555b505050505050565b634e487b7160e01b5f52601160045260245ffd5b600181815b8085111562000bb857815f190482111562000b9c5762000b9c62000b64565b8085161562000baa57918102915b93841c939080029062000b7d565b509250929050565b5f8262000bd0575060016200029d565b8162000bde57505f6200029d565b816001811462000bf7576002811462000c025762000c22565b60019150506200029d565b60ff84111562000c165762000c1662000b64565b50506001821b6200029d565b5060208310610133831016604e8410600b841016171562000c47575081810a6200029d565b62000c53838362000b78565b805f190482111562000c695762000c6962000b64565b029392505050565b5f6200057460ff84168362000bc0565b80820281158282048414176200029d576200029d62000b64565b5f602080835283518060208501525f5b8181101562000cc95785810183015185820160400152820162000cab565b505f604082860101526040601f19601f8301168501019250505092915050565b8051602080830151919081101562000a43575f1960209190910360031b1b16919050565b808201808211156200029d576200029d62000b64565b6001600160d01b0381811683821601908082111562000d465762000d4662000b64565b5092915050565b6001600160d01b0382811682821603908082111562000d465762000d4662000b64565b818103818111156200029d576200029d62000b64565b60805160a05160c05160e05161010051610120516101405161279962000dd85f395f6111d301525f6111a601525f610e1f01525f610df701525f610d5201525f610d7c01525f610da601526127995ff3fe608060405234801561000f575f80fd5b50600436106101b0575f3560e01c8063715018a6116100f35780639ab24eb011610093578063d505accf1161006e578063d505accf146103f5578063dd62ed3e14610408578063f1127ed81461044d578063f2fde38b1461049f575f80fd5b80639ab24eb0146103bc578063a9059cbb146103cf578063c3cda520146103e2575f80fd5b80638da5cb5b116100ce5780638da5cb5b146103645780638e539e8c1461038257806391ddadf41461039557806395d89b41146103b4575f80fd5b8063715018a61461032e5780637ecebe001461033657806384b0196e14610349575f80fd5b80633a46b1a81161015e578063587cde1e11610139578063587cde1e146102615780635c19a95c146102be5780636fcfff45146102d157806370a08231146102f9575f80fd5b80633a46b1a81461023157806340c10f19146102445780634bf5d7e914610259575f80fd5b806323b872dd1161018e57806323b872dd14610207578063313ce5671461021a5780633644e51514610229575f80fd5b806306fdde03146101b4578063095ea7b3146101d257806318160ddd146101f5575b5f80fd5b6101bc6104b2565b6040516101c991906122d1565b60405180910390f35b6101e56101e036600461230b565b610542565b60405190151581526020016101c9565b6002545b6040519081526020016101c9565b6101e5610215366004612333565b61055b565b604051601281526020016101c9565b6101f961057e565b6101f961023f36600461230b565b61058c565b61025761025236600461230b565b610649565b005b6101bc61065f565b61029961026f36600461236c565b73ffffffffffffffffffffffffffffffffffffffff9081165f908152600960205260409020541690565b60405173ffffffffffffffffffffffffffffffffffffffff90911681526020016101c9565b6102576102cc36600461236c565b6106f0565b6102e46102df36600461236c565b6106fb565b60405163ffffffff90911681526020016101c9565b6101f961030736600461236c565b73ffffffffffffffffffffffffffffffffffffffff165f9081526020819052604090205490565b610257610705565b6101f961034436600461236c565b610718565b610351610722565b6040516101c99796959493929190612385565b60055473ffffffffffffffffffffffffffffffffffffffff16610299565b6101f9610390366004612445565b610780565b61039d610815565b60405165ffffffffffff90911681526020016101c9565b6101bc61081e565b6101f96103ca36600461236c565b61082d565b6101e56103dd36600461230b565b61087c565b6102576103f036600461246c565b610889565b6102576104033660046124c0565b61096b565b6101f9610416366004612525565b73ffffffffffffffffffffffffffffffffffffffff9182165f90815260016020908152604080832093909416825291909152205490565b61046061045b366004612556565b610b14565b60408051825165ffffffffffff16815260209283015179ffffffffffffffffffffffffffffffffffffffffffffffffffff1692810192909252016101c9565b6102576104ad36600461236c565b610b38565b6060600380546104c190612593565b80601f01602080910402602001604051908101604052809291908181526020018280546104ed90612593565b80156105385780601f1061050f57610100808354040283529160200191610538565b820191905f5260205f20905b81548152906001019060200180831161051b57829003601f168201915b5050505050905090565b5f3361054f818585610bb1565b60019150505b92915050565b5f33610568858285610bc3565b610573858585610c90565b506001949350505050565b5f610587610d39565b905090565b5f80610596610815565b90508065ffffffffffff1683106105ef576040517fecd3f81e0000000000000000000000000000000000000000000000000000000081526004810184905265ffffffffffff821660248201526044015b60405180910390fd5b6106256105fb84610e6f565b73ffffffffffffffffffffffffffffffffffffffff86165f908152600a6020526040902090610ebe565b79ffffffffffffffffffffffffffffffffffffffffffffffffffff16949350505050565b610651610f84565b61065b8282610fd7565b5050565b6060610669611031565b65ffffffffffff16610679610815565b65ffffffffffff16146106b8576040517f6ff0714000000000000000000000000000000000000000000000000000000000815260040160405180910390fd5b5060408051808201909152601d81527f6d6f64653d626c6f636b6e756d6265722666726f6d3d64656661756c74000000602082015290565b3361065b818361103b565b5f610555826110d1565b61070d610f84565b6107165f6110ff565b565b5f61055582611175565b5f6060805f805f606061073361119f565b61073b6111cc565b604080515f808252602082019092527f0f000000000000000000000000000000000000000000000000000000000000009b939a50919850469750309650945092509050565b5f8061078a610815565b90508065ffffffffffff1683106107de576040517fecd3f81e0000000000000000000000000000000000000000000000000000000081526004810184905265ffffffffffff821660248201526044016105e6565b6107f26107ea84610e6f565b600b90610ebe565b79ffffffffffffffffffffffffffffffffffffffffffffffffffff169392505050565b5f610587611031565b6060600480546104c190612593565b73ffffffffffffffffffffffffffffffffffffffff81165f908152600a6020526040812061085a906111f9565b79ffffffffffffffffffffffffffffffffffffffffffffffffffff1692915050565b5f3361054f818585610c90565b834211156108c6576040517f4683af0e000000000000000000000000000000000000000000000000000000008152600481018590526024016105e6565b604080517fe48329057bfd03d55e49b547132e39cffd9c1820ad7b9d4c5307691425d15adf602082015273ffffffffffffffffffffffffffffffffffffffff88169181019190915260608101869052608081018590525f9061094c906109449060a00160405160208183030381529060405280519060200120611246565b85858561128d565b905061095881876112b9565b610962818861103b565b50505050505050565b834211156109a8576040517f62791302000000000000000000000000000000000000000000000000000000008152600481018590526024016105e6565b5f7f6e71edae12b1b97f4d1f60370fef10105fa2faae0126114a169c64845d6126c9888888610a008c73ffffffffffffffffffffffffffffffffffffffff165f90815260086020526040902080546001810190915590565b60408051602081019690965273ffffffffffffffffffffffffffffffffffffffff94851690860152929091166060840152608083015260a082015260c0810186905260e0016040516020818303038152906040528051906020012090505f610a6782611246565b90505f610a768287878761128d565b90508973ffffffffffffffffffffffffffffffffffffffff168173ffffffffffffffffffffffffffffffffffffffff1614610afd576040517f4b800e4600000000000000000000000000000000000000000000000000000000815273ffffffffffffffffffffffffffffffffffffffff80831660048301528b1660248201526044016105e6565b610b088a8a8a610bb1565b50505050505050505050565b604080518082019091525f8082526020820152610b31838361133e565b9392505050565b610b40610f84565b73ffffffffffffffffffffffffffffffffffffffff8116610b8f576040517f1e4fbdf70000000000000000000000000000000000000000000000000000000081525f60048201526024016105e6565b610b98816110ff565b50565b5f610b318284612611565b5f610b31828461264b565b610bbe838383600161137f565b505050565b73ffffffffffffffffffffffffffffffffffffffff8381165f908152600160209081526040808320938616835292905220547fffffffffffffffffffffffffffffffffffffffffffffffffffffffffffffffff8114610c8a5781811015610c7c576040517ffb8f41b200000000000000000000000000000000000000000000000000000000815273ffffffffffffffffffffffffffffffffffffffff8416600482015260248101829052604481018390526064016105e6565b610c8a84848484035f61137f565b50505050565b73ffffffffffffffffffffffffffffffffffffffff8316610cdf576040517f96c6fd1e0000000000000000000000000000000000000000000000000000000081525f60048201526024016105e6565b73ffffffffffffffffffffffffffffffffffffffff8216610d2e576040517fec442f050000000000000000000000000000000000000000000000000000000081525f60048201526024016105e6565b610bbe8383836114c4565b5f3073ffffffffffffffffffffffffffffffffffffffff7f000000000000000000000000000000000000000000000000000000000000000016148015610d9e57507f000000000000000000000000000000000000000000000000000000000000000046145b15610dc857507f000000000000000000000000000000000000000000000000000000000000000090565b610587604080517f8b73c3c69bb8fe3d512ecc4cf759cc79239f7b179b0ffacaa9a75d522b39400f60208201527f0000000000000000000000000000000000000000000000000000000000000000918101919091527f000000000000000000000000000000000000000000000000000000000000000060608201524660808201523060a08201525f9060c00160405160208183030381529060405280519060200120905090565b5f65ffffffffffff821115610eba576040517f6dfcc65000000000000000000000000000000000000000000000000000000000815260306004820152602481018390526044016105e6565b5090565b81545f9081816005811115610f1a575f610ed7846114cf565b610ee1908561267e565b5f8881526020902090915081015465ffffffffffff9081169087161015610f0a57809150610f18565b610f15816001612691565b92505b505b5f610f27878785856115b3565b90508015610f7757610f4b87610f3e60018461267e565b5f91825260209091200190565b546601000000000000900479ffffffffffffffffffffffffffffffffffffffffffffffffffff16610f79565b5f5b979650505050505050565b60055473ffffffffffffffffffffffffffffffffffffffff163314610716576040517f118cdaa70000000000000000000000000000000000000000000000000000000081523360048201526024016105e6565b73ffffffffffffffffffffffffffffffffffffffff8216611026576040517fec442f050000000000000000000000000000000000000000000000000000000081525f60048201526024016105e6565b61065b5f83836114c4565b5f61058743610e6f565b73ffffffffffffffffffffffffffffffffffffffff8281165f8181526009602052604080822080548686167fffffffffffffffffffffffff0000000000000000000000000000000000000000821681179092559151919094169392849290917f3134e8a2e6d97e929a7e54011ea5485d7d196dd5f0ba4d4ef95803e8e3fc257f9190a4610bbe81836110cc86611612565b61163c565b73ffffffffffffffffffffffffffffffffffffffff81165f908152600a602052604081205461055590611859565b6005805473ffffffffffffffffffffffffffffffffffffffff8381167fffffffffffffffffffffffff0000000000000000000000000000000000000000831681179093556040519116919082907f8be0079c531659141344cd1fd0a4f28419497f9722a3daafe3b4186f6b6457e0905f90a35050565b73ffffffffffffffffffffffffffffffffffffffff81165f90815260086020526040812054610555565b60606105877f000000000000000000000000000000000000000000000000000000000000000060066118a2565b60606105877f000000000000000000000000000000000000000000000000000000000000000060076118a2565b80545f90801561123e5761121283610f3e60018461267e565b546601000000000000900479ffffffffffffffffffffffffffffffffffffffffffffffffffff16610b31565b5f9392505050565b5f610555611252610d39565b836040517f19010000000000000000000000000000000000000000000000000000000000008152600281019290925260228201526042902090565b5f805f8061129d8888888861194b565b9250925092506112ad8282611a3e565b50909695505050505050565b73ffffffffffffffffffffffffffffffffffffffff82165f908152600860205260409020805460018101909155818114610bbe576040517f752d88c000000000000000000000000000000000000000000000000000000000815273ffffffffffffffffffffffffffffffffffffffff84166004820152602481018290526044016105e6565b604080518082019091525f808252602082015273ffffffffffffffffffffffffffffffffffffffff83165f908152600a60205260409020610b319083611b41565b73ffffffffffffffffffffffffffffffffffffffff84166113ce576040517fe602df050000000000000000000000000000000000000000000000000000000081525f60048201526024016105e6565b73ffffffffffffffffffffffffffffffffffffffff831661141d576040517f94280d620000000000000000000000000000000000000000000000000000000081525f60048201526024016105e6565b73ffffffffffffffffffffffffffffffffffffffff8085165f9081526001602090815260408083209387168352929052208290558015610c8a578273ffffffffffffffffffffffffffffffffffffffff168473ffffffffffffffffffffffffffffffffffffffff167f8c5be1e5ebec7d5bd14f71427d1e84f3dd0314c0f7b2291e5b200ac8c7c3b925846040516114b691815260200190565b60405180910390a350505050565b610bbe838383611bc4565b5f815f036114de57505f919050565b5f60016114ea84611c63565b901c6001901b90506001818481611503576115036126a4565b048201901c9050600181848161151b5761151b6126a4565b048201901c90506001818481611533576115336126a4565b048201901c9050600181848161154b5761154b6126a4565b048201901c90506001818481611563576115636126a4565b048201901c9050600181848161157b5761157b6126a4565b048201901c90506001818481611593576115936126a4565b048201901c9050610b31818285816115ad576115ad6126a4565b04611cf6565b5f5b8183101561160a575f6115c88484611d0b565b5f8781526020902090915065ffffffffffff86169082015465ffffffffffff1611156115f657809250611604565b611601816001612691565b93505b506115b5565b509392505050565b73ffffffffffffffffffffffffffffffffffffffff81165f90815260208190526040812054610555565b8173ffffffffffffffffffffffffffffffffffffffff168373ffffffffffffffffffffffffffffffffffffffff161415801561167757505f81115b15610bbe5773ffffffffffffffffffffffffffffffffffffffff83161561176b5773ffffffffffffffffffffffffffffffffffffffff83165f908152600a6020526040812081906116d390610ba66116ce86611d25565b611d84565b79ffffffffffffffffffffffffffffffffffffffffffffffffffff16915079ffffffffffffffffffffffffffffffffffffffffffffffffffff1691508473ffffffffffffffffffffffffffffffffffffffff167fdec2bacdd2f05b59de34da9b523dff8be42e5e38e818c82fdb0bae774387a7248383604051611760929190918252602082015260400190565b60405180910390a250505b73ffffffffffffffffffffffffffffffffffffffff821615610bbe5773ffffffffffffffffffffffffffffffffffffffff82165f908152600a6020526040812081906117bd90610b9b6116ce86611d25565b79ffffffffffffffffffffffffffffffffffffffffffffffffffff16915079ffffffffffffffffffffffffffffffffffffffffffffffffffff1691508373ffffffffffffffffffffffffffffffffffffffff167fdec2bacdd2f05b59de34da9b523dff8be42e5e38e818c82fdb0bae774387a724838360405161184a929190918252602082015260400190565b60405180910390a25050505050565b5f63ffffffff821115610eba576040517f6dfcc65000000000000000000000000000000000000000000000000000000000815260206004820152602481018390526044016105e6565b606060ff83146118bc576118b583611dbc565b9050610555565b8180546118c890612593565b80601f01602080910402602001604051908101604052809291908181526020018280546118f490612593565b801561193f5780601f106119165761010080835404028352916020019161193f565b820191905f5260205f20905b81548152906001019060200180831161192257829003601f168201915b50505050509050610555565b5f80807f7fffffffffffffffffffffffffffffff5d576e7357a4501ddfe92f46681b20a084111561198457505f91506003905082611a34565b604080515f808252602082018084528a905260ff891692820192909252606081018790526080810186905260019060a0016020604051602081039080840390855afa1580156119d5573d5f803e3d5ffd5b50506040517fffffffffffffffffffffffffffffffffffffffffffffffffffffffffffffffe0015191505073ffffffffffffffffffffffffffffffffffffffff8116611a2b57505f925060019150829050611a34565b92505f91508190505b9450945094915050565b5f826003811115611a5157611a516126d1565b03611a5a575050565b6001826003811115611a6e57611a6e6126d1565b03611aa5576040517ff645eedf00000000000000000000000000000000000000000000000000000000815260040160405180910390fd5b6002826003811115611ab957611ab96126d1565b03611af3576040517ffce698f7000000000000000000000000000000000000000000000000000000008152600481018290526024016105e6565b6003826003811115611b0757611b076126d1565b0361065b576040517fd78bce0c000000000000000000000000000000000000000000000000000000008152600481018290526024016105e6565b604080518082019091525f8082526020820152825f018263ffffffff1681548110611b6e57611b6e6126fe565b5f9182526020918290206040805180820190915291015465ffffffffffff811682526601000000000000900479ffffffffffffffffffffffffffffffffffffffffffffffffffff16918101919091529392505050565b611bcf838383611df9565b73ffffffffffffffffffffffffffffffffffffffff8316611c58575f611bf460025490565b905079ffffffffffffffffffffffffffffffffffffffffffffffffffff80821115611c55576040517f1cb15d2600000000000000000000000000000000000000000000000000000000815260048101839052602481018290526044016105e6565b50505b610bbe838383611fa0565b5f80608083901c15611c7757608092831c92015b604083901c15611c8957604092831c92015b602083901c15611c9b57602092831c92015b601083901c15611cad57601092831c92015b600883901c15611cbf57600892831c92015b600483901c15611cd157600492831c92015b600283901c15611ce357600292831c92015b600183901c156105555760010192915050565b5f818310611d045781610b31565b5090919050565b5f611d19600284841861272b565b610b3190848416612691565b5f79ffffffffffffffffffffffffffffffffffffffffffffffffffff821115610eba576040517f6dfcc65000000000000000000000000000000000000000000000000000000000815260d06004820152602481018390526044016105e6565b5f80611daf611d91610815565b611da7611d9d886111f9565b868863ffffffff16565b87919061203c565b915091505b935093915050565b60605f611dc883612049565b6040805160208082528183019092529192505f91906020820181803683375050509182525060208101929092525090565b73ffffffffffffffffffffffffffffffffffffffff8316611e30578060025f828254611e259190612691565b90915550611ee09050565b73ffffffffffffffffffffffffffffffffffffffff83165f9081526020819052604090205481811015611eb5576040517fe450d38c00000000000000000000000000000000000000000000000000000000815273ffffffffffffffffffffffffffffffffffffffff8516600482015260248101829052604481018390526064016105e6565b73ffffffffffffffffffffffffffffffffffffffff84165f9081526020819052604090209082900390555b73ffffffffffffffffffffffffffffffffffffffff8216611f0957600280548290039055611f34565b73ffffffffffffffffffffffffffffffffffffffff82165f9081526020819052604090208054820190555b8173ffffffffffffffffffffffffffffffffffffffff168373ffffffffffffffffffffffffffffffffffffffff167fddf252ad1be2c89b69c2b068fc378daa952ba7f163c4a11628f55a4df523b3ef83604051611f9391815260200190565b60405180910390a3505050565b73ffffffffffffffffffffffffffffffffffffffff8316611fcf57611fcc600b610b9b6116ce84611d25565b50505b73ffffffffffffffffffffffffffffffffffffffff8216611ffe57611ffb600b610ba66116ce84611d25565b50505b73ffffffffffffffffffffffffffffffffffffffff8381165f90815260096020526040808220548584168352912054610bbe9291821691168361163c565b5f80611daf858585612089565b5f60ff8216601f811115610555576040517fb3512b0c00000000000000000000000000000000000000000000000000000000815260040160405180910390fd5b82545f9081908015612200575f6120a587610f3e60018561267e565b60408051808201909152905465ffffffffffff808216808452660100000000000090920479ffffffffffffffffffffffffffffffffffffffffffffffffffff1660208401529192509087161015612128576040517f2520601d00000000000000000000000000000000000000000000000000000000815260040160405180910390fd5b805165ffffffffffff80881691160361218a578461214b88610f3e60018661267e565b805479ffffffffffffffffffffffffffffffffffffffffffffffffffff9290921666010000000000000265ffffffffffff9092169190911790556121f0565b6040805180820190915265ffffffffffff808816825279ffffffffffffffffffffffffffffffffffffffffffffffffffff80881660208085019182528b54600181018d555f8d815291909120945191519092166601000000000000029216919091179101555b602001519250839150611db49050565b50506040805180820190915265ffffffffffff808516825279ffffffffffffffffffffffffffffffffffffffffffffffffffff80851660208085019182528854600181018a555f8a8152918220955192519093166601000000000000029190931617920191909155905081611db4565b5f81518084525f5b8181101561229457602081850181015186830182015201612278565b505f6020828601015260207fffffffffffffffffffffffffffffffffffffffffffffffffffffffffffffffe0601f83011685010191505092915050565b602081525f610b316020830184612270565b803573ffffffffffffffffffffffffffffffffffffffff81168114612306575f80fd5b919050565b5f806040838503121561231c575f80fd5b612325836122e3565b946020939093013593505050565b5f805f60608486031215612345575f80fd5b61234e846122e3565b925061235c602085016122e3565b9150604084013590509250925092565b5f6020828403121561237c575f80fd5b610b31826122e3565b7fff00000000000000000000000000000000000000000000000000000000000000881681525f602060e060208401526123c160e084018a612270565b83810360408501526123d3818a612270565b6060850189905273ffffffffffffffffffffffffffffffffffffffff8816608086015260a0850187905284810360c0860152855180825260208088019350909101905f5b8181101561243357835183529284019291840191600101612417565b50909c9b505050505050505050505050565b5f60208284031215612455575f80fd5b5035919050565b803560ff81168114612306575f80fd5b5f805f805f8060c08789031215612481575f80fd5b61248a876122e3565b955060208701359450604087013593506124a66060880161245c565b92506080870135915060a087013590509295509295509295565b5f805f805f805f60e0888a0312156124d6575f80fd5b6124df886122e3565b96506124ed602089016122e3565b955060408801359450606088013593506125096080890161245c565b925060a0880135915060c0880135905092959891949750929550565b5f8060408385031215612536575f80fd5b61253f836122e3565b915061254d602084016122e3565b90509250929050565b5f8060408385031215612567575f80fd5b612570836122e3565b9150602083013563ffffffff81168114612588575f80fd5b809150509250929050565b600181811c908216806125a757607f821691505b6020821081036125de577f4e487b71000000000000000000000000000000000000000000000000000000005f52602260045260245ffd5b50919050565b7f4e487b71000000000000000000000000000000000000000000000000000000005f52601160045260245ffd5b79ffffffffffffffffffffffffffffffffffffffffffffffffffff818116838216019080821115612644576126446125e4565b5092915050565b79ffffffffffffffffffffffffffffffffffffffffffffffffffff828116828216039080821115612644576126446125e4565b81810381811115610555576105556125e4565b80820180821115610555576105556125e4565b7f4e487b71000000000000000000000000000000000000000000000000000000005f52601260045260245ffd5b7f4e487b71000000000000000000000000000000000000000000000000000000005f52602160045260245ffd5b7f4e487b71000000000000000000000000000000000000000000000000000000005f52603260045260245ffd5b5f8261275e577f4e487b71000000000000000000000000000000000000000000000000000000005f52601260045260245ffd5b50049056fea2646970667358221220e0a8965e7bacddde51400fbd2d5e4aa4cb5a491ecb76a0e323f0185cc848c75064736f6c63430008180033dec2bacdd2f05b59de34da9b523dff8be42e5e38e818c82fdb0bae774387a724",
        "linkReferences": {}
    },
    "methodIdentifiers": {
        "CLOCK_MODE()": "4bf5d7e9",
        "DOMAIN_SEPARATOR()": "3644e515",
        "allowance(address,address)": "dd62ed3e",
        "approve(address,uint256)": "095ea7b3",
        "balanceOf(address)": "70a08231",
        "checkpoints(address,uint32)": "f1127ed8",
        "clock()": "91ddadf4",
        "decimals()": "313ce567",
        "delegate(address)": "5c19a95c",
        "delegateBySig(address,uint256,uint256,uint8,bytes32,bytes32)": "c3cda520",
        "delegates(address)": "587cde1e",
        "eip712Domain()": "84b0196e",
        "getPastTotalSupply(uint256)": "8e539e8c",
        "getPastVotes(address,uint256)": "3a46b1a8",
        "getVotes(address)": "9ab24eb0",
        "mint(address,uint256)": "40c10f19",
        "name()": "06fdde03",
        "nonces(address)": "7ecebe00",
        "numCheckpoints(address)": "6fcfff45",
        "owner()": "8da5cb5b",
        "permit(address,address,uint256,uint256,uint8,bytes32,bytes32)": "d505accf",
        "renounceOwnership()": "715018a6",
        "symbol()": "95d89b41",
        "totalSupply()": "18160ddd",
        "transfer(address,uint256)": "a9059cbb",
        "transferFrom(address,address,uint256)": "23b872dd",
        "transferOwnership(address)": "f2fde38b"
    },
    "id": 87
}