{
    "abi": [
        {
            "type": "constructor",
            "inputs": [
                {
                    "name": "_owner",
                    "type": "address",
                    "internalType": "address"
                }
            ],
            "stateMutability": "nonpayable"
        },
        {
            "type": "function",
            "name": "addMerchant",
            "inputs": [
                {
                    "name": "_merchant",
                    "type": "address",
                    "internalType": "address"
                }
            ],
            "outputs": [],
            "stateMutability": "nonpayable"
        },
        {
            "type": "function",
            "name": "admins",
            "inputs": [
                {
                    "name": "",
                    "type": "address",
                    "internalType": "address"
                }
            ],
            "outputs": [
                {
                    "name": "",
                    "type": "bool",
                    "internalType": "bool"
                }
            ],
            "stateMutability": "view"
        },
        {
            "type": "function",
            "name": "allowance",
            "inputs": [
                {
                    "name": "owner",
                    "type": "address",
                    "internalType": "address"
                },
                {
                    "name": "spender",
                    "type": "address",
                    "internalType": "address"
                }
            ],
            "outputs": [
                {
                    "name": "",
                    "type": "uint256",
                    "internalType": "uint256"
                }
            ],
            "stateMutability": "view"
        },
        {
            "type": "function",
            "name": "approve",
            "inputs": [
                {
                    "name": "spender",
                    "type": "address",
                    "internalType": "address"
                },
                {
                    "name": "value",
                    "type": "uint256",
                    "internalType": "uint256"
                }
            ],
            "outputs": [
                {
                    "name": "",
                    "type": "bool",
                    "internalType": "bool"
                }
            ],
            "stateMutability": "nonpayable"
        },
        {
            "type": "function",
            "name": "auctions",
            "inputs": [
                {
                    "name": "",
                    "type": "bytes32",
                    "internalType": "bytes32"
                }
            ],
            "outputs": [
                {
                    "name": "highest",
                    "type": "uint256",
                    "internalType": "uint256"
                },
                {
                    "name": "highestBidder",
                    "type": "address",
                    "internalType": "address"
                }
            ],
            "stateMutability": "view"
        },
        {
            "type": "function",
            "name": "balanceOf",
            "inputs": [
                {
                    "name": "account",
                    "type": "address",
                    "internalType": "address"
                }
            ],
            "outputs": [
                {
                    "name": "",
                    "type": "uint256",
                    "internalType": "uint256"
                }
            ],
            "stateMutability": "view"
        },
        {
            "type": "function",
            "name": "bidIncrement",
            "inputs": [],
            "outputs": [
                {
                    "name": "",
                    "type": "uint256",
                    "internalType": "uint256"
                }
            ],
            "stateMutability": "view"
        },
        {
            "type": "function",
            "name": "burn",
            "inputs": [
                {
                    "name": "_amount",
                    "type": "uint256",
                    "internalType": "uint256"
                }
            ],
            "outputs": [],
            "stateMutability": "nonpayable"
        },
        {
            "type": "function",
            "name": "buy",
            "inputs": [
                {
                    "name": "_merchID",
                    "type": "uint16",
                    "internalType": "uint16"
                },
                {
                    "name": "_price",
                    "type": "uint256",
                    "internalType": "uint256"
                }
            ],
            "outputs": [],
            "stateMutability": "nonpayable"
        },
        {
            "type": "function",
            "name": "calculate",
            "inputs": [
                {
                    "name": "amount",
                    "type": "uint256",
                    "internalType": "uint256"
                },
                {
                    "name": "bps",
                    "type": "uint256",
                    "internalType": "uint256"
                }
            ],
            "outputs": [
                {
                    "name": "",
                    "type": "uint256",
                    "internalType": "uint256"
                }
            ],
            "stateMutability": "pure"
        },
        {
            "type": "function",
            "name": "canceled",
            "inputs": [],
            "outputs": [
                {
                    "name": "",
                    "type": "bool",
                    "internalType": "bool"
                }
            ],
            "stateMutability": "view"
        },
        {
            "type": "function",
            "name": "decimals",
            "inputs": [],
            "outputs": [
                {
                    "name": "",
                    "type": "uint8",
                    "internalType": "uint8"
                }
            ],
            "stateMutability": "pure"
        },
        {
            "type": "function",
            "name": "getHighestBid",
            "inputs": [
                {
                    "name": "auctionId",
                    "type": "bytes32",
                    "internalType": "bytes32"
                }
            ],
            "outputs": [
                {
                    "name": "",
                    "type": "uint256",
                    "internalType": "uint256"
                }
            ],
            "stateMutability": "view"
        },
        {
            "type": "function",
            "name": "highestBidder",
            "inputs": [],
            "outputs": [
                {
                    "name": "",
                    "type": "address",
                    "internalType": "address"
                }
            ],
            "stateMutability": "view"
        },
        {
            "type": "function",
            "name": "highestBindingBid",
            "inputs": [],
            "outputs": [
                {
                    "name": "",
                    "type": "uint256",
                    "internalType": "uint256"
                }
            ],
            "stateMutability": "view"
        },
        {
            "type": "function",
            "name": "merchants",
            "inputs": [
                {
                    "name": "",
                    "type": "address",
                    "internalType": "address"
                }
            ],
            "outputs": [
                {
                    "name": "",
                    "type": "bool",
                    "internalType": "bool"
                }
            ],
            "stateMutability": "view"
        },
        {
            "type": "function",
            "name": "mint",
            "inputs": [
                {
                    "name": "_to",
                    "type": "address",
                    "internalType": "address"
                },
                {
                    "name": "_amount",
                    "type": "uint256",
                    "internalType": "uint256"
                }
            ],
            "outputs": [],
            "stateMutability": "nonpayable"
        },
        {
            "type": "function",
            "name": "name",
            "inputs": [],
            "outputs": [
                {
                    "name": "",
                    "type": "string",
                    "internalType": "string"
                }
            ],
            "stateMutability": "view"
        },
        {
            "type": "function",
            "name": "owner",
            "inputs": [],
            "outputs": [
                {
                    "name": "",
                    "type": "address",
                    "internalType": "address"
                }
            ],
            "stateMutability": "view"
        },
        {
            "type": "function",
            "name": "setAdmin",
            "inputs": [
                {
                    "name": "_admin",
                    "type": "address",
                    "internalType": "address"
                }
            ],
            "outputs": [],
            "stateMutability": "nonpayable"
        },
        {
            "type": "function",
            "name": "symbol",
            "inputs": [],
            "outputs": [
                {
                    "name": "",
                    "type": "string",
                    "internalType": "string"
                }
            ],
            "stateMutability": "view"
        },
        {
            "type": "function",
            "name": "totalSupply",
            "inputs": [],
            "outputs": [
                {
                    "name": "",
                    "type": "uint256",
                    "internalType": "uint256"
                }
            ],
            "stateMutability": "view"
        },
        {
            "type": "function",
            "name": "transfer",
            "inputs": [
                {
                    "name": "to",
                    "type": "address",
                    "internalType": "address"
                },
                {
                    "name": "amount",
                    "type": "uint256",
                    "internalType": "uint256"
                }
            ],
            "outputs": [
                {
                    "name": "",
                    "type": "bool",
                    "internalType": "bool"
                }
            ],
            "stateMutability": "nonpayable"
        },
        {
            "type": "function",
            "name": "transferFrom",
            "inputs": [
                {
                    "name": "from",
                    "type": "address",
                    "internalType": "address"
                },
                {
                    "name": "to",
                    "type": "address",
                    "internalType": "address"
                },
                {
                    "name": "value",
                    "type": "uint256",
                    "internalType": "uint256"
                }
            ],
            "outputs": [
                {
                    "name": "",
                    "type": "bool",
                    "internalType": "bool"
                }
            ],
            "stateMutability": "nonpayable"
        },
        {
            "type": "event",
            "name": "Approval",
            "inputs": [
                {
                    "name": "owner",
                    "type": "address",
                    "indexed": true,
                    "internalType": "address"
                },
                {
                    "name": "spender",
                    "type": "address",
                    "indexed": true,
                    "internalType": "address"
                },
                {
                    "name": "value",
                    "type": "uint256",
                    "indexed": false,
                    "internalType": "uint256"
                }
            ],
            "anonymous": false
        },
        {
            "type": "event",
            "name": "Buy",
            "inputs": [
                {
                    "name": "buyer",
                    "type": "address",
                    "indexed": true,
                    "internalType": "address"
                },
                {
                    "name": "merchID",
                    "type": "uint16",
                    "indexed": true,
                    "internalType": "uint16"
                },
                {
                    "name": "price",
                    "type": "uint256",
                    "indexed": false,
                    "internalType": "uint256"
                }
            ],
            "anonymous": false
        },
        {
            "type": "event",
            "name": "LogCanceled",
            "inputs": [],
            "anonymous": false
        },
        {
            "type": "event",
            "name": "LogWithdrawal",
            "inputs": [
                {
                    "name": "withdrawer",
                    "type": "address",
                    "indexed": false,
                    "internalType": "address"
                },
                {
                    "name": "withdrawalAccount",
                    "type": "address",
                    "indexed": false,
                    "internalType": "address"
                },
                {
                    "name": "amount",
                    "type": "uint256",
                    "indexed": false,
                    "internalType": "uint256"
                }
            ],
            "anonymous": false
        },
        {
            "type": "event",
            "name": "NewBid",
            "inputs": [
                {
                    "name": "auctionId",
                    "type": "bytes32",
                    "indexed": false,
                    "internalType": "bytes32"
                },
                {
                    "name": "bidder",
                    "type": "address",
                    "indexed": false,
                    "internalType": "address"
                },
                {
                    "name": "bid",
                    "type": "uint256",
                    "indexed": false,
                    "internalType": "uint256"
                }
            ],
            "anonymous": false
        },
        {
            "type": "event",
            "name": "Transfer",
            "inputs": [
                {
                    "name": "from",
                    "type": "address",
                    "indexed": true,
                    "internalType": "address"
                },
                {
                    "name": "to",
                    "type": "address",
                    "indexed": true,
                    "internalType": "address"
                },
                {
                    "name": "value",
                    "type": "uint256",
                    "indexed": false,
                    "internalType": "uint256"
                }
            ],
            "anonymous": false
        },
        {
            "type": "error",
            "name": "ERC20InsufficientAllowance",
            "inputs": [
                {
                    "name": "spender",
                    "type": "address",
                    "internalType": "address"
                },
                {
                    "name": "allowance",
                    "type": "uint256",
                    "internalType": "uint256"
                },
                {
                    "name": "needed",
                    "type": "uint256",
                    "internalType": "uint256"
                }
            ]
        },
        {
            "type": "error",
            "name": "ERC20InsufficientBalance",
            "inputs": [
                {
                    "name": "sender",
                    "type": "address",
                    "internalType": "address"
                },
                {
                    "name": "balance",
                    "type": "uint256",
                    "internalType": "uint256"
                },
                {
                    "name": "needed",
                    "type": "uint256",
                    "internalType": "uint256"
                }
            ]
        },
        {
            "type": "error",
            "name": "ERC20InvalidApprover",
            "inputs": [
                {
                    "name": "approver",
                    "type": "address",
                    "internalType": "address"
                }
            ]
        },
        {
            "type": "error",
            "name": "ERC20InvalidReceiver",
            "inputs": [
                {
                    "name": "receiver",
                    "type": "address",
                    "internalType": "address"
                }
            ]
        },
        {
            "type": "error",
            "name": "ERC20InvalidSender",
            "inputs": [
                {
                    "name": "sender",
                    "type": "address",
                    "internalType": "address"
                }
            ]
        },
        {
            "type": "error",
            "name": "ERC20InvalidSpender",
            "inputs": [
                {
                    "name": "spender",
                    "type": "address",
                    "internalType": "address"
                }
            ]
        }
    ],
    "bytecode": {
        "object": "0x608060405234801562000010575f80fd5b5060405162001457380380620014578339810160408190526200003391620000bf565b6040518060400160405280600c81526020016b2837b9b4ba34bb32a1b7b4b760a11b81525060405180604001604052806004815260200163504f534960e01b81525081600390816200008691906200018c565b5060046200009582826200018c565b5050600580546001600160a01b0319166001600160a01b0393909316929092179091555062000258565b5f60208284031215620000d0575f80fd5b81516001600160a01b0381168114620000e7575f80fd5b9392505050565b634e487b7160e01b5f52604160045260245ffd5b600181811c908216806200011757607f821691505b6020821081036200013657634e487b7160e01b5f52602260045260245ffd5b50919050565b601f8211156200018757805f5260205f20601f840160051c81016020851015620001635750805b601f840160051c820191505b8181101562000184575f81556001016200016f565b50505b505050565b81516001600160401b03811115620001a857620001a8620000ee565b620001c081620001b9845462000102565b846200013c565b602080601f831160018114620001f6575f8415620001de5750858301515b5f19600386901b1c1916600185901b17855562000250565b5f85815260208120601f198616915b82811015620002265788860151825594840194600190910190840162000205565b50858210156200024457878501515f19600388901b60f8161c191681555b505060018460011b0185555b505050505050565b6111f180620002665f395ff3fe608060405234801561000f575f80fd5b506004361061018f575f3560e01c806370a08231116100dd578063b3cc167a11610088578063e8867d5911610063578063e8867d5914610438578063ee14e9391461044b578063f5b56c561461046d575f80fd5b8063b3cc167a146103d7578063bf76c0ef146103e0578063dd62ed3e146103f3575f80fd5b806391f90157116100b857806391f901571461039c57806395d89b41146103bc578063a9059cbb146103c4575f80fd5b806370a082311461030f5780638da5cb5b146103445780638dfa436314610389575f80fd5b8063313ce5671161013d57806342966c681161011857806342966c68146102c7578063429b62e5146102da578063704b6c02146102fc575f80fd5b8063313ce5671461027e5780633f9942ff1461028d57806340c10f19146102b2575f80fd5b80631edbc5be1161016d5780631edbc5be146101e6578063201bbdbe1461024c57806323b872dd1461026b575f80fd5b806306fdde0314610193578063095ea7b3146101b157806318160ddd146101d4575b5f80fd5b61019b610476565b6040516101a89190610f32565b60405180910390f35b6101c46101bf366004610fc4565b610506565b60405190151581526020016101a8565b6002545b6040519081526020016101a8565b6102226101f4366004610fec565b600e6020525f90815260409020805460019091015473ffffffffffffffffffffffffffffffffffffffff1682565b6040805192835273ffffffffffffffffffffffffffffffffffffffff9091166020830152016101a8565b6101d861025a366004610fec565b5f908152600e602052604090205490565b6101c4610279366004611003565b61051f565b604051600281526020016101a8565b6006546101c49074010000000000000000000000000000000000000000900460ff1681565b6102c56102c0366004610fc4565b6105bd565b005b6102c56102d5366004610fec565b61064c565b6101c46102e836600461103c565b600d6020525f908152604090205460ff1681565b6102c561030a36600461103c565b610659565b6101d861031d36600461103c565b73ffffffffffffffffffffffffffffffffffffffff165f9081526020819052604090205490565b6005546103649073ffffffffffffffffffffffffffffffffffffffff1681565b60405173ffffffffffffffffffffffffffffffffffffffff90911681526020016101a8565b6101d8610397366004611055565b610728565b6009546103649073ffffffffffffffffffffffffffffffffffffffff1681565b61019b610746565b6101c46103d2366004610fc4565b610755565b6101d860075481565b6102c56103ee36600461103c565b610882565b6101d8610401366004611075565b73ffffffffffffffffffffffffffffffffffffffff9182165f90815260016020908152604080832093909416825291909152205490565b6102c56104463660046110a6565b610951565b6101c461045936600461103c565b600c6020525f908152604090205460ff1681565b6101d860085481565b606060038054610485906110c8565b80601f01602080910402602001604051908101604052809291908181526020018280546104b1906110c8565b80156104fc5780601f106104d3576101008083540402835291602001916104fc565b820191905f5260205f20905b8154815290600101906020018083116104df57829003601f168201915b5050505050905090565b5f336105138185856109ee565b60019150505b92915050565b6005545f9073ffffffffffffffffffffffffffffffffffffffff1633146105a7576040517f08c379a000000000000000000000000000000000000000000000000000000000815260206004820152601460248201527f596f7520617265206e6f7420616e206f776e657200000000000000000000000060448201526064015b60405180910390fd5b6105b2848484610a00565b506001949350505050565b60055473ffffffffffffffffffffffffffffffffffffffff16331461063e576040517f08c379a000000000000000000000000000000000000000000000000000000000815260206004820152601460248201527f596f7520617265206e6f7420616e206f776e6572000000000000000000000000604482015260640161059e565b6106488282610a18565b5050565b6106565f82610a72565b50565b60055473ffffffffffffffffffffffffffffffffffffffff1633146106da576040517f08c379a000000000000000000000000000000000000000000000000000000000815260206004820152601460248201527f596f7520617265206e6f7420616e206f776e6572000000000000000000000000604482015260640161059e565b73ffffffffffffffffffffffffffffffffffffffff165f908152600d6020526040902080547fffffffffffffffffffffffffffffffffffffffffffffffffffffffffffffff00166001179055565b5f60646107358385611146565b61073f919061115d565b9392505050565b606060048054610485906110c8565b73ffffffffffffffffffffffffffffffffffffffff82165f908152600c602052604081205460ff16151560010361079a575f6107918484610acc565b91506105199050565b600a82101580156107ac575060288211155b610838576040517f08c379a000000000000000000000000000000000000000000000000000000000815260206004820152602260248201527f416c6c6f77656420746f2073656e64203130203d3c20414d4f554e54203d3c2060448201527f3430000000000000000000000000000000000000000000000000000000000000606482015260840161059e565b5f610844836014610728565b90505f6108518285611195565b90505f61085e3084610acc565b90505f61086b8784610acc565b90508180156108775750805b945050505050610519565b60055473ffffffffffffffffffffffffffffffffffffffff163314610903576040517f08c379a000000000000000000000000000000000000000000000000000000000815260206004820152601460248201527f596f7520617265206e6f7420616e206f776e6572000000000000000000000000604482015260640161059e565b73ffffffffffffffffffffffffffffffffffffffff165f908152600c6020526040902080547fffffffffffffffffffffffffffffffffffffffffffffffffffffffffffffff00166001179055565b335f908152600b60205260408120805483929061096f908490611195565b909155505060065473ffffffffffffffffffffffffffffffffffffffff165f908152600b6020526040812080548392906109aa9084906111a8565b909155505060405181815261ffff83169033907f9e7f3ac9856a954ae44f45fa55acf9e7fa0148c4b1190e209130b7f17e55d0059060200160405180910390a35050565b6109fb8383836001610ad9565b505050565b5f33610a0d858285610c1f565b6105b2858585610ce6565b73ffffffffffffffffffffffffffffffffffffffff8216610a67576040517fec442f050000000000000000000000000000000000000000000000000000000081525f600482015260240161059e565b6106485f8383610d8b565b73ffffffffffffffffffffffffffffffffffffffff8216610ac1576040517f96c6fd1e0000000000000000000000000000000000000000000000000000000081525f600482015260240161059e565b610648825f83610d8b565b5f33610513818585610ce6565b73ffffffffffffffffffffffffffffffffffffffff8416610b28576040517fe602df050000000000000000000000000000000000000000000000000000000081525f600482015260240161059e565b73ffffffffffffffffffffffffffffffffffffffff8316610b77576040517f94280d620000000000000000000000000000000000000000000000000000000081525f600482015260240161059e565b73ffffffffffffffffffffffffffffffffffffffff8085165f9081526001602090815260408083209387168352929052208290558015610c19578273ffffffffffffffffffffffffffffffffffffffff168473ffffffffffffffffffffffffffffffffffffffff167f8c5be1e5ebec7d5bd14f71427d1e84f3dd0314c0f7b2291e5b200ac8c7c3b92584604051610c1091815260200190565b60405180910390a35b50505050565b73ffffffffffffffffffffffffffffffffffffffff8381165f908152600160209081526040808320938616835292905220547fffffffffffffffffffffffffffffffffffffffffffffffffffffffffffffffff8114610c195781811015610cd8576040517ffb8f41b200000000000000000000000000000000000000000000000000000000815273ffffffffffffffffffffffffffffffffffffffff84166004820152602481018290526044810183905260640161059e565b610c1984848484035f610ad9565b73ffffffffffffffffffffffffffffffffffffffff8316610d35576040517f96c6fd1e0000000000000000000000000000000000000000000000000000000081525f600482015260240161059e565b73ffffffffffffffffffffffffffffffffffffffff8216610d84576040517fec442f050000000000000000000000000000000000000000000000000000000081525f600482015260240161059e565b6109fb8383835b73ffffffffffffffffffffffffffffffffffffffff8316610dc2578060025f828254610db791906111a8565b90915550610e729050565b73ffffffffffffffffffffffffffffffffffffffff83165f9081526020819052604090205481811015610e47576040517fe450d38c00000000000000000000000000000000000000000000000000000000815273ffffffffffffffffffffffffffffffffffffffff85166004820152602481018290526044810183905260640161059e565b73ffffffffffffffffffffffffffffffffffffffff84165f9081526020819052604090209082900390555b73ffffffffffffffffffffffffffffffffffffffff8216610e9b57600280548290039055610ec6565b73ffffffffffffffffffffffffffffffffffffffff82165f9081526020819052604090208054820190555b8173ffffffffffffffffffffffffffffffffffffffff168373ffffffffffffffffffffffffffffffffffffffff167fddf252ad1be2c89b69c2b068fc378daa952ba7f163c4a11628f55a4df523b3ef83604051610f2591815260200190565b60405180910390a3505050565b5f602080835283518060208501525f5b81811015610f5e57858101830151858201604001528201610f42565b505f6040828601015260407fffffffffffffffffffffffffffffffffffffffffffffffffffffffffffffffe0601f8301168501019250505092915050565b803573ffffffffffffffffffffffffffffffffffffffff81168114610fbf575f80fd5b919050565b5f8060408385031215610fd5575f80fd5b610fde83610f9c565b946020939093013593505050565b5f60208284031215610ffc575f80fd5b5035919050565b5f805f60608486031215611015575f80fd5b61101e84610f9c565b925061102c60208501610f9c565b9150604084013590509250925092565b5f6020828403121561104c575f80fd5b61073f82610f9c565b5f8060408385031215611066575f80fd5b50508035926020909101359150565b5f8060408385031215611086575f80fd5b61108f83610f9c565b915061109d60208401610f9c565b90509250929050565b5f80604083850312156110b7575f80fd5b823561ffff81168114610fde575f80fd5b600181811c908216806110dc57607f821691505b602082108103611113577f4e487b71000000000000000000000000000000000000000000000000000000005f52602260045260245ffd5b50919050565b7f4e487b71000000000000000000000000000000000000000000000000000000005f52601160045260245ffd5b808202811582820484141761051957610519611119565b5f82611190577f4e487b71000000000000000000000000000000000000000000000000000000005f52601260045260245ffd5b500490565b8181038181111561051957610519611119565b808201808211156105195761051961111956fea2646970667358221220a13c5579aa52f038246d5f97154460e035574be5bc2966c84e16575e2133cf1364736f6c63430008180033",
        "linkReferences": {}
    },
    "methodIdentifiers": {
        "addMerchant(address)": "bf76c0ef",
        "admins(address)": "429b62e5",
        "allowance(address,address)": "dd62ed3e",
        "approve(address,uint256)": "095ea7b3",
        "auctions(bytes32)": "1edbc5be",
        "balanceOf(address)": "70a08231",
        "bidIncrement()": "b3cc167a",
        "burn(uint256)": "42966c68",
        "buy(uint16,uint256)": "e8867d59",
        "calculate(uint256,uint256)": "8dfa4363",
        "canceled()": "3f9942ff",
        "decimals()": "313ce567",
        "getHighestBid(bytes32)": "201bbdbe",
        "highestBidder()": "91f90157",
        "highestBindingBid()": "f5b56c56",
        "merchants(address)": "ee14e939",
        "mint(address,uint256)": "40c10f19",
        "name()": "06fdde03",
        "owner()": "8da5cb5b",
        "setAdmin(address)": "704b6c02",
        "symbol()": "95d89b41",
        "totalSupply()": "18160ddd",
        "transfer(address,uint256)": "a9059cbb",
        "transferFrom(address,address,uint256)": "23b872dd"
    },
    "id": 30
}